{
	"contracts/VotingSystem.sol": {
		"VotingSystem": {
			"abi": [
				{
					"inputs": [],
					"stateMutability": "nonpayable",
					"type": "constructor"
				},
				{
					"inputs": [
						{
							"internalType": "uint256",
							"name": "pollIndex",
							"type": "uint256"
						}
					],
					"name": "closePoll",
					"outputs": [],
					"stateMutability": "nonpayable",
					"type": "function"
				},
				{
					"inputs": [
						{
							"internalType": "string",
							"name": "_question",
							"type": "string"
						},
						{
							"internalType": "string[]",
							"name": "_options",
							"type": "string[]"
						},
						{
							"internalType": "uint256",
							"name": "_deadline",
							"type": "uint256"
						}
					],
					"name": "createPoll",
					"outputs": [],
					"stateMutability": "nonpayable",
					"type": "function"
				},
				{
					"inputs": [
						{
							"internalType": "uint256",
							"name": "_pollIndex",
							"type": "uint256"
						}
					],
					"name": "getWinner",
					"outputs": [
						{
							"internalType": "string[]",
							"name": "",
							"type": "string[]"
						}
					],
					"stateMutability": "view",
					"type": "function"
				},
				{
					"inputs": [],
					"name": "owner",
					"outputs": [
						{
							"internalType": "address",
							"name": "",
							"type": "address"
						}
					],
					"stateMutability": "view",
					"type": "function"
				},
				{
					"inputs": [
						{
							"internalType": "uint256",
							"name": "",
							"type": "uint256"
						}
					],
					"name": "polls",
					"outputs": [
						{
							"internalType": "string",
							"name": "question",
							"type": "string"
						},
						{
							"internalType": "bool",
							"name": "isOpen",
							"type": "bool"
						},
						{
							"internalType": "uint256",
							"name": "deadline",
							"type": "uint256"
						}
					],
					"stateMutability": "view",
					"type": "function"
				},
				{
					"inputs": [
						{
							"internalType": "uint256",
							"name": "_indexOfPoll",
							"type": "uint256"
						},
						{
							"internalType": "uint256",
							"name": "_indexOfQuestion",
							"type": "uint256"
						}
					],
					"name": "vote",
					"outputs": [],
					"stateMutability": "nonpayable",
					"type": "function"
				}
			],
			"devdoc": {
				"kind": "dev",
				"methods": {},
				"version": 1
			},
			"evm": {
				"assembly": "    /* \"contracts/VotingSystem.sol\":61:3116  contract VotingSystem {... */\n  mstore(0x40, 0x80)\n    /* \"contracts/VotingSystem.sol\":376:426  constructor(){... */\n  callvalue\n  dup1\n  iszero\n  tag_1\n  jumpi\n  revert(0x00, 0x00)\ntag_1:\n  pop\n    /* \"contracts/VotingSystem.sol\":408:418  msg.sender */\n  caller\n    /* \"contracts/VotingSystem.sol\":400:405  owner */\n  0x00\n  0x00\n    /* \"contracts/VotingSystem.sol\":400:418  owner = msg.sender */\n  0x0100\n  exp\n  dup2\n  sload\n  dup2\n  0xffffffffffffffffffffffffffffffffffffffff\n  mul\n  not\n  and\n  swap1\n  dup4\n  0xffffffffffffffffffffffffffffffffffffffff\n  and\n  mul\n  or\n  swap1\n  sstore\n  pop\n    /* \"contracts/VotingSystem.sol\":61:3116  contract VotingSystem {... */\n  dataSize(sub_0)\n  dup1\n  dataOffset(sub_0)\n  0x00\n  codecopy\n  0x00\n  return\nstop\n\nsub_0: assembly {\n        /* \"contracts/VotingSystem.sol\":61:3116  contract VotingSystem {... */\n      mstore(0x40, 0x80)\n      callvalue\n      dup1\n      iszero\n      tag_1\n      jumpi\n      revert(0x00, 0x00)\n    tag_1:\n      pop\n      jumpi(tag_2, lt(calldatasize, 0x04))\n      shr(0xe0, calldataload(0x00))\n      dup1\n      0x4129b2c9\n      eq\n      tag_3\n      jumpi\n      dup1\n      0x8da5cb5b\n      eq\n      tag_4\n      jumpi\n      dup1\n      0x9534e637\n      eq\n      tag_5\n      jumpi\n      dup1\n      0xac2f0074\n      eq\n      tag_6\n      jumpi\n      dup1\n      0xb384abef\n      eq\n      tag_7\n      jumpi\n      dup1\n      0xf8c860f4\n      eq\n      tag_8\n      jumpi\n    tag_2:\n      revert(0x00, 0x00)\n        /* \"contracts/VotingSystem.sol\":1890:2808  function getWinner(uint _pollIndex) external view onlyOwner returns (string[] memory){... */\n    tag_3:\n      tag_9\n      0x04\n      dup1\n      calldatasize\n      sub\n      dup2\n      add\n      swap1\n      tag_10\n      swap2\n      swap1\n      tag_11\n      jump\t// in\n    tag_10:\n      tag_12\n      jump\t// in\n    tag_9:\n      mload(0x40)\n      tag_13\n      swap2\n      swap1\n      tag_14\n      jump\t// in\n    tag_13:\n      mload(0x40)\n      dup1\n      swap2\n      sub\n      swap1\n      return\n        /* \"contracts/VotingSystem.sol\":92:112  address public owner */\n    tag_4:\n      tag_15\n      tag_16\n      jump\t// in\n    tag_15:\n      mload(0x40)\n      tag_17\n      swap2\n      swap1\n      tag_18\n      jump\t// in\n    tag_17:\n      mload(0x40)\n      dup1\n      swap2\n      sub\n      swap1\n      return\n        /* \"contracts/VotingSystem.sol\":1620:1882  function closePoll(uint pollIndex) external onlyOwner {... */\n    tag_5:\n      tag_19\n      0x04\n      dup1\n      calldatasize\n      sub\n      dup2\n      add\n      swap1\n      tag_20\n      swap2\n      swap1\n      tag_11\n      jump\t// in\n    tag_20:\n      tag_21\n      jump\t// in\n    tag_19:\n      stop\n        /* \"contracts/VotingSystem.sol\":434:453  Poll[] public polls */\n    tag_6:\n      tag_22\n      0x04\n      dup1\n      calldatasize\n      sub\n      dup2\n      add\n      swap1\n      tag_23\n      swap2\n      swap1\n      tag_11\n      jump\t// in\n    tag_23:\n      tag_24\n      jump\t// in\n    tag_22:\n      mload(0x40)\n      tag_25\n      swap4\n      swap3\n      swap2\n      swap1\n      tag_26\n      jump\t// in\n    tag_25:\n      mload(0x40)\n      dup1\n      swap2\n      sub\n      swap1\n      return\n        /* \"contracts/VotingSystem.sol\":1036:1614  function vote(uint _indexOfPoll, uint _indexOfQuestion) external {... */\n    tag_7:\n      tag_27\n      0x04\n      dup1\n      calldatasize\n      sub\n      dup2\n      add\n      swap1\n      tag_28\n      swap2\n      swap1\n      tag_29\n      jump\t// in\n    tag_28:\n      tag_30\n      jump\t// in\n    tag_27:\n      stop\n        /* \"contracts/VotingSystem.sol\":578:1028  function createPoll(string memory _question, string[] memory _options, uint _deadline)  external onlyOwner {... */\n    tag_8:\n      tag_31\n      0x04\n      dup1\n      calldatasize\n      sub\n      dup2\n      add\n      swap1\n      tag_32\n      swap2\n      swap1\n      tag_33\n      jump\t// in\n    tag_32:\n      tag_34\n      jump\t// in\n    tag_31:\n      stop\n        /* \"contracts/VotingSystem.sol\":1890:2808  function getWinner(uint _pollIndex) external view onlyOwner returns (string[] memory){... */\n    tag_12:\n        /* \"contracts/VotingSystem.sol\":1959:1974  string[] memory */\n      0x60\n        /* \"contracts/VotingSystem.sol\":515:520  owner */\n      0x00\n      0x00\n      swap1\n      sload\n      swap1\n      0x0100\n      exp\n      swap1\n      div\n      0xffffffffffffffffffffffffffffffffffffffff\n      and\n        /* \"contracts/VotingSystem.sol\":501:520  msg.sender == owner */\n      0xffffffffffffffffffffffffffffffffffffffff\n      and\n        /* \"contracts/VotingSystem.sol\":501:511  msg.sender */\n      caller\n        /* \"contracts/VotingSystem.sol\":501:520  msg.sender == owner */\n      0xffffffffffffffffffffffffffffffffffffffff\n      and\n      eq\n        /* \"contracts/VotingSystem.sol\":493:550  require(msg.sender == owner, \"Only owner can call this.\") */\n      tag_36\n      jumpi\n      mload(0x40)\n      0x08c379a000000000000000000000000000000000000000000000000000000000\n      dup2\n      mstore\n      0x04\n      add\n      tag_37\n      swap1\n      tag_38\n      jump\t// in\n    tag_37:\n      mload(0x40)\n      dup1\n      swap2\n      sub\n      swap1\n      revert\n    tag_36:\n        /* \"contracts/VotingSystem.sol\":2008:2018  _pollIndex */\n      dup2\n        /* \"contracts/VotingSystem.sol\":1994:1999  polls */\n      0x01\n        /* \"contracts/VotingSystem.sol\":1994:2006  polls.length */\n      dup1\n      sload\n      swap1\n      pop\n        /* \"contracts/VotingSystem.sol\":1994:2018  polls.length> _pollIndex */\n      gt\n        /* \"contracts/VotingSystem.sol\":1986:2055  require(polls.length> _pollIndex,\"polls index out of bound exeption\") */\n      tag_40\n      jumpi\n      mload(0x40)\n      0x08c379a000000000000000000000000000000000000000000000000000000000\n      dup2\n      mstore\n      0x04\n      add\n      tag_41\n      swap1\n      tag_42\n      jump\t// in\n    tag_41:\n      mload(0x40)\n      dup1\n      swap2\n      sub\n      swap1\n      revert\n    tag_40:\n        /* \"contracts/VotingSystem.sol\":2068:2084  uint winnerCount */\n      0x00\n        /* \"contracts/VotingSystem.sol\":2085:2086  0 */\n      0x00\n        /* \"contracts/VotingSystem.sol\":2068:2086  uint winnerCount=0 */\n      swap1\n      pop\n        /* \"contracts/VotingSystem.sol\":2097:2109  uint maxVote */\n      0x00\n        /* \"contracts/VotingSystem.sol\":2110:2111  0 */\n      0x00\n        /* \"contracts/VotingSystem.sol\":2097:2111  uint maxVote=0 */\n      swap1\n      pop\n        /* \"contracts/VotingSystem.sol\":2122:2139  Poll storage poll */\n      0x00\n        /* \"contracts/VotingSystem.sol\":2142:2147  polls */\n      0x01\n        /* \"contracts/VotingSystem.sol\":2148:2158  _pollIndex */\n      dup6\n        /* \"contracts/VotingSystem.sol\":2142:2159  polls[_pollIndex] */\n      dup2\n      sload\n      dup2\n      lt\n      tag_43\n      jumpi\n      tag_44\n      tag_45\n      jump\t// in\n    tag_44:\n    tag_43:\n      swap1\n      0x00\n      mstore\n      keccak256(0x00, 0x20)\n      swap1\n      0x07\n      mul\n      add\n        /* \"contracts/VotingSystem.sol\":2122:2159  Poll storage poll = polls[_pollIndex] */\n      swap1\n      pop\n        /* \"contracts/VotingSystem.sol\":2170:2194  uint[] memory tmpWinners */\n      0x00\n        /* \"contracts/VotingSystem.sol\":2208:2212  poll */\n      dup2\n        /* \"contracts/VotingSystem.sol\":2208:2220  poll.options */\n      0x01\n      add\n        /* \"contracts/VotingSystem.sol\":2208:2227  poll.options.length */\n      dup1\n      sload\n      swap1\n      pop\n        /* \"contracts/VotingSystem.sol\":2197:2228  new uint[](poll.options.length) */\n      0xffffffffffffffff\n      dup2\n      gt\n      iszero\n      tag_47\n      jumpi\n      tag_48\n      tag_49\n      jump\t// in\n    tag_48:\n    tag_47:\n      mload(0x40)\n      swap1\n      dup1\n      dup3\n      mstore\n      dup1\n      0x20\n      mul\n      0x20\n      add\n      dup3\n      add\n      0x40\n      mstore\n      dup1\n      iszero\n      tag_50\n      jumpi\n      dup2\n      0x20\n      add\n      0x20\n      dup3\n      mul\n      dup1\n      calldatasize\n      dup4\n      calldatacopy\n      dup1\n      dup3\n      add\n      swap2\n      pop\n      pop\n      swap1\n      pop\n    tag_50:\n      pop\n        /* \"contracts/VotingSystem.sol\":2170:2228  uint[] memory tmpWinners = new uint[](poll.options.length) */\n      swap1\n      pop\n        /* \"contracts/VotingSystem.sol\":2256:2262  uint i */\n      0x00\n        /* \"contracts/VotingSystem.sol\":2264:2265  0 */\n      0x00\n        /* \"contracts/VotingSystem.sol\":2256:2265  uint i= 0 */\n      swap1\n      pop\n        /* \"contracts/VotingSystem.sol\":2251:2603  for (uint i= 0; i < polls[_pollIndex].options.length; i++){... */\n    tag_51:\n        /* \"contracts/VotingSystem.sol\":2271:2276  polls */\n      0x01\n        /* \"contracts/VotingSystem.sol\":2277:2287  _pollIndex */\n      dup8\n        /* \"contracts/VotingSystem.sol\":2271:2288  polls[_pollIndex] */\n      dup2\n      sload\n      dup2\n      lt\n      tag_54\n      jumpi\n      tag_55\n      tag_45\n      jump\t// in\n    tag_55:\n    tag_54:\n      swap1\n      0x00\n      mstore\n      keccak256(0x00, 0x20)\n      swap1\n      0x07\n      mul\n      add\n        /* \"contracts/VotingSystem.sol\":2271:2296  polls[_pollIndex].options */\n      0x01\n      add\n        /* \"contracts/VotingSystem.sol\":2271:2303  polls[_pollIndex].options.length */\n      dup1\n      sload\n      swap1\n      pop\n        /* \"contracts/VotingSystem.sol\":2267:2268  i */\n      dup2\n        /* \"contracts/VotingSystem.sol\":2267:2303  i < polls[_pollIndex].options.length */\n      lt\n        /* \"contracts/VotingSystem.sol\":2251:2603  for (uint i= 0; i < polls[_pollIndex].options.length; i++){... */\n      iszero\n      tag_52\n      jumpi\n        /* \"contracts/VotingSystem.sol\":2349:2356  maxVote */\n      dup4\n        /* \"contracts/VotingSystem.sol\":2328:2332  poll */\n      dup4\n        /* \"contracts/VotingSystem.sol\":2328:2343  poll.voteCounts */\n      0x04\n      add\n        /* \"contracts/VotingSystem.sol\":2328:2346  poll.voteCounts[i] */\n      0x00\n        /* \"contracts/VotingSystem.sol\":2344:2345  i */\n      dup4\n        /* \"contracts/VotingSystem.sol\":2328:2346  poll.voteCounts[i] */\n      dup2\n      mstore\n      0x20\n      add\n      swap1\n      dup2\n      mstore\n      0x20\n      add\n      0x00\n      keccak256\n      sload\n        /* \"contracts/VotingSystem.sol\":2328:2356  poll.voteCounts[i] > maxVote */\n      gt\n        /* \"contracts/VotingSystem.sol\":2324:2592  if (poll.voteCounts[i] > maxVote){... */\n      iszero\n      tag_57\n      jumpi\n        /* \"contracts/VotingSystem.sol\":2386:2390  poll */\n      dup3\n        /* \"contracts/VotingSystem.sol\":2386:2401  poll.voteCounts */\n      0x04\n      add\n        /* \"contracts/VotingSystem.sol\":2386:2404  poll.voteCounts[i] */\n      0x00\n        /* \"contracts/VotingSystem.sol\":2402:2403  i */\n      dup3\n        /* \"contracts/VotingSystem.sol\":2386:2404  poll.voteCounts[i] */\n      dup2\n      mstore\n      0x20\n      add\n      swap1\n      dup2\n      mstore\n      0x20\n      add\n      0x00\n      keccak256\n      sload\n        /* \"contracts/VotingSystem.sol\":2376:2404  maxVote = poll.voteCounts[i] */\n      swap4\n      pop\n        /* \"contracts/VotingSystem.sol\":2437:2438  1 */\n      0x01\n        /* \"contracts/VotingSystem.sol\":2423:2438  winnerCount = 1 */\n      swap5\n      pop\n        /* \"contracts/VotingSystem.sol\":2473:2474  i */\n      dup1\n        /* \"contracts/VotingSystem.sol\":2457:2467  tmpWinners */\n      dup3\n        /* \"contracts/VotingSystem.sol\":2468:2469  0 */\n      0x00\n        /* \"contracts/VotingSystem.sol\":2457:2470  tmpWinners[0] */\n      dup2\n      mload\n      dup2\n      lt\n      tag_58\n      jumpi\n      tag_59\n      tag_45\n      jump\t// in\n    tag_59:\n    tag_58:\n      0x20\n      mul\n      0x20\n      add\n      add\n        /* \"contracts/VotingSystem.sol\":2457:2474  tmpWinners[0] = i */\n      dup2\n      dup2\n      mstore\n      pop\n      pop\n        /* \"contracts/VotingSystem.sol\":2324:2592  if (poll.voteCounts[i] > maxVote){... */\n      jump(tag_60)\n    tag_57:\n        /* \"contracts/VotingSystem.sol\":2522:2529  maxVote */\n      dup4\n        /* \"contracts/VotingSystem.sol\":2500:2504  poll */\n      dup4\n        /* \"contracts/VotingSystem.sol\":2500:2515  poll.voteCounts */\n      0x04\n      add\n        /* \"contracts/VotingSystem.sol\":2500:2518  poll.voteCounts[i] */\n      0x00\n        /* \"contracts/VotingSystem.sol\":2516:2517  i */\n      dup4\n        /* \"contracts/VotingSystem.sol\":2500:2518  poll.voteCounts[i] */\n      dup2\n      mstore\n      0x20\n      add\n      swap1\n      dup2\n      mstore\n      0x20\n      add\n      0x00\n      keccak256\n      sload\n        /* \"contracts/VotingSystem.sol\":2500:2529  poll.voteCounts[i] == maxVote */\n      sub\n        /* \"contracts/VotingSystem.sol\":2496:2592  if (poll.voteCounts[i] == maxVote){... */\n      tag_61\n      jumpi\n        /* \"contracts/VotingSystem.sol\":2575:2576  i */\n      dup1\n        /* \"contracts/VotingSystem.sol\":2549:2559  tmpWinners */\n      dup3\n        /* \"contracts/VotingSystem.sol\":2560:2573  winnerCount++ */\n      dup7\n      dup1\n      tag_62\n      swap1\n      tag_63\n      jump\t// in\n    tag_62:\n      swap8\n      pop\n        /* \"contracts/VotingSystem.sol\":2549:2574  tmpWinners[winnerCount++] */\n      dup2\n      mload\n      dup2\n      lt\n      tag_64\n      jumpi\n      tag_65\n      tag_45\n      jump\t// in\n    tag_65:\n    tag_64:\n      0x20\n      mul\n      0x20\n      add\n      add\n        /* \"contracts/VotingSystem.sol\":2549:2576  tmpWinners[winnerCount++]=i */\n      dup2\n      dup2\n      mstore\n      pop\n      pop\n        /* \"contracts/VotingSystem.sol\":2496:2592  if (poll.voteCounts[i] == maxVote){... */\n    tag_61:\n        /* \"contracts/VotingSystem.sol\":2324:2592  if (poll.voteCounts[i] > maxVote){... */\n    tag_60:\n        /* \"contracts/VotingSystem.sol\":2305:2308  i++ */\n      dup1\n      dup1\n      0x01\n      add\n      swap2\n      pop\n      pop\n        /* \"contracts/VotingSystem.sol\":2251:2603  for (uint i= 0; i < polls[_pollIndex].options.length; i++){... */\n      jump(tag_51)\n    tag_52:\n      pop\n        /* \"contracts/VotingSystem.sol\":2615:2638  string[] memory winners */\n      0x00\n        /* \"contracts/VotingSystem.sol\":2654:2665  winnerCount */\n      dup5\n        /* \"contracts/VotingSystem.sol\":2641:2666  new string[](winnerCount) */\n      0xffffffffffffffff\n      dup2\n      gt\n      iszero\n      tag_66\n      jumpi\n      tag_67\n      tag_49\n      jump\t// in\n    tag_67:\n    tag_66:\n      mload(0x40)\n      swap1\n      dup1\n      dup3\n      mstore\n      dup1\n      0x20\n      mul\n      0x20\n      add\n      dup3\n      add\n      0x40\n      mstore\n      dup1\n      iszero\n      tag_68\n      jumpi\n      dup2\n      0x20\n      add\n    tag_69:\n      0x60\n      dup2\n      mstore\n      0x20\n      add\n      swap1\n      0x01\n      swap1\n      sub\n      swap1\n      dup2\n      tag_69\n      jumpi\n      swap1\n      pop\n    tag_68:\n      pop\n        /* \"contracts/VotingSystem.sol\":2615:2666  string[] memory winners = new string[](winnerCount) */\n      swap1\n      pop\n        /* \"contracts/VotingSystem.sol\":2683:2689  uint i */\n      0x00\n        /* \"contracts/VotingSystem.sol\":2692:2693  0 */\n      0x00\n        /* \"contracts/VotingSystem.sol\":2683:2693  uint i = 0 */\n      swap1\n      pop\n        /* \"contracts/VotingSystem.sol\":2678:2774  for (uint i = 0; i<tmpWinners.length; i++){... */\n    tag_70:\n        /* \"contracts/VotingSystem.sol\":2697:2707  tmpWinners */\n      dup3\n        /* \"contracts/VotingSystem.sol\":2697:2714  tmpWinners.length */\n      mload\n        /* \"contracts/VotingSystem.sol\":2695:2696  i */\n      dup2\n        /* \"contracts/VotingSystem.sol\":2695:2714  i<tmpWinners.length */\n      lt\n        /* \"contracts/VotingSystem.sol\":2678:2774  for (uint i = 0; i<tmpWinners.length; i++){... */\n      iszero\n      tag_71\n      jumpi\n        /* \"contracts/VotingSystem.sol\":2747:2751  poll */\n      dup4\n        /* \"contracts/VotingSystem.sol\":2747:2759  poll.options */\n      0x01\n      add\n        /* \"contracts/VotingSystem.sol\":2760:2761  i */\n      dup2\n        /* \"contracts/VotingSystem.sol\":2747:2762  poll.options[i] */\n      dup2\n      sload\n      dup2\n      lt\n      tag_73\n      jumpi\n      tag_74\n      tag_45\n      jump\t// in\n    tag_74:\n    tag_73:\n      swap1\n      0x00\n      mstore\n      keccak256(0x00, 0x20)\n      add\n        /* \"contracts/VotingSystem.sol\":2735:2762  winners[i]= poll.options[i] */\n      dup1\n      sload\n      tag_76\n      swap1\n      tag_77\n      jump\t// in\n    tag_76:\n      dup1\n      0x1f\n      add\n      0x20\n      dup1\n      swap2\n      div\n      mul\n      0x20\n      add\n      mload(0x40)\n      swap1\n      dup2\n      add\n      0x40\n      mstore\n      dup1\n      swap3\n      swap2\n      swap1\n      dup2\n      dup2\n      mstore\n      0x20\n      add\n      dup3\n      dup1\n      sload\n      tag_78\n      swap1\n      tag_77\n      jump\t// in\n    tag_78:\n      dup1\n      iszero\n      tag_79\n      jumpi\n      dup1\n      0x1f\n      lt\n      tag_80\n      jumpi\n      0x0100\n      dup1\n      dup4\n      sload\n      div\n      mul\n      dup4\n      mstore\n      swap2\n      0x20\n      add\n      swap2\n      jump(tag_79)\n    tag_80:\n      dup3\n      add\n      swap2\n      swap1\n      0x00\n      mstore\n      keccak256(0x00, 0x20)\n      swap1\n    tag_81:\n      dup2\n      sload\n      dup2\n      mstore\n      swap1\n      0x01\n      add\n      swap1\n      0x20\n      add\n      dup1\n      dup4\n      gt\n      tag_81\n      jumpi\n      dup3\n      swap1\n      sub\n      0x1f\n      and\n      dup3\n      add\n      swap2\n    tag_79:\n      pop\n      pop\n      pop\n      pop\n      pop\n        /* \"contracts/VotingSystem.sol\":2735:2742  winners */\n      dup3\n        /* \"contracts/VotingSystem.sol\":2743:2744  i */\n      dup3\n        /* \"contracts/VotingSystem.sol\":2735:2745  winners[i] */\n      dup2\n      mload\n      dup2\n      lt\n      tag_82\n      jumpi\n      tag_83\n      tag_45\n      jump\t// in\n    tag_83:\n    tag_82:\n      0x20\n      mul\n      0x20\n      add\n      add\n        /* \"contracts/VotingSystem.sol\":2735:2762  winners[i]= poll.options[i] */\n      dup2\n      swap1\n      mstore\n      pop\n        /* \"contracts/VotingSystem.sol\":2716:2719  i++ */\n      dup1\n      dup1\n      0x01\n      add\n      swap2\n      pop\n      pop\n        /* \"contracts/VotingSystem.sol\":2678:2774  for (uint i = 0; i<tmpWinners.length; i++){... */\n      jump(tag_70)\n    tag_71:\n      pop\n        /* \"contracts/VotingSystem.sol\":2793:2800  winners */\n      dup1\n        /* \"contracts/VotingSystem.sol\":2786:2800  return winners */\n      swap6\n      pop\n      pop\n      pop\n      pop\n      pop\n      pop\n        /* \"contracts/VotingSystem.sol\":1890:2808  function getWinner(uint _pollIndex) external view onlyOwner returns (string[] memory){... */\n      swap2\n      swap1\n      pop\n      jump\t// out\n        /* \"contracts/VotingSystem.sol\":92:112  address public owner */\n    tag_16:\n      0x00\n      0x00\n      swap1\n      sload\n      swap1\n      0x0100\n      exp\n      swap1\n      div\n      0xffffffffffffffffffffffffffffffffffffffff\n      and\n      dup2\n      jump\t// out\n        /* \"contracts/VotingSystem.sol\":1620:1882  function closePoll(uint pollIndex) external onlyOwner {... */\n    tag_21:\n        /* \"contracts/VotingSystem.sol\":515:520  owner */\n      0x00\n      0x00\n      swap1\n      sload\n      swap1\n      0x0100\n      exp\n      swap1\n      div\n      0xffffffffffffffffffffffffffffffffffffffff\n      and\n        /* \"contracts/VotingSystem.sol\":501:520  msg.sender == owner */\n      0xffffffffffffffffffffffffffffffffffffffff\n      and\n        /* \"contracts/VotingSystem.sol\":501:511  msg.sender */\n      caller\n        /* \"contracts/VotingSystem.sol\":501:520  msg.sender == owner */\n      0xffffffffffffffffffffffffffffffffffffffff\n      and\n      eq\n        /* \"contracts/VotingSystem.sol\":493:550  require(msg.sender == owner, \"Only owner can call this.\") */\n      tag_85\n      jumpi\n      mload(0x40)\n      0x08c379a000000000000000000000000000000000000000000000000000000000\n      dup2\n      mstore\n      0x04\n      add\n      tag_86\n      swap1\n      tag_38\n      jump\t// in\n    tag_86:\n      mload(0x40)\n      dup1\n      swap2\n      sub\n      swap1\n      revert\n    tag_85:\n        /* \"contracts/VotingSystem.sol\":1705:1710  polls */\n      0x01\n        /* \"contracts/VotingSystem.sol\":1705:1717  polls.length */\n      dup1\n      sload\n      swap1\n      pop\n        /* \"contracts/VotingSystem.sol\":1693:1702  pollIndex */\n      dup2\n        /* \"contracts/VotingSystem.sol\":1693:1717  pollIndex < polls.length */\n      lt\n        /* \"contracts/VotingSystem.sol\":1685:1740  require(pollIndex < polls.length, \"Invalid poll index\") */\n      tag_88\n      jumpi\n      mload(0x40)\n      0x08c379a000000000000000000000000000000000000000000000000000000000\n      dup2\n      mstore\n      0x04\n      add\n      tag_89\n      swap1\n      tag_90\n      jump\t// in\n    tag_89:\n      mload(0x40)\n      dup1\n      swap2\n      sub\n      swap1\n      revert\n    tag_88:\n        /* \"contracts/VotingSystem.sol\":1751:1768  Poll storage poll */\n      0x00\n        /* \"contracts/VotingSystem.sol\":1771:1776  polls */\n      0x01\n        /* \"contracts/VotingSystem.sol\":1777:1786  pollIndex */\n      dup3\n        /* \"contracts/VotingSystem.sol\":1771:1787  polls[pollIndex] */\n      dup2\n      sload\n      dup2\n      lt\n      tag_91\n      jumpi\n      tag_92\n      tag_45\n      jump\t// in\n    tag_92:\n    tag_91:\n      swap1\n      0x00\n      mstore\n      keccak256(0x00, 0x20)\n      swap1\n      0x07\n      mul\n      add\n        /* \"contracts/VotingSystem.sol\":1751:1787  Poll storage poll = polls[pollIndex] */\n      swap1\n      pop\n        /* \"contracts/VotingSystem.sol\":1806:1810  poll */\n      dup1\n        /* \"contracts/VotingSystem.sol\":1806:1817  poll.isOpen */\n      0x05\n      add\n      0x00\n      swap1\n      sload\n      swap1\n      0x0100\n      exp\n      swap1\n      div\n      0xff\n      and\n        /* \"contracts/VotingSystem.sol\":1798:1844  require(poll.isOpen, \"Poll is already closed\") */\n      tag_94\n      jumpi\n      mload(0x40)\n      0x08c379a000000000000000000000000000000000000000000000000000000000\n      dup2\n      mstore\n      0x04\n      add\n      tag_95\n      swap1\n      tag_96\n      jump\t// in\n    tag_95:\n      mload(0x40)\n      dup1\n      swap2\n      sub\n      swap1\n      revert\n    tag_94:\n        /* \"contracts/VotingSystem.sol\":1869:1874  false */\n      0x00\n        /* \"contracts/VotingSystem.sol\":1855:1859  poll */\n      dup2\n        /* \"contracts/VotingSystem.sol\":1855:1866  poll.isOpen */\n      0x05\n      add\n      0x00\n        /* \"contracts/VotingSystem.sol\":1855:1874  poll.isOpen = false */\n      0x0100\n      exp\n      dup2\n      sload\n      dup2\n      0xff\n      mul\n      not\n      and\n      swap1\n      dup4\n      iszero\n      iszero\n      mul\n      or\n      swap1\n      sstore\n      pop\n        /* \"contracts/VotingSystem.sol\":1674:1882  {... */\n      pop\n        /* \"contracts/VotingSystem.sol\":1620:1882  function closePoll(uint pollIndex) external onlyOwner {... */\n      pop\n      jump\t// out\n        /* \"contracts/VotingSystem.sol\":434:453  Poll[] public polls */\n    tag_24:\n      0x01\n      dup2\n      dup2\n      sload\n      dup2\n      lt\n      tag_97\n      jumpi\n      0x00\n      dup1\n      revert\n    tag_97:\n      swap1\n      0x00\n      mstore\n      keccak256(0x00, 0x20)\n      swap1\n      0x07\n      mul\n      add\n      0x00\n      swap2\n      pop\n      swap1\n      pop\n      dup1\n      0x00\n      add\n      dup1\n      sload\n      tag_99\n      swap1\n      tag_77\n      jump\t// in\n    tag_99:\n      dup1\n      0x1f\n      add\n      0x20\n      dup1\n      swap2\n      div\n      mul\n      0x20\n      add\n      mload(0x40)\n      swap1\n      dup2\n      add\n      0x40\n      mstore\n      dup1\n      swap3\n      swap2\n      swap1\n      dup2\n      dup2\n      mstore\n      0x20\n      add\n      dup3\n      dup1\n      sload\n      tag_100\n      swap1\n      tag_77\n      jump\t// in\n    tag_100:\n      dup1\n      iszero\n      tag_101\n      jumpi\n      dup1\n      0x1f\n      lt\n      tag_102\n      jumpi\n      0x0100\n      dup1\n      dup4\n      sload\n      div\n      mul\n      dup4\n      mstore\n      swap2\n      0x20\n      add\n      swap2\n      jump(tag_101)\n    tag_102:\n      dup3\n      add\n      swap2\n      swap1\n      0x00\n      mstore\n      keccak256(0x00, 0x20)\n      swap1\n    tag_103:\n      dup2\n      sload\n      dup2\n      mstore\n      swap1\n      0x01\n      add\n      swap1\n      0x20\n      add\n      dup1\n      dup4\n      gt\n      tag_103\n      jumpi\n      dup3\n      swap1\n      sub\n      0x1f\n      and\n      dup3\n      add\n      swap2\n    tag_101:\n      pop\n      pop\n      pop\n      pop\n      pop\n      swap1\n      dup1\n      0x05\n      add\n      0x00\n      swap1\n      sload\n      swap1\n      0x0100\n      exp\n      swap1\n      div\n      0xff\n      and\n      swap1\n      dup1\n      0x06\n      add\n      sload\n      swap1\n      pop\n      dup4\n      jump\t// out\n        /* \"contracts/VotingSystem.sol\":1036:1614  function vote(uint _indexOfPoll, uint _indexOfQuestion) external {... */\n    tag_30:\n        /* \"contracts/VotingSystem.sol\":1135:1147  _indexOfPoll */\n      dup2\n        /* \"contracts/VotingSystem.sol\":1120:1125  polls */\n      0x01\n        /* \"contracts/VotingSystem.sol\":1120:1132  polls.length */\n      dup1\n      sload\n      swap1\n      pop\n        /* \"contracts/VotingSystem.sol\":1120:1147  polls.length > _indexOfPoll */\n      gt\n        /* \"contracts/VotingSystem.sol\":1112:1184  require(polls.length > _indexOfPoll,\"poll index out of bound exception\") */\n      tag_105\n      jumpi\n      mload(0x40)\n      0x08c379a000000000000000000000000000000000000000000000000000000000\n      dup2\n      mstore\n      0x04\n      add\n      tag_106\n      swap1\n      tag_107\n      jump\t// in\n    tag_106:\n      mload(0x40)\n      dup1\n      swap2\n      sub\n      swap1\n      revert\n    tag_105:\n        /* \"contracts/VotingSystem.sol\":1195:1212  Poll storage poll */\n      0x00\n        /* \"contracts/VotingSystem.sol\":1215:1220  polls */\n      0x01\n        /* \"contracts/VotingSystem.sol\":1221:1233  _indexOfPoll */\n      dup4\n        /* \"contracts/VotingSystem.sol\":1215:1234  polls[_indexOfPoll] */\n      dup2\n      sload\n      dup2\n      lt\n      tag_108\n      jumpi\n      tag_109\n      tag_45\n      jump\t// in\n    tag_109:\n    tag_108:\n      swap1\n      0x00\n      mstore\n      keccak256(0x00, 0x20)\n      swap1\n      0x07\n      mul\n      add\n        /* \"contracts/VotingSystem.sol\":1195:1234  Poll storage poll = polls[_indexOfPoll] */\n      swap1\n      pop\n        /* \"contracts/VotingSystem.sol\":1275:1291  _indexOfQuestion */\n      dup2\n        /* \"contracts/VotingSystem.sol\":1255:1259  poll */\n      dup2\n        /* \"contracts/VotingSystem.sol\":1255:1267  poll.options */\n      0x01\n      add\n        /* \"contracts/VotingSystem.sol\":1255:1274  poll.options.length */\n      dup1\n      sload\n      swap1\n      pop\n        /* \"contracts/VotingSystem.sol\":1255:1291  poll.options.length>_indexOfQuestion */\n      gt\n        /* \"contracts/VotingSystem.sol\":1247:1326  require(poll.options.length>_indexOfQuestion, \"options out of bound exception\") */\n      tag_111\n      jumpi\n      mload(0x40)\n      0x08c379a000000000000000000000000000000000000000000000000000000000\n      dup2\n      mstore\n      0x04\n      add\n      tag_112\n      swap1\n      tag_113\n      jump\t// in\n    tag_112:\n      mload(0x40)\n      dup1\n      swap2\n      sub\n      swap1\n      revert\n    tag_111:\n        /* \"contracts/VotingSystem.sol\":1345:1349  poll */\n      dup1\n        /* \"contracts/VotingSystem.sol\":1345:1356  poll.isOpen */\n      0x05\n      add\n      0x00\n      swap1\n      sload\n      swap1\n      0x0100\n      exp\n      swap1\n      div\n      0xff\n      and\n        /* \"contracts/VotingSystem.sol\":1337:1376  require(poll.isOpen,\"Poll has closed.\") */\n      tag_114\n      jumpi\n      mload(0x40)\n      0x08c379a000000000000000000000000000000000000000000000000000000000\n      dup2\n      mstore\n      0x04\n      add\n      tag_115\n      swap1\n      tag_116\n      jump\t// in\n    tag_115:\n      mload(0x40)\n      dup1\n      swap2\n      sub\n      swap1\n      revert\n    tag_114:\n        /* \"contracts/VotingSystem.sol\":1396:1400  poll */\n      dup1\n        /* \"contracts/VotingSystem.sol\":1396:1406  poll.voted */\n      0x02\n      add\n        /* \"contracts/VotingSystem.sol\":1396:1418  poll.voted[msg.sender] */\n      0x00\n        /* \"contracts/VotingSystem.sol\":1407:1417  msg.sender */\n      caller\n        /* \"contracts/VotingSystem.sol\":1396:1418  poll.voted[msg.sender] */\n      0xffffffffffffffffffffffffffffffffffffffff\n      and\n      0xffffffffffffffffffffffffffffffffffffffff\n      and\n      dup2\n      mstore\n      0x20\n      add\n      swap1\n      dup2\n      mstore\n      0x20\n      add\n      0x00\n      keccak256\n      0x00\n      swap1\n      sload\n      swap1\n      0x0100\n      exp\n      swap1\n      div\n      0xff\n      and\n        /* \"contracts/VotingSystem.sol\":1395:1418  !poll.voted[msg.sender] */\n      iszero\n        /* \"contracts/VotingSystem.sol\":1387:1438  require(!poll.voted[msg.sender],\"You voted before\") */\n      tag_117\n      jumpi\n      mload(0x40)\n      0x08c379a000000000000000000000000000000000000000000000000000000000\n      dup2\n      mstore\n      0x04\n      add\n      tag_118\n      swap1\n      tag_119\n      jump\t// in\n    tag_118:\n      mload(0x40)\n      dup1\n      swap2\n      sub\n      swap1\n      revert\n    tag_117:\n        /* \"contracts/VotingSystem.sol\":1476:1480  poll */\n      dup1\n        /* \"contracts/VotingSystem.sol\":1476:1489  poll.deadline */\n      0x06\n      add\n      sload\n        /* \"contracts/VotingSystem.sol\":1457:1472  block.timestamp */\n      timestamp\n        /* \"contracts/VotingSystem.sol\":1457:1489  block.timestamp <= poll.deadline */\n      gt\n      iszero\n        /* \"contracts/VotingSystem.sol\":1449:1517  require(block.timestamp <= poll.deadline, \"Voting period has ended\") */\n      tag_120\n      jumpi\n      mload(0x40)\n      0x08c379a000000000000000000000000000000000000000000000000000000000\n      dup2\n      mstore\n      0x04\n      add\n      tag_121\n      swap1\n      tag_122\n      jump\t// in\n    tag_121:\n      mload(0x40)\n      dup1\n      swap2\n      sub\n      swap1\n      revert\n    tag_120:\n        /* \"contracts/VotingSystem.sol\":1532:1536  poll */\n      dup1\n        /* \"contracts/VotingSystem.sol\":1532:1547  poll.voteCounts */\n      0x04\n      add\n        /* \"contracts/VotingSystem.sol\":1532:1565  poll.voteCounts[_indexOfQuestion] */\n      0x00\n        /* \"contracts/VotingSystem.sol\":1548:1564  _indexOfQuestion */\n      dup4\n        /* \"contracts/VotingSystem.sol\":1532:1565  poll.voteCounts[_indexOfQuestion] */\n      dup2\n      mstore\n      0x20\n      add\n      swap1\n      dup2\n      mstore\n      0x20\n      add\n      0x00\n      keccak256\n      0x00\n        /* \"contracts/VotingSystem.sol\":1532:1567  poll.voteCounts[_indexOfQuestion]++ */\n      dup2\n      sload\n      dup1\n      swap3\n      swap2\n      swap1\n      tag_123\n      swap1\n      tag_63\n      jump\t// in\n    tag_123:\n      swap2\n      swap1\n      pop\n      sstore\n      pop\n        /* \"contracts/VotingSystem.sol\":1602:1606  true */\n      0x01\n        /* \"contracts/VotingSystem.sol\":1578:1582  poll */\n      dup2\n        /* \"contracts/VotingSystem.sol\":1578:1588  poll.voted */\n      0x02\n      add\n        /* \"contracts/VotingSystem.sol\":1578:1600  poll.voted[msg.sender] */\n      0x00\n        /* \"contracts/VotingSystem.sol\":1589:1599  msg.sender */\n      caller\n        /* \"contracts/VotingSystem.sol\":1578:1600  poll.voted[msg.sender] */\n      0xffffffffffffffffffffffffffffffffffffffff\n      and\n      0xffffffffffffffffffffffffffffffffffffffff\n      and\n      dup2\n      mstore\n      0x20\n      add\n      swap1\n      dup2\n      mstore\n      0x20\n      add\n      0x00\n      keccak256\n      0x00\n        /* \"contracts/VotingSystem.sol\":1578:1606  poll.voted[msg.sender]= true */\n      0x0100\n      exp\n      dup2\n      sload\n      dup2\n      0xff\n      mul\n      not\n      and\n      swap1\n      dup4\n      iszero\n      iszero\n      mul\n      or\n      swap1\n      sstore\n      pop\n        /* \"contracts/VotingSystem.sol\":1101:1614  {... */\n      pop\n        /* \"contracts/VotingSystem.sol\":1036:1614  function vote(uint _indexOfPoll, uint _indexOfQuestion) external {... */\n      pop\n      pop\n      jump\t// out\n        /* \"contracts/VotingSystem.sol\":578:1028  function createPoll(string memory _question, string[] memory _options, uint _deadline)  external onlyOwner {... */\n    tag_34:\n        /* \"contracts/VotingSystem.sol\":515:520  owner */\n      0x00\n      0x00\n      swap1\n      sload\n      swap1\n      0x0100\n      exp\n      swap1\n      div\n      0xffffffffffffffffffffffffffffffffffffffff\n      and\n        /* \"contracts/VotingSystem.sol\":501:520  msg.sender == owner */\n      0xffffffffffffffffffffffffffffffffffffffff\n      and\n        /* \"contracts/VotingSystem.sol\":501:511  msg.sender */\n      caller\n        /* \"contracts/VotingSystem.sol\":501:520  msg.sender == owner */\n      0xffffffffffffffffffffffffffffffffffffffff\n      and\n      eq\n        /* \"contracts/VotingSystem.sol\":493:550  require(msg.sender == owner, \"Only owner can call this.\") */\n      tag_125\n      jumpi\n      mload(0x40)\n      0x08c379a000000000000000000000000000000000000000000000000000000000\n      dup2\n      mstore\n      0x04\n      add\n      tag_126\n      swap1\n      tag_38\n      jump\t// in\n    tag_126:\n      mload(0x40)\n      dup1\n      swap2\n      sub\n      swap1\n      revert\n    tag_125:\n        /* \"contracts/VotingSystem.sol\":721:722  2 */\n      0x02\n        /* \"contracts/VotingSystem.sol\":704:712  _options */\n      dup3\n        /* \"contracts/VotingSystem.sol\":704:719  _options.length */\n      mload\n        /* \"contracts/VotingSystem.sol\":704:722  _options.length>=2 */\n      lt\n      iszero\n        /* \"contracts/VotingSystem.sol\":696:753  require(_options.length>=2,\"At least 2 options required\") */\n      tag_128\n      jumpi\n      mload(0x40)\n      0x08c379a000000000000000000000000000000000000000000000000000000000\n      dup2\n      mstore\n      0x04\n      add\n      tag_129\n      swap1\n      tag_130\n      jump\t// in\n    tag_129:\n      mload(0x40)\n      dup1\n      swap2\n      sub\n      swap1\n      revert\n    tag_128:\n        /* \"contracts/VotingSystem.sol\":784:785  0 */\n      0x00\n        /* \"contracts/VotingSystem.sol\":772:781  _deadline */\n      dup2\n        /* \"contracts/VotingSystem.sol\":772:785  _deadline > 0 */\n      gt\n        /* \"contracts/VotingSystem.sol\":764:808  require(_deadline > 0,\"Duration must be >0\") */\n      tag_131\n      jumpi\n      mload(0x40)\n      0x08c379a000000000000000000000000000000000000000000000000000000000\n      dup2\n      mstore\n      0x04\n      add\n      tag_132\n      swap1\n      tag_133\n      jump\t// in\n    tag_132:\n      mload(0x40)\n      dup1\n      swap2\n      sub\n      swap1\n      revert\n    tag_131:\n        /* \"contracts/VotingSystem.sol\":821:841  Poll storage newPoll */\n      0x00\n        /* \"contracts/VotingSystem.sol\":844:849  polls */\n      0x01\n        /* \"contracts/VotingSystem.sol\":844:856  polls.push() */\n      dup1\n      dup2\n      0x01\n      dup2\n      sload\n      add\n      dup1\n      dup3\n      sstore\n      dup1\n      swap2\n      pop\n      pop\n      sub\n      swap1\n      0x00\n      mstore\n      keccak256(0x00, 0x20)\n      swap1\n      0x07\n      mul\n      add\n        /* \"contracts/VotingSystem.sol\":821:856  Poll storage newPoll = polls.push() */\n      swap1\n      pop\n        /* \"contracts/VotingSystem.sol\":886:895  _question */\n      dup4\n        /* \"contracts/VotingSystem.sol\":867:874  newPoll */\n      dup2\n        /* \"contracts/VotingSystem.sol\":867:883  newPoll.question */\n      0x00\n      add\n        /* \"contracts/VotingSystem.sol\":867:895  newPoll.question = _question */\n      swap1\n      dup2\n      tag_135\n      swap2\n      swap1\n      tag_136\n      jump\t// in\n    tag_135:\n      pop\n        /* \"contracts/VotingSystem.sol\":924:932  _options */\n      dup3\n        /* \"contracts/VotingSystem.sol\":906:913  newPoll */\n      dup2\n        /* \"contracts/VotingSystem.sol\":906:921  newPoll.options */\n      0x01\n      add\n        /* \"contracts/VotingSystem.sol\":906:932  newPoll.options = _options */\n      swap1\n      dup1\n      mload\n      swap1\n      0x20\n      add\n      swap1\n      tag_137\n      swap3\n      swap2\n      swap1\n      tag_138\n      jump\t// in\n    tag_137:\n      pop\n        /* \"contracts/VotingSystem.sol\":959:963  true */\n      0x01\n        /* \"contracts/VotingSystem.sol\":943:950  newPoll */\n      dup2\n        /* \"contracts/VotingSystem.sol\":943:957  newPoll.isOpen */\n      0x05\n      add\n      0x00\n        /* \"contracts/VotingSystem.sol\":943:963  newPoll.isOpen= true */\n      0x0100\n      exp\n      dup2\n      sload\n      dup2\n      0xff\n      mul\n      not\n      and\n      swap1\n      dup4\n      iszero\n      iszero\n      mul\n      or\n      swap1\n      sstore\n      pop\n        /* \"contracts/VotingSystem.sol\":1011:1020  _deadline */\n      dup2\n        /* \"contracts/VotingSystem.sol\":993:1008  block.timestamp */\n      timestamp\n        /* \"contracts/VotingSystem.sol\":993:1020  block.timestamp + _deadline */\n      tag_139\n      swap2\n      swap1\n      tag_140\n      jump\t// in\n    tag_139:\n        /* \"contracts/VotingSystem.sol\":974:981  newPoll */\n      dup2\n        /* \"contracts/VotingSystem.sol\":974:990  newPoll.deadline */\n      0x06\n      add\n        /* \"contracts/VotingSystem.sol\":974:1020  newPoll.deadline = block.timestamp + _deadline */\n      dup2\n      swap1\n      sstore\n      pop\n        /* \"contracts/VotingSystem.sol\":685:1028  {... */\n      pop\n        /* \"contracts/VotingSystem.sol\":578:1028  function createPoll(string memory _question, string[] memory _options, uint _deadline)  external onlyOwner {... */\n      pop\n      pop\n      pop\n      jump\t// out\n    tag_138:\n      dup3\n      dup1\n      sload\n      dup3\n      dup3\n      sstore\n      swap1\n      0x00\n      mstore\n      keccak256(0x00, 0x20)\n      swap1\n      dup2\n      add\n      swap3\n      dup3\n      iszero\n      tag_141\n      jumpi\n      swap2\n      0x20\n      mul\n      dup3\n      add\n    tag_142:\n      dup3\n      dup2\n      gt\n      iszero\n      tag_143\n      jumpi\n      dup3\n      mload\n      dup3\n      swap1\n      dup2\n      tag_144\n      swap2\n      swap1\n      tag_136\n      jump\t// in\n    tag_144:\n      pop\n      swap2\n      0x20\n      add\n      swap2\n      swap1\n      0x01\n      add\n      swap1\n      jump(tag_142)\n    tag_143:\n    tag_141:\n      pop\n      swap1\n      pop\n      tag_145\n      swap2\n      swap1\n      tag_146\n      jump\t// in\n    tag_145:\n      pop\n      swap1\n      jump\t// out\n    tag_146:\n    tag_147:\n      dup1\n      dup3\n      gt\n      iszero\n      tag_148\n      jumpi\n      0x00\n      dup2\n      dup2\n      tag_149\n      swap2\n      swap1\n      tag_150\n      jump\t// in\n    tag_149:\n      pop\n      0x01\n      add\n      jump(tag_147)\n    tag_148:\n      pop\n      swap1\n      jump\t// out\n    tag_150:\n      pop\n      dup1\n      sload\n      tag_151\n      swap1\n      tag_77\n      jump\t// in\n    tag_151:\n      0x00\n      dup3\n      sstore\n      dup1\n      0x1f\n      lt\n      tag_153\n      jumpi\n      pop\n      jump(tag_152)\n    tag_153:\n      0x1f\n      add\n      0x20\n      swap1\n      div\n      swap1\n      0x00\n      mstore\n      keccak256(0x00, 0x20)\n      swap1\n      dup2\n      add\n      swap1\n      tag_154\n      swap2\n      swap1\n      tag_155\n      jump\t// in\n    tag_154:\n    tag_152:\n      pop\n      jump\t// out\n    tag_155:\n    tag_156:\n      dup1\n      dup3\n      gt\n      iszero\n      tag_157\n      jumpi\n      0x00\n      dup2\n      0x00\n      swap1\n      sstore\n      pop\n      0x01\n      add\n      jump(tag_156)\n    tag_157:\n      pop\n      swap1\n      jump\t// out\n        /* \"#utility.yul\":7:82   */\n    tag_158:\n        /* \"#utility.yul\":40:46   */\n      0x00\n        /* \"#utility.yul\":73:75   */\n      0x40\n        /* \"#utility.yul\":67:76   */\n      mload\n        /* \"#utility.yul\":57:76   */\n      swap1\n      pop\n        /* \"#utility.yul\":7:82   */\n      swap1\n      jump\t// out\n        /* \"#utility.yul\":88:205   */\n    tag_159:\n        /* \"#utility.yul\":197:198   */\n      0x00\n        /* \"#utility.yul\":194:195   */\n      0x00\n        /* \"#utility.yul\":187:199   */\n      revert\n        /* \"#utility.yul\":211:328   */\n    tag_160:\n        /* \"#utility.yul\":320:321   */\n      0x00\n        /* \"#utility.yul\":317:318   */\n      0x00\n        /* \"#utility.yul\":310:322   */\n      revert\n        /* \"#utility.yul\":334:411   */\n    tag_161:\n        /* \"#utility.yul\":371:378   */\n      0x00\n        /* \"#utility.yul\":400:405   */\n      dup2\n        /* \"#utility.yul\":389:405   */\n      swap1\n      pop\n        /* \"#utility.yul\":334:411   */\n      swap2\n      swap1\n      pop\n      jump\t// out\n        /* \"#utility.yul\":417:539   */\n    tag_162:\n        /* \"#utility.yul\":490:514   */\n      tag_240\n        /* \"#utility.yul\":508:513   */\n      dup2\n        /* \"#utility.yul\":490:514   */\n      tag_161\n      jump\t// in\n    tag_240:\n        /* \"#utility.yul\":483:488   */\n      dup2\n        /* \"#utility.yul\":480:515   */\n      eq\n        /* \"#utility.yul\":470:533   */\n      tag_241\n      jumpi\n        /* \"#utility.yul\":529:530   */\n      0x00\n        /* \"#utility.yul\":526:527   */\n      0x00\n        /* \"#utility.yul\":519:531   */\n      revert\n        /* \"#utility.yul\":470:533   */\n    tag_241:\n        /* \"#utility.yul\":417:539   */\n      pop\n      jump\t// out\n        /* \"#utility.yul\":545:684   */\n    tag_163:\n        /* \"#utility.yul\":591:596   */\n      0x00\n        /* \"#utility.yul\":629:635   */\n      dup2\n        /* \"#utility.yul\":616:636   */\n      calldataload\n        /* \"#utility.yul\":607:636   */\n      swap1\n      pop\n        /* \"#utility.yul\":645:678   */\n      tag_243\n        /* \"#utility.yul\":672:677   */\n      dup2\n        /* \"#utility.yul\":645:678   */\n      tag_162\n      jump\t// in\n    tag_243:\n        /* \"#utility.yul\":545:684   */\n      swap3\n      swap2\n      pop\n      pop\n      jump\t// out\n        /* \"#utility.yul\":690:1019   */\n    tag_11:\n        /* \"#utility.yul\":749:755   */\n      0x00\n        /* \"#utility.yul\":798:800   */\n      0x20\n        /* \"#utility.yul\":786:795   */\n      dup3\n        /* \"#utility.yul\":777:784   */\n      dup5\n        /* \"#utility.yul\":773:796   */\n      sub\n        /* \"#utility.yul\":769:801   */\n      slt\n        /* \"#utility.yul\":766:885   */\n      iszero\n      tag_245\n      jumpi\n        /* \"#utility.yul\":804:883   */\n      tag_246\n      tag_159\n      jump\t// in\n    tag_246:\n        /* \"#utility.yul\":766:885   */\n    tag_245:\n        /* \"#utility.yul\":924:925   */\n      0x00\n        /* \"#utility.yul\":949:1002   */\n      tag_247\n        /* \"#utility.yul\":994:1001   */\n      dup5\n        /* \"#utility.yul\":985:991   */\n      dup3\n        /* \"#utility.yul\":974:983   */\n      dup6\n        /* \"#utility.yul\":970:992   */\n      add\n        /* \"#utility.yul\":949:1002   */\n      tag_163\n      jump\t// in\n    tag_247:\n        /* \"#utility.yul\":939:1002   */\n      swap2\n      pop\n        /* \"#utility.yul\":895:1012   */\n      pop\n        /* \"#utility.yul\":690:1019   */\n      swap3\n      swap2\n      pop\n      pop\n      jump\t// out\n        /* \"#utility.yul\":1025:1149   */\n    tag_164:\n        /* \"#utility.yul\":1102:1108   */\n      0x00\n        /* \"#utility.yul\":1136:1141   */\n      dup2\n        /* \"#utility.yul\":1130:1142   */\n      mload\n        /* \"#utility.yul\":1120:1142   */\n      swap1\n      pop\n        /* \"#utility.yul\":1025:1149   */\n      swap2\n      swap1\n      pop\n      jump\t// out\n        /* \"#utility.yul\":1155:1349   */\n    tag_165:\n        /* \"#utility.yul\":1264:1275   */\n      0x00\n        /* \"#utility.yul\":1298:1304   */\n      dup3\n        /* \"#utility.yul\":1293:1296   */\n      dup3\n        /* \"#utility.yul\":1286:1305   */\n      mstore\n        /* \"#utility.yul\":1338:1342   */\n      0x20\n        /* \"#utility.yul\":1333:1336   */\n      dup3\n        /* \"#utility.yul\":1329:1343   */\n      add\n        /* \"#utility.yul\":1314:1343   */\n      swap1\n      pop\n        /* \"#utility.yul\":1155:1349   */\n      swap3\n      swap2\n      pop\n      pop\n      jump\t// out\n        /* \"#utility.yul\":1355:1497   */\n    tag_166:\n        /* \"#utility.yul\":1432:1436   */\n      0x00\n        /* \"#utility.yul\":1455:1458   */\n      dup2\n        /* \"#utility.yul\":1447:1458   */\n      swap1\n      pop\n        /* \"#utility.yul\":1485:1489   */\n      0x20\n        /* \"#utility.yul\":1480:1483   */\n      dup3\n        /* \"#utility.yul\":1476:1490   */\n      add\n        /* \"#utility.yul\":1468:1490   */\n      swap1\n      pop\n        /* \"#utility.yul\":1355:1497   */\n      swap2\n      swap1\n      pop\n      jump\t// out\n        /* \"#utility.yul\":1503:1602   */\n    tag_167:\n        /* \"#utility.yul\":1555:1561   */\n      0x00\n        /* \"#utility.yul\":1589:1594   */\n      dup2\n        /* \"#utility.yul\":1583:1595   */\n      mload\n        /* \"#utility.yul\":1573:1595   */\n      swap1\n      pop\n        /* \"#utility.yul\":1503:1602   */\n      swap2\n      swap1\n      pop\n      jump\t// out\n        /* \"#utility.yul\":1608:1767   */\n    tag_168:\n        /* \"#utility.yul\":1682:1693   */\n      0x00\n        /* \"#utility.yul\":1716:1722   */\n      dup3\n        /* \"#utility.yul\":1711:1714   */\n      dup3\n        /* \"#utility.yul\":1704:1723   */\n      mstore\n        /* \"#utility.yul\":1756:1760   */\n      0x20\n        /* \"#utility.yul\":1751:1754   */\n      dup3\n        /* \"#utility.yul\":1747:1761   */\n      add\n        /* \"#utility.yul\":1732:1761   */\n      swap1\n      pop\n        /* \"#utility.yul\":1608:1767   */\n      swap3\n      swap2\n      pop\n      pop\n      jump\t// out\n        /* \"#utility.yul\":1773:1912   */\n    tag_169:\n        /* \"#utility.yul\":1862:1868   */\n      dup3\n        /* \"#utility.yul\":1857:1860   */\n      dup2\n        /* \"#utility.yul\":1852:1855   */\n      dup4\n        /* \"#utility.yul\":1846:1869   */\n      mcopy\n        /* \"#utility.yul\":1903:1904   */\n      0x00\n        /* \"#utility.yul\":1894:1900   */\n      dup4\n        /* \"#utility.yul\":1889:1892   */\n      dup4\n        /* \"#utility.yul\":1885:1901   */\n      add\n        /* \"#utility.yul\":1878:1905   */\n      mstore\n        /* \"#utility.yul\":1773:1912   */\n      pop\n      pop\n      pop\n      jump\t// out\n        /* \"#utility.yul\":1918:2020   */\n    tag_170:\n        /* \"#utility.yul\":1959:1965   */\n      0x00\n        /* \"#utility.yul\":2010:2012   */\n      0x1f\n        /* \"#utility.yul\":2006:2013   */\n      not\n        /* \"#utility.yul\":2001:2003   */\n      0x1f\n        /* \"#utility.yul\":1994:1999   */\n      dup4\n        /* \"#utility.yul\":1990:2004   */\n      add\n        /* \"#utility.yul\":1986:2014   */\n      and\n        /* \"#utility.yul\":1976:2014   */\n      swap1\n      pop\n        /* \"#utility.yul\":1918:2020   */\n      swap2\n      swap1\n      pop\n      jump\t// out\n        /* \"#utility.yul\":2026:2383   */\n    tag_171:\n        /* \"#utility.yul\":2104:2107   */\n      0x00\n        /* \"#utility.yul\":2132:2171   */\n      tag_256\n        /* \"#utility.yul\":2165:2170   */\n      dup3\n        /* \"#utility.yul\":2132:2171   */\n      tag_167\n      jump\t// in\n    tag_256:\n        /* \"#utility.yul\":2187:2248   */\n      tag_257\n        /* \"#utility.yul\":2241:2247   */\n      dup2\n        /* \"#utility.yul\":2236:2239   */\n      dup6\n        /* \"#utility.yul\":2187:2248   */\n      tag_168\n      jump\t// in\n    tag_257:\n        /* \"#utility.yul\":2180:2248   */\n      swap4\n      pop\n        /* \"#utility.yul\":2257:2322   */\n      tag_258\n        /* \"#utility.yul\":2315:2321   */\n      dup2\n        /* \"#utility.yul\":2310:2313   */\n      dup6\n        /* \"#utility.yul\":2303:2307   */\n      0x20\n        /* \"#utility.yul\":2296:2301   */\n      dup7\n        /* \"#utility.yul\":2292:2308   */\n      add\n        /* \"#utility.yul\":2257:2322   */\n      tag_169\n      jump\t// in\n    tag_258:\n        /* \"#utility.yul\":2347:2376   */\n      tag_259\n        /* \"#utility.yul\":2369:2375   */\n      dup2\n        /* \"#utility.yul\":2347:2376   */\n      tag_170\n      jump\t// in\n    tag_259:\n        /* \"#utility.yul\":2342:2345   */\n      dup5\n        /* \"#utility.yul\":2338:2377   */\n      add\n        /* \"#utility.yul\":2331:2377   */\n      swap2\n      pop\n        /* \"#utility.yul\":2108:2383   */\n      pop\n        /* \"#utility.yul\":2026:2383   */\n      swap3\n      swap2\n      pop\n      pop\n      jump\t// out\n        /* \"#utility.yul\":2389:2585   */\n    tag_172:\n        /* \"#utility.yul\":2478:2488   */\n      0x00\n        /* \"#utility.yul\":2513:2579   */\n      tag_261\n        /* \"#utility.yul\":2575:2578   */\n      dup4\n        /* \"#utility.yul\":2567:2573   */\n      dup4\n        /* \"#utility.yul\":2513:2579   */\n      tag_171\n      jump\t// in\n    tag_261:\n        /* \"#utility.yul\":2499:2579   */\n      swap1\n      pop\n        /* \"#utility.yul\":2389:2585   */\n      swap3\n      swap2\n      pop\n      pop\n      jump\t// out\n        /* \"#utility.yul\":2591:2714   */\n    tag_173:\n        /* \"#utility.yul\":2671:2675   */\n      0x00\n        /* \"#utility.yul\":2703:2707   */\n      0x20\n        /* \"#utility.yul\":2698:2701   */\n      dup3\n        /* \"#utility.yul\":2694:2708   */\n      add\n        /* \"#utility.yul\":2686:2708   */\n      swap1\n      pop\n        /* \"#utility.yul\":2591:2714   */\n      swap2\n      swap1\n      pop\n      jump\t// out\n        /* \"#utility.yul\":2748:3739   */\n    tag_174:\n        /* \"#utility.yul\":2887:2890   */\n      0x00\n        /* \"#utility.yul\":2916:2980   */\n      tag_264\n        /* \"#utility.yul\":2974:2979   */\n      dup3\n        /* \"#utility.yul\":2916:2980   */\n      tag_164\n      jump\t// in\n    tag_264:\n        /* \"#utility.yul\":2996:3092   */\n      tag_265\n        /* \"#utility.yul\":3085:3091   */\n      dup2\n        /* \"#utility.yul\":3080:3083   */\n      dup6\n        /* \"#utility.yul\":2996:3092   */\n      tag_165\n      jump\t// in\n    tag_265:\n        /* \"#utility.yul\":2989:3092   */\n      swap4\n      pop\n        /* \"#utility.yul\":3118:3121   */\n      dup4\n        /* \"#utility.yul\":3163:3167   */\n      0x20\n        /* \"#utility.yul\":3155:3161   */\n      dup3\n        /* \"#utility.yul\":3151:3168   */\n      mul\n        /* \"#utility.yul\":3146:3149   */\n      dup6\n        /* \"#utility.yul\":3142:3169   */\n      add\n        /* \"#utility.yul\":3193:3259   */\n      tag_266\n        /* \"#utility.yul\":3253:3258   */\n      dup6\n        /* \"#utility.yul\":3193:3259   */\n      tag_166\n      jump\t// in\n    tag_266:\n        /* \"#utility.yul\":3282:3289   */\n      dup1\n        /* \"#utility.yul\":3313:3314   */\n      0x00\n        /* \"#utility.yul\":3298:3694   */\n    tag_267:\n        /* \"#utility.yul\":3323:3329   */\n      dup6\n        /* \"#utility.yul\":3320:3321   */\n      dup2\n        /* \"#utility.yul\":3317:3330   */\n      lt\n        /* \"#utility.yul\":3298:3694   */\n      iszero\n      tag_269\n      jumpi\n        /* \"#utility.yul\":3394:3403   */\n      dup5\n        /* \"#utility.yul\":3388:3392   */\n      dup5\n        /* \"#utility.yul\":3384:3404   */\n      sub\n        /* \"#utility.yul\":3379:3382   */\n      dup10\n        /* \"#utility.yul\":3372:3405   */\n      mstore\n        /* \"#utility.yul\":3445:3451   */\n      dup2\n        /* \"#utility.yul\":3439:3452   */\n      mload\n        /* \"#utility.yul\":3473:3557   */\n      tag_270\n        /* \"#utility.yul\":3552:3556   */\n      dup6\n        /* \"#utility.yul\":3537:3550   */\n      dup3\n        /* \"#utility.yul\":3473:3557   */\n      tag_172\n      jump\t// in\n    tag_270:\n        /* \"#utility.yul\":3465:3557   */\n      swap5\n      pop\n        /* \"#utility.yul\":3580:3650   */\n      tag_271\n        /* \"#utility.yul\":3643:3649   */\n      dup4\n        /* \"#utility.yul\":3580:3650   */\n      tag_173\n      jump\t// in\n    tag_271:\n        /* \"#utility.yul\":3570:3650   */\n      swap3\n      pop\n        /* \"#utility.yul\":3679:3683   */\n      0x20\n        /* \"#utility.yul\":3674:3677   */\n      dup11\n        /* \"#utility.yul\":3670:3684   */\n      add\n        /* \"#utility.yul\":3663:3684   */\n      swap10\n      pop\n        /* \"#utility.yul\":3358:3694   */\n      pop\n        /* \"#utility.yul\":3345:3346   */\n      0x01\n        /* \"#utility.yul\":3342:3343   */\n      dup2\n        /* \"#utility.yul\":3338:3347   */\n      add\n        /* \"#utility.yul\":3333:3347   */\n      swap1\n      pop\n        /* \"#utility.yul\":3298:3694   */\n      jump(tag_267)\n    tag_269:\n        /* \"#utility.yul\":3302:3316   */\n      pop\n        /* \"#utility.yul\":3710:3714   */\n      dup3\n        /* \"#utility.yul\":3703:3714   */\n      swap8\n      pop\n        /* \"#utility.yul\":3730:3733   */\n      dup8\n        /* \"#utility.yul\":3723:3733   */\n      swap6\n      pop\n        /* \"#utility.yul\":2892:3739   */\n      pop\n      pop\n      pop\n      pop\n      pop\n        /* \"#utility.yul\":2748:3739   */\n      swap3\n      swap2\n      pop\n      pop\n      jump\t// out\n        /* \"#utility.yul\":3745:4158   */\n    tag_14:\n        /* \"#utility.yul\":3908:3912   */\n      0x00\n        /* \"#utility.yul\":3946:3948   */\n      0x20\n        /* \"#utility.yul\":3935:3944   */\n      dup3\n        /* \"#utility.yul\":3931:3949   */\n      add\n        /* \"#utility.yul\":3923:3949   */\n      swap1\n      pop\n        /* \"#utility.yul\":3995:4004   */\n      dup2\n        /* \"#utility.yul\":3989:3993   */\n      dup2\n        /* \"#utility.yul\":3985:4005   */\n      sub\n        /* \"#utility.yul\":3981:3982   */\n      0x00\n        /* \"#utility.yul\":3970:3979   */\n      dup4\n        /* \"#utility.yul\":3966:3983   */\n      add\n        /* \"#utility.yul\":3959:4006   */\n      mstore\n        /* \"#utility.yul\":4023:4151   */\n      tag_273\n        /* \"#utility.yul\":4146:4150   */\n      dup2\n        /* \"#utility.yul\":4137:4143   */\n      dup5\n        /* \"#utility.yul\":4023:4151   */\n      tag_174\n      jump\t// in\n    tag_273:\n        /* \"#utility.yul\":4015:4151   */\n      swap1\n      pop\n        /* \"#utility.yul\":3745:4158   */\n      swap3\n      swap2\n      pop\n      pop\n      jump\t// out\n        /* \"#utility.yul\":4164:4290   */\n    tag_175:\n        /* \"#utility.yul\":4201:4208   */\n      0x00\n        /* \"#utility.yul\":4241:4283   */\n      0xffffffffffffffffffffffffffffffffffffffff\n        /* \"#utility.yul\":4234:4239   */\n      dup3\n        /* \"#utility.yul\":4230:4284   */\n      and\n        /* \"#utility.yul\":4219:4284   */\n      swap1\n      pop\n        /* \"#utility.yul\":4164:4290   */\n      swap2\n      swap1\n      pop\n      jump\t// out\n        /* \"#utility.yul\":4296:4392   */\n    tag_176:\n        /* \"#utility.yul\":4333:4340   */\n      0x00\n        /* \"#utility.yul\":4362:4386   */\n      tag_276\n        /* \"#utility.yul\":4380:4385   */\n      dup3\n        /* \"#utility.yul\":4362:4386   */\n      tag_175\n      jump\t// in\n    tag_276:\n        /* \"#utility.yul\":4351:4386   */\n      swap1\n      pop\n        /* \"#utility.yul\":4296:4392   */\n      swap2\n      swap1\n      pop\n      jump\t// out\n        /* \"#utility.yul\":4398:4516   */\n    tag_177:\n        /* \"#utility.yul\":4485:4509   */\n      tag_278\n        /* \"#utility.yul\":4503:4508   */\n      dup2\n        /* \"#utility.yul\":4485:4509   */\n      tag_176\n      jump\t// in\n    tag_278:\n        /* \"#utility.yul\":4480:4483   */\n      dup3\n        /* \"#utility.yul\":4473:4510   */\n      mstore\n        /* \"#utility.yul\":4398:4516   */\n      pop\n      pop\n      jump\t// out\n        /* \"#utility.yul\":4522:4744   */\n    tag_18:\n        /* \"#utility.yul\":4615:4619   */\n      0x00\n        /* \"#utility.yul\":4653:4655   */\n      0x20\n        /* \"#utility.yul\":4642:4651   */\n      dup3\n        /* \"#utility.yul\":4638:4656   */\n      add\n        /* \"#utility.yul\":4630:4656   */\n      swap1\n      pop\n        /* \"#utility.yul\":4666:4737   */\n      tag_280\n        /* \"#utility.yul\":4734:4735   */\n      0x00\n        /* \"#utility.yul\":4723:4732   */\n      dup4\n        /* \"#utility.yul\":4719:4736   */\n      add\n        /* \"#utility.yul\":4710:4716   */\n      dup5\n        /* \"#utility.yul\":4666:4737   */\n      tag_177\n      jump\t// in\n    tag_280:\n        /* \"#utility.yul\":4522:4744   */\n      swap3\n      swap2\n      pop\n      pop\n      jump\t// out\n        /* \"#utility.yul\":4750:4919   */\n    tag_178:\n        /* \"#utility.yul\":4834:4845   */\n      0x00\n        /* \"#utility.yul\":4868:4874   */\n      dup3\n        /* \"#utility.yul\":4863:4866   */\n      dup3\n        /* \"#utility.yul\":4856:4875   */\n      mstore\n        /* \"#utility.yul\":4908:4912   */\n      0x20\n        /* \"#utility.yul\":4903:4906   */\n      dup3\n        /* \"#utility.yul\":4899:4913   */\n      add\n        /* \"#utility.yul\":4884:4913   */\n      swap1\n      pop\n        /* \"#utility.yul\":4750:4919   */\n      swap3\n      swap2\n      pop\n      pop\n      jump\t// out\n        /* \"#utility.yul\":4925:5302   */\n    tag_179:\n        /* \"#utility.yul\":5013:5016   */\n      0x00\n        /* \"#utility.yul\":5041:5080   */\n      tag_283\n        /* \"#utility.yul\":5074:5079   */\n      dup3\n        /* \"#utility.yul\":5041:5080   */\n      tag_167\n      jump\t// in\n    tag_283:\n        /* \"#utility.yul\":5096:5167   */\n      tag_284\n        /* \"#utility.yul\":5160:5166   */\n      dup2\n        /* \"#utility.yul\":5155:5158   */\n      dup6\n        /* \"#utility.yul\":5096:5167   */\n      tag_178\n      jump\t// in\n    tag_284:\n        /* \"#utility.yul\":5089:5167   */\n      swap4\n      pop\n        /* \"#utility.yul\":5176:5241   */\n      tag_285\n        /* \"#utility.yul\":5234:5240   */\n      dup2\n        /* \"#utility.yul\":5229:5232   */\n      dup6\n        /* \"#utility.yul\":5222:5226   */\n      0x20\n        /* \"#utility.yul\":5215:5220   */\n      dup7\n        /* \"#utility.yul\":5211:5227   */\n      add\n        /* \"#utility.yul\":5176:5241   */\n      tag_169\n      jump\t// in\n    tag_285:\n        /* \"#utility.yul\":5266:5295   */\n      tag_286\n        /* \"#utility.yul\":5288:5294   */\n      dup2\n        /* \"#utility.yul\":5266:5295   */\n      tag_170\n      jump\t// in\n    tag_286:\n        /* \"#utility.yul\":5261:5264   */\n      dup5\n        /* \"#utility.yul\":5257:5296   */\n      add\n        /* \"#utility.yul\":5250:5296   */\n      swap2\n      pop\n        /* \"#utility.yul\":5017:5302   */\n      pop\n        /* \"#utility.yul\":4925:5302   */\n      swap3\n      swap2\n      pop\n      pop\n      jump\t// out\n        /* \"#utility.yul\":5308:5398   */\n    tag_180:\n        /* \"#utility.yul\":5342:5349   */\n      0x00\n        /* \"#utility.yul\":5385:5390   */\n      dup2\n        /* \"#utility.yul\":5378:5391   */\n      iszero\n        /* \"#utility.yul\":5371:5392   */\n      iszero\n        /* \"#utility.yul\":5360:5392   */\n      swap1\n      pop\n        /* \"#utility.yul\":5308:5398   */\n      swap2\n      swap1\n      pop\n      jump\t// out\n        /* \"#utility.yul\":5404:5513   */\n    tag_181:\n        /* \"#utility.yul\":5485:5506   */\n      tag_289\n        /* \"#utility.yul\":5500:5505   */\n      dup2\n        /* \"#utility.yul\":5485:5506   */\n      tag_180\n      jump\t// in\n    tag_289:\n        /* \"#utility.yul\":5480:5483   */\n      dup3\n        /* \"#utility.yul\":5473:5507   */\n      mstore\n        /* \"#utility.yul\":5404:5513   */\n      pop\n      pop\n      jump\t// out\n        /* \"#utility.yul\":5519:5637   */\n    tag_182:\n        /* \"#utility.yul\":5606:5630   */\n      tag_291\n        /* \"#utility.yul\":5624:5629   */\n      dup2\n        /* \"#utility.yul\":5606:5630   */\n      tag_161\n      jump\t// in\n    tag_291:\n        /* \"#utility.yul\":5601:5604   */\n      dup3\n        /* \"#utility.yul\":5594:5631   */\n      mstore\n        /* \"#utility.yul\":5519:5637   */\n      pop\n      pop\n      jump\t// out\n        /* \"#utility.yul\":5643:6164   */\n    tag_26:\n        /* \"#utility.yul\":5806:5810   */\n      0x00\n        /* \"#utility.yul\":5844:5846   */\n      0x60\n        /* \"#utility.yul\":5833:5842   */\n      dup3\n        /* \"#utility.yul\":5829:5847   */\n      add\n        /* \"#utility.yul\":5821:5847   */\n      swap1\n      pop\n        /* \"#utility.yul\":5893:5902   */\n      dup2\n        /* \"#utility.yul\":5887:5891   */\n      dup2\n        /* \"#utility.yul\":5883:5903   */\n      sub\n        /* \"#utility.yul\":5879:5880   */\n      0x00\n        /* \"#utility.yul\":5868:5877   */\n      dup4\n        /* \"#utility.yul\":5864:5881   */\n      add\n        /* \"#utility.yul\":5857:5904   */\n      mstore\n        /* \"#utility.yul\":5921:5999   */\n      tag_293\n        /* \"#utility.yul\":5994:5998   */\n      dup2\n        /* \"#utility.yul\":5985:5991   */\n      dup7\n        /* \"#utility.yul\":5921:5999   */\n      tag_179\n      jump\t// in\n    tag_293:\n        /* \"#utility.yul\":5913:5999   */\n      swap1\n      pop\n        /* \"#utility.yul\":6009:6075   */\n      tag_294\n        /* \"#utility.yul\":6071:6073   */\n      0x20\n        /* \"#utility.yul\":6060:6069   */\n      dup4\n        /* \"#utility.yul\":6056:6074   */\n      add\n        /* \"#utility.yul\":6047:6053   */\n      dup6\n        /* \"#utility.yul\":6009:6075   */\n      tag_181\n      jump\t// in\n    tag_294:\n        /* \"#utility.yul\":6085:6157   */\n      tag_295\n        /* \"#utility.yul\":6153:6155   */\n      0x40\n        /* \"#utility.yul\":6142:6151   */\n      dup4\n        /* \"#utility.yul\":6138:6156   */\n      add\n        /* \"#utility.yul\":6129:6135   */\n      dup5\n        /* \"#utility.yul\":6085:6157   */\n      tag_182\n      jump\t// in\n    tag_295:\n        /* \"#utility.yul\":5643:6164   */\n      swap5\n      swap4\n      pop\n      pop\n      pop\n      pop\n      jump\t// out\n        /* \"#utility.yul\":6170:6644   */\n    tag_29:\n        /* \"#utility.yul\":6238:6244   */\n      0x00\n        /* \"#utility.yul\":6246:6252   */\n      0x00\n        /* \"#utility.yul\":6295:6297   */\n      0x40\n        /* \"#utility.yul\":6283:6292   */\n      dup4\n        /* \"#utility.yul\":6274:6281   */\n      dup6\n        /* \"#utility.yul\":6270:6293   */\n      sub\n        /* \"#utility.yul\":6266:6298   */\n      slt\n        /* \"#utility.yul\":6263:6382   */\n      iszero\n      tag_297\n      jumpi\n        /* \"#utility.yul\":6301:6380   */\n      tag_298\n      tag_159\n      jump\t// in\n    tag_298:\n        /* \"#utility.yul\":6263:6382   */\n    tag_297:\n        /* \"#utility.yul\":6421:6422   */\n      0x00\n        /* \"#utility.yul\":6446:6499   */\n      tag_299\n        /* \"#utility.yul\":6491:6498   */\n      dup6\n        /* \"#utility.yul\":6482:6488   */\n      dup3\n        /* \"#utility.yul\":6471:6480   */\n      dup7\n        /* \"#utility.yul\":6467:6489   */\n      add\n        /* \"#utility.yul\":6446:6499   */\n      tag_163\n      jump\t// in\n    tag_299:\n        /* \"#utility.yul\":6436:6499   */\n      swap3\n      pop\n        /* \"#utility.yul\":6392:6509   */\n      pop\n        /* \"#utility.yul\":6548:6550   */\n      0x20\n        /* \"#utility.yul\":6574:6627   */\n      tag_300\n        /* \"#utility.yul\":6619:6626   */\n      dup6\n        /* \"#utility.yul\":6610:6616   */\n      dup3\n        /* \"#utility.yul\":6599:6608   */\n      dup7\n        /* \"#utility.yul\":6595:6617   */\n      add\n        /* \"#utility.yul\":6574:6627   */\n      tag_163\n      jump\t// in\n    tag_300:\n        /* \"#utility.yul\":6564:6627   */\n      swap2\n      pop\n        /* \"#utility.yul\":6519:6637   */\n      pop\n        /* \"#utility.yul\":6170:6644   */\n      swap3\n      pop\n      swap3\n      swap1\n      pop\n      jump\t// out\n        /* \"#utility.yul\":6650:6767   */\n    tag_183:\n        /* \"#utility.yul\":6759:6760   */\n      0x00\n        /* \"#utility.yul\":6756:6757   */\n      0x00\n        /* \"#utility.yul\":6749:6761   */\n      revert\n        /* \"#utility.yul\":6773:6890   */\n    tag_184:\n        /* \"#utility.yul\":6882:6883   */\n      0x00\n        /* \"#utility.yul\":6879:6880   */\n      0x00\n        /* \"#utility.yul\":6872:6884   */\n      revert\n        /* \"#utility.yul\":6896:7076   */\n    tag_49:\n        /* \"#utility.yul\":6944:7021   */\n      0x4e487b7100000000000000000000000000000000000000000000000000000000\n        /* \"#utility.yul\":6941:6942   */\n      0x00\n        /* \"#utility.yul\":6934:7022   */\n      mstore\n        /* \"#utility.yul\":7041:7045   */\n      0x41\n        /* \"#utility.yul\":7038:7039   */\n      0x04\n        /* \"#utility.yul\":7031:7046   */\n      mstore\n        /* \"#utility.yul\":7065:7069   */\n      0x24\n        /* \"#utility.yul\":7062:7063   */\n      0x00\n        /* \"#utility.yul\":7055:7070   */\n      revert\n        /* \"#utility.yul\":7082:7363   */\n    tag_185:\n        /* \"#utility.yul\":7165:7192   */\n      tag_305\n        /* \"#utility.yul\":7187:7191   */\n      dup3\n        /* \"#utility.yul\":7165:7192   */\n      tag_170\n      jump\t// in\n    tag_305:\n        /* \"#utility.yul\":7157:7163   */\n      dup2\n        /* \"#utility.yul\":7153:7193   */\n      add\n        /* \"#utility.yul\":7295:7301   */\n      dup2\n        /* \"#utility.yul\":7283:7293   */\n      dup2\n        /* \"#utility.yul\":7280:7302   */\n      lt\n        /* \"#utility.yul\":7259:7277   */\n      0xffffffffffffffff\n        /* \"#utility.yul\":7247:7257   */\n      dup3\n        /* \"#utility.yul\":7244:7278   */\n      gt\n        /* \"#utility.yul\":7241:7303   */\n      or\n        /* \"#utility.yul\":7238:7326   */\n      iszero\n      tag_306\n      jumpi\n        /* \"#utility.yul\":7306:7324   */\n      tag_307\n      tag_49\n      jump\t// in\n    tag_307:\n        /* \"#utility.yul\":7238:7326   */\n    tag_306:\n        /* \"#utility.yul\":7346:7356   */\n      dup1\n        /* \"#utility.yul\":7342:7344   */\n      0x40\n        /* \"#utility.yul\":7335:7357   */\n      mstore\n        /* \"#utility.yul\":7125:7363   */\n      pop\n        /* \"#utility.yul\":7082:7363   */\n      pop\n      pop\n      jump\t// out\n        /* \"#utility.yul\":7369:7498   */\n    tag_186:\n        /* \"#utility.yul\":7403:7409   */\n      0x00\n        /* \"#utility.yul\":7430:7450   */\n      tag_309\n      tag_158\n      jump\t// in\n    tag_309:\n        /* \"#utility.yul\":7420:7450   */\n      swap1\n      pop\n        /* \"#utility.yul\":7459:7492   */\n      tag_310\n        /* \"#utility.yul\":7487:7491   */\n      dup3\n        /* \"#utility.yul\":7479:7485   */\n      dup3\n        /* \"#utility.yul\":7459:7492   */\n      tag_185\n      jump\t// in\n    tag_310:\n        /* \"#utility.yul\":7369:7498   */\n      swap2\n      swap1\n      pop\n      jump\t// out\n        /* \"#utility.yul\":7504:7812   */\n    tag_187:\n        /* \"#utility.yul\":7566:7570   */\n      0x00\n        /* \"#utility.yul\":7656:7674   */\n      0xffffffffffffffff\n        /* \"#utility.yul\":7648:7654   */\n      dup3\n        /* \"#utility.yul\":7645:7675   */\n      gt\n        /* \"#utility.yul\":7642:7698   */\n      iszero\n      tag_312\n      jumpi\n        /* \"#utility.yul\":7678:7696   */\n      tag_313\n      tag_49\n      jump\t// in\n    tag_313:\n        /* \"#utility.yul\":7642:7698   */\n    tag_312:\n        /* \"#utility.yul\":7716:7745   */\n      tag_314\n        /* \"#utility.yul\":7738:7744   */\n      dup3\n        /* \"#utility.yul\":7716:7745   */\n      tag_170\n      jump\t// in\n    tag_314:\n        /* \"#utility.yul\":7708:7745   */\n      swap1\n      pop\n        /* \"#utility.yul\":7800:7804   */\n      0x20\n        /* \"#utility.yul\":7794:7798   */\n      dup2\n        /* \"#utility.yul\":7790:7805   */\n      add\n        /* \"#utility.yul\":7782:7805   */\n      swap1\n      pop\n        /* \"#utility.yul\":7504:7812   */\n      swap2\n      swap1\n      pop\n      jump\t// out\n        /* \"#utility.yul\":7818:7966   */\n    tag_188:\n        /* \"#utility.yul\":7916:7922   */\n      dup3\n        /* \"#utility.yul\":7911:7914   */\n      dup2\n        /* \"#utility.yul\":7906:7909   */\n      dup4\n        /* \"#utility.yul\":7893:7923   */\n      calldatacopy\n        /* \"#utility.yul\":7957:7958   */\n      0x00\n        /* \"#utility.yul\":7948:7954   */\n      dup4\n        /* \"#utility.yul\":7943:7946   */\n      dup4\n        /* \"#utility.yul\":7939:7955   */\n      add\n        /* \"#utility.yul\":7932:7959   */\n      mstore\n        /* \"#utility.yul\":7818:7966   */\n      pop\n      pop\n      pop\n      jump\t// out\n        /* \"#utility.yul\":7972:8397   */\n    tag_189:\n        /* \"#utility.yul\":8050:8055   */\n      0x00\n        /* \"#utility.yul\":8075:8141   */\n      tag_317\n        /* \"#utility.yul\":8091:8140   */\n      tag_318\n        /* \"#utility.yul\":8133:8139   */\n      dup5\n        /* \"#utility.yul\":8091:8140   */\n      tag_187\n      jump\t// in\n    tag_318:\n        /* \"#utility.yul\":8075:8141   */\n      tag_186\n      jump\t// in\n    tag_317:\n        /* \"#utility.yul\":8066:8141   */\n      swap1\n      pop\n        /* \"#utility.yul\":8164:8170   */\n      dup3\n        /* \"#utility.yul\":8157:8162   */\n      dup2\n        /* \"#utility.yul\":8150:8171   */\n      mstore\n        /* \"#utility.yul\":8202:8206   */\n      0x20\n        /* \"#utility.yul\":8195:8200   */\n      dup2\n        /* \"#utility.yul\":8191:8207   */\n      add\n        /* \"#utility.yul\":8240:8243   */\n      dup5\n        /* \"#utility.yul\":8231:8237   */\n      dup5\n        /* \"#utility.yul\":8226:8229   */\n      dup5\n        /* \"#utility.yul\":8222:8238   */\n      add\n        /* \"#utility.yul\":8219:8244   */\n      gt\n        /* \"#utility.yul\":8216:8328   */\n      iszero\n      tag_319\n      jumpi\n        /* \"#utility.yul\":8247:8326   */\n      tag_320\n      tag_184\n      jump\t// in\n    tag_320:\n        /* \"#utility.yul\":8216:8328   */\n    tag_319:\n        /* \"#utility.yul\":8337:8391   */\n      tag_321\n        /* \"#utility.yul\":8384:8390   */\n      dup5\n        /* \"#utility.yul\":8379:8382   */\n      dup3\n        /* \"#utility.yul\":8374:8377   */\n      dup6\n        /* \"#utility.yul\":8337:8391   */\n      tag_188\n      jump\t// in\n    tag_321:\n        /* \"#utility.yul\":8056:8397   */\n      pop\n        /* \"#utility.yul\":7972:8397   */\n      swap4\n      swap3\n      pop\n      pop\n      pop\n      jump\t// out\n        /* \"#utility.yul\":8417:8757   */\n    tag_190:\n        /* \"#utility.yul\":8473:8478   */\n      0x00\n        /* \"#utility.yul\":8522:8525   */\n      dup3\n        /* \"#utility.yul\":8515:8519   */\n      0x1f\n        /* \"#utility.yul\":8507:8513   */\n      dup4\n        /* \"#utility.yul\":8503:8520   */\n      add\n        /* \"#utility.yul\":8499:8526   */\n      slt\n        /* \"#utility.yul\":8489:8611   */\n      tag_323\n      jumpi\n        /* \"#utility.yul\":8530:8609   */\n      tag_324\n      tag_183\n      jump\t// in\n    tag_324:\n        /* \"#utility.yul\":8489:8611   */\n    tag_323:\n        /* \"#utility.yul\":8647:8653   */\n      dup2\n        /* \"#utility.yul\":8634:8654   */\n      calldataload\n        /* \"#utility.yul\":8672:8751   */\n      tag_325\n        /* \"#utility.yul\":8747:8750   */\n      dup5\n        /* \"#utility.yul\":8739:8745   */\n      dup3\n        /* \"#utility.yul\":8732:8736   */\n      0x20\n        /* \"#utility.yul\":8724:8730   */\n      dup7\n        /* \"#utility.yul\":8720:8737   */\n      add\n        /* \"#utility.yul\":8672:8751   */\n      tag_189\n      jump\t// in\n    tag_325:\n        /* \"#utility.yul\":8663:8751   */\n      swap2\n      pop\n        /* \"#utility.yul\":8479:8757   */\n      pop\n        /* \"#utility.yul\":8417:8757   */\n      swap3\n      swap2\n      pop\n      pop\n      jump\t// out\n        /* \"#utility.yul\":8763:9084   */\n    tag_191:\n        /* \"#utility.yul\":8850:8854   */\n      0x00\n        /* \"#utility.yul\":8940:8958   */\n      0xffffffffffffffff\n        /* \"#utility.yul\":8932:8938   */\n      dup3\n        /* \"#utility.yul\":8929:8959   */\n      gt\n        /* \"#utility.yul\":8926:8982   */\n      iszero\n      tag_327\n      jumpi\n        /* \"#utility.yul\":8962:8980   */\n      tag_328\n      tag_49\n      jump\t// in\n    tag_328:\n        /* \"#utility.yul\":8926:8982   */\n    tag_327:\n        /* \"#utility.yul\":9012:9016   */\n      0x20\n        /* \"#utility.yul\":9004:9010   */\n      dup3\n        /* \"#utility.yul\":9000:9017   */\n      mul\n        /* \"#utility.yul\":8992:9017   */\n      swap1\n      pop\n        /* \"#utility.yul\":9072:9076   */\n      0x20\n        /* \"#utility.yul\":9066:9070   */\n      dup2\n        /* \"#utility.yul\":9062:9077   */\n      add\n        /* \"#utility.yul\":9054:9077   */\n      swap1\n      pop\n        /* \"#utility.yul\":8763:9084   */\n      swap2\n      swap1\n      pop\n      jump\t// out\n        /* \"#utility.yul\":9090:9207   */\n    tag_192:\n        /* \"#utility.yul\":9199:9200   */\n      0x00\n        /* \"#utility.yul\":9196:9197   */\n      0x00\n        /* \"#utility.yul\":9189:9201   */\n      revert\n        /* \"#utility.yul\":9229:10174   */\n    tag_193:\n        /* \"#utility.yul\":9335:9340   */\n      0x00\n        /* \"#utility.yul\":9360:9451   */\n      tag_331\n        /* \"#utility.yul\":9376:9450   */\n      tag_332\n        /* \"#utility.yul\":9443:9449   */\n      dup5\n        /* \"#utility.yul\":9376:9450   */\n      tag_191\n      jump\t// in\n    tag_332:\n        /* \"#utility.yul\":9360:9451   */\n      tag_186\n      jump\t// in\n    tag_331:\n        /* \"#utility.yul\":9351:9451   */\n      swap1\n      pop\n        /* \"#utility.yul\":9471:9476   */\n      dup1\n        /* \"#utility.yul\":9500:9506   */\n      dup4\n        /* \"#utility.yul\":9493:9498   */\n      dup3\n        /* \"#utility.yul\":9486:9507   */\n      mstore\n        /* \"#utility.yul\":9534:9538   */\n      0x20\n        /* \"#utility.yul\":9527:9532   */\n      dup3\n        /* \"#utility.yul\":9523:9539   */\n      add\n        /* \"#utility.yul\":9516:9539   */\n      swap1\n      pop\n        /* \"#utility.yul\":9587:9591   */\n      0x20\n        /* \"#utility.yul\":9579:9585   */\n      dup5\n        /* \"#utility.yul\":9575:9592   */\n      mul\n        /* \"#utility.yul\":9567:9573   */\n      dup4\n        /* \"#utility.yul\":9563:9593   */\n      add\n        /* \"#utility.yul\":9616:9619   */\n      dup6\n        /* \"#utility.yul\":9608:9614   */\n      dup2\n        /* \"#utility.yul\":9605:9620   */\n      gt\n        /* \"#utility.yul\":9602:9724   */\n      iszero\n      tag_333\n      jumpi\n        /* \"#utility.yul\":9635:9714   */\n      tag_334\n      tag_192\n      jump\t// in\n    tag_334:\n        /* \"#utility.yul\":9602:9724   */\n    tag_333:\n        /* \"#utility.yul\":9750:9756   */\n      dup4\n        /* \"#utility.yul\":9733:10168   */\n    tag_335:\n        /* \"#utility.yul\":9767:9773   */\n      dup2\n        /* \"#utility.yul\":9762:9765   */\n      dup2\n        /* \"#utility.yul\":9759:9774   */\n      lt\n        /* \"#utility.yul\":9733:10168   */\n      iszero\n      tag_337\n      jumpi\n        /* \"#utility.yul\":9856:9859   */\n      dup1\n        /* \"#utility.yul\":9843:9860   */\n      calldataload\n        /* \"#utility.yul\":9892:9910   */\n      0xffffffffffffffff\n        /* \"#utility.yul\":9879:9890   */\n      dup2\n        /* \"#utility.yul\":9876:9911   */\n      gt\n        /* \"#utility.yul\":9873:9995   */\n      iszero\n      tag_338\n      jumpi\n        /* \"#utility.yul\":9914:9993   */\n      tag_339\n      tag_183\n      jump\t// in\n    tag_339:\n        /* \"#utility.yul\":9873:9995   */\n    tag_338:\n        /* \"#utility.yul\":10038:10049   */\n      dup1\n        /* \"#utility.yul\":10030:10036   */\n      dup7\n        /* \"#utility.yul\":10026:10050   */\n      add\n        /* \"#utility.yul\":10076:10123   */\n      tag_340\n        /* \"#utility.yul\":10119:10122   */\n      dup10\n        /* \"#utility.yul\":10107:10117   */\n      dup3\n        /* \"#utility.yul\":10076:10123   */\n      tag_190\n      jump\t// in\n    tag_340:\n        /* \"#utility.yul\":10071:10074   */\n      dup6\n        /* \"#utility.yul\":10064:10124   */\n      mstore\n        /* \"#utility.yul\":10153:10157   */\n      0x20\n        /* \"#utility.yul\":10148:10151   */\n      dup6\n        /* \"#utility.yul\":10144:10158   */\n      add\n        /* \"#utility.yul\":10137:10158   */\n      swap5\n      pop\n        /* \"#utility.yul\":9809:10168   */\n      pop\n      pop\n        /* \"#utility.yul\":9793:9797   */\n      0x20\n        /* \"#utility.yul\":9788:9791   */\n      dup2\n        /* \"#utility.yul\":9784:9798   */\n      add\n        /* \"#utility.yul\":9777:9798   */\n      swap1\n      pop\n        /* \"#utility.yul\":9733:10168   */\n      jump(tag_335)\n    tag_337:\n        /* \"#utility.yul\":9737:9758   */\n      pop\n        /* \"#utility.yul\":9341:10174   */\n      pop\n      pop\n        /* \"#utility.yul\":9229:10174   */\n      swap4\n      swap3\n      pop\n      pop\n      pop\n      jump\t// out\n        /* \"#utility.yul\":10196:10586   */\n    tag_194:\n        /* \"#utility.yul\":10277:10282   */\n      0x00\n        /* \"#utility.yul\":10326:10329   */\n      dup3\n        /* \"#utility.yul\":10319:10323   */\n      0x1f\n        /* \"#utility.yul\":10311:10317   */\n      dup4\n        /* \"#utility.yul\":10307:10324   */\n      add\n        /* \"#utility.yul\":10303:10330   */\n      slt\n        /* \"#utility.yul\":10293:10415   */\n      tag_342\n      jumpi\n        /* \"#utility.yul\":10334:10413   */\n      tag_343\n      tag_183\n      jump\t// in\n    tag_343:\n        /* \"#utility.yul\":10293:10415   */\n    tag_342:\n        /* \"#utility.yul\":10451:10457   */\n      dup2\n        /* \"#utility.yul\":10438:10458   */\n      calldataload\n        /* \"#utility.yul\":10476:10580   */\n      tag_344\n        /* \"#utility.yul\":10576:10579   */\n      dup5\n        /* \"#utility.yul\":10568:10574   */\n      dup3\n        /* \"#utility.yul\":10561:10565   */\n      0x20\n        /* \"#utility.yul\":10553:10559   */\n      dup7\n        /* \"#utility.yul\":10549:10566   */\n      add\n        /* \"#utility.yul\":10476:10580   */\n      tag_193\n      jump\t// in\n    tag_344:\n        /* \"#utility.yul\":10467:10580   */\n      swap2\n      pop\n        /* \"#utility.yul\":10283:10586   */\n      pop\n        /* \"#utility.yul\":10196:10586   */\n      swap3\n      swap2\n      pop\n      pop\n      jump\t// out\n        /* \"#utility.yul\":10592:11621   */\n    tag_33:\n        /* \"#utility.yul\":10714:10720   */\n      0x00\n        /* \"#utility.yul\":10722:10728   */\n      0x00\n        /* \"#utility.yul\":10730:10736   */\n      0x00\n        /* \"#utility.yul\":10779:10781   */\n      0x60\n        /* \"#utility.yul\":10767:10776   */\n      dup5\n        /* \"#utility.yul\":10758:10765   */\n      dup7\n        /* \"#utility.yul\":10754:10777   */\n      sub\n        /* \"#utility.yul\":10750:10782   */\n      slt\n        /* \"#utility.yul\":10747:10866   */\n      iszero\n      tag_346\n      jumpi\n        /* \"#utility.yul\":10785:10864   */\n      tag_347\n      tag_159\n      jump\t// in\n    tag_347:\n        /* \"#utility.yul\":10747:10866   */\n    tag_346:\n        /* \"#utility.yul\":10933:10934   */\n      0x00\n        /* \"#utility.yul\":10922:10931   */\n      dup5\n        /* \"#utility.yul\":10918:10935   */\n      add\n        /* \"#utility.yul\":10905:10936   */\n      calldataload\n        /* \"#utility.yul\":10963:10981   */\n      0xffffffffffffffff\n        /* \"#utility.yul\":10955:10961   */\n      dup2\n        /* \"#utility.yul\":10952:10982   */\n      gt\n        /* \"#utility.yul\":10949:11066   */\n      iszero\n      tag_348\n      jumpi\n        /* \"#utility.yul\":10985:11064   */\n      tag_349\n      tag_160\n      jump\t// in\n    tag_349:\n        /* \"#utility.yul\":10949:11066   */\n    tag_348:\n        /* \"#utility.yul\":11090:11153   */\n      tag_350\n        /* \"#utility.yul\":11145:11152   */\n      dup7\n        /* \"#utility.yul\":11136:11142   */\n      dup3\n        /* \"#utility.yul\":11125:11134   */\n      dup8\n        /* \"#utility.yul\":11121:11143   */\n      add\n        /* \"#utility.yul\":11090:11153   */\n      tag_190\n      jump\t// in\n    tag_350:\n        /* \"#utility.yul\":11080:11153   */\n      swap4\n      pop\n        /* \"#utility.yul\":10876:11163   */\n      pop\n        /* \"#utility.yul\":11230:11232   */\n      0x20\n        /* \"#utility.yul\":11219:11228   */\n      dup5\n        /* \"#utility.yul\":11215:11233   */\n      add\n        /* \"#utility.yul\":11202:11234   */\n      calldataload\n        /* \"#utility.yul\":11261:11279   */\n      0xffffffffffffffff\n        /* \"#utility.yul\":11253:11259   */\n      dup2\n        /* \"#utility.yul\":11250:11280   */\n      gt\n        /* \"#utility.yul\":11247:11364   */\n      iszero\n      tag_351\n      jumpi\n        /* \"#utility.yul\":11283:11362   */\n      tag_352\n      tag_160\n      jump\t// in\n    tag_352:\n        /* \"#utility.yul\":11247:11364   */\n    tag_351:\n        /* \"#utility.yul\":11388:11476   */\n      tag_353\n        /* \"#utility.yul\":11468:11475   */\n      dup7\n        /* \"#utility.yul\":11459:11465   */\n      dup3\n        /* \"#utility.yul\":11448:11457   */\n      dup8\n        /* \"#utility.yul\":11444:11466   */\n      add\n        /* \"#utility.yul\":11388:11476   */\n      tag_194\n      jump\t// in\n    tag_353:\n        /* \"#utility.yul\":11378:11476   */\n      swap3\n      pop\n        /* \"#utility.yul\":11173:11486   */\n      pop\n        /* \"#utility.yul\":11525:11527   */\n      0x40\n        /* \"#utility.yul\":11551:11604   */\n      tag_354\n        /* \"#utility.yul\":11596:11603   */\n      dup7\n        /* \"#utility.yul\":11587:11593   */\n      dup3\n        /* \"#utility.yul\":11576:11585   */\n      dup8\n        /* \"#utility.yul\":11572:11594   */\n      add\n        /* \"#utility.yul\":11551:11604   */\n      tag_163\n      jump\t// in\n    tag_354:\n        /* \"#utility.yul\":11541:11604   */\n      swap2\n      pop\n        /* \"#utility.yul\":11496:11614   */\n      pop\n        /* \"#utility.yul\":10592:11621   */\n      swap3\n      pop\n      swap3\n      pop\n      swap3\n      jump\t// out\n        /* \"#utility.yul\":11627:11802   */\n    tag_195:\n        /* \"#utility.yul\":11767:11794   */\n      0x4f6e6c79206f776e65722063616e2063616c6c20746869732e00000000000000\n        /* \"#utility.yul\":11763:11764   */\n      0x00\n        /* \"#utility.yul\":11755:11761   */\n      dup3\n        /* \"#utility.yul\":11751:11765   */\n      add\n        /* \"#utility.yul\":11744:11795   */\n      mstore\n        /* \"#utility.yul\":11627:11802   */\n      pop\n      jump\t// out\n        /* \"#utility.yul\":11808:12174   */\n    tag_196:\n        /* \"#utility.yul\":11950:11953   */\n      0x00\n        /* \"#utility.yul\":11971:12038   */\n      tag_357\n        /* \"#utility.yul\":12035:12037   */\n      0x19\n        /* \"#utility.yul\":12030:12033   */\n      dup4\n        /* \"#utility.yul\":11971:12038   */\n      tag_178\n      jump\t// in\n    tag_357:\n        /* \"#utility.yul\":11964:12038   */\n      swap2\n      pop\n        /* \"#utility.yul\":12047:12140   */\n      tag_358\n        /* \"#utility.yul\":12136:12139   */\n      dup3\n        /* \"#utility.yul\":12047:12140   */\n      tag_195\n      jump\t// in\n    tag_358:\n        /* \"#utility.yul\":12165:12167   */\n      0x20\n        /* \"#utility.yul\":12160:12163   */\n      dup3\n        /* \"#utility.yul\":12156:12168   */\n      add\n        /* \"#utility.yul\":12149:12168   */\n      swap1\n      pop\n        /* \"#utility.yul\":11808:12174   */\n      swap2\n      swap1\n      pop\n      jump\t// out\n        /* \"#utility.yul\":12180:12599   */\n    tag_38:\n        /* \"#utility.yul\":12346:12350   */\n      0x00\n        /* \"#utility.yul\":12384:12386   */\n      0x20\n        /* \"#utility.yul\":12373:12382   */\n      dup3\n        /* \"#utility.yul\":12369:12387   */\n      add\n        /* \"#utility.yul\":12361:12387   */\n      swap1\n      pop\n        /* \"#utility.yul\":12433:12442   */\n      dup2\n        /* \"#utility.yul\":12427:12431   */\n      dup2\n        /* \"#utility.yul\":12423:12443   */\n      sub\n        /* \"#utility.yul\":12419:12420   */\n      0x00\n        /* \"#utility.yul\":12408:12417   */\n      dup4\n        /* \"#utility.yul\":12404:12421   */\n      add\n        /* \"#utility.yul\":12397:12444   */\n      mstore\n        /* \"#utility.yul\":12461:12592   */\n      tag_360\n        /* \"#utility.yul\":12587:12591   */\n      dup2\n        /* \"#utility.yul\":12461:12592   */\n      tag_196\n      jump\t// in\n    tag_360:\n        /* \"#utility.yul\":12453:12592   */\n      swap1\n      pop\n        /* \"#utility.yul\":12180:12599   */\n      swap2\n      swap1\n      pop\n      jump\t// out\n        /* \"#utility.yul\":12605:12825   */\n    tag_197:\n        /* \"#utility.yul\":12745:12779   */\n      0x706f6c6c7320696e646578206f7574206f6620626f756e64206578657074696f\n        /* \"#utility.yul\":12741:12742   */\n      0x00\n        /* \"#utility.yul\":12733:12739   */\n      dup3\n        /* \"#utility.yul\":12729:12743   */\n      add\n        /* \"#utility.yul\":12722:12780   */\n      mstore\n        /* \"#utility.yul\":12814:12817   */\n      0x6e00000000000000000000000000000000000000000000000000000000000000\n        /* \"#utility.yul\":12809:12811   */\n      0x20\n        /* \"#utility.yul\":12801:12807   */\n      dup3\n        /* \"#utility.yul\":12797:12812   */\n      add\n        /* \"#utility.yul\":12790:12818   */\n      mstore\n        /* \"#utility.yul\":12605:12825   */\n      pop\n      jump\t// out\n        /* \"#utility.yul\":12831:13197   */\n    tag_198:\n        /* \"#utility.yul\":12973:12976   */\n      0x00\n        /* \"#utility.yul\":12994:13061   */\n      tag_363\n        /* \"#utility.yul\":13058:13060   */\n      0x21\n        /* \"#utility.yul\":13053:13056   */\n      dup4\n        /* \"#utility.yul\":12994:13061   */\n      tag_178\n      jump\t// in\n    tag_363:\n        /* \"#utility.yul\":12987:13061   */\n      swap2\n      pop\n        /* \"#utility.yul\":13070:13163   */\n      tag_364\n        /* \"#utility.yul\":13159:13162   */\n      dup3\n        /* \"#utility.yul\":13070:13163   */\n      tag_197\n      jump\t// in\n    tag_364:\n        /* \"#utility.yul\":13188:13190   */\n      0x40\n        /* \"#utility.yul\":13183:13186   */\n      dup3\n        /* \"#utility.yul\":13179:13191   */\n      add\n        /* \"#utility.yul\":13172:13191   */\n      swap1\n      pop\n        /* \"#utility.yul\":12831:13197   */\n      swap2\n      swap1\n      pop\n      jump\t// out\n        /* \"#utility.yul\":13203:13622   */\n    tag_42:\n        /* \"#utility.yul\":13369:13373   */\n      0x00\n        /* \"#utility.yul\":13407:13409   */\n      0x20\n        /* \"#utility.yul\":13396:13405   */\n      dup3\n        /* \"#utility.yul\":13392:13410   */\n      add\n        /* \"#utility.yul\":13384:13410   */\n      swap1\n      pop\n        /* \"#utility.yul\":13456:13465   */\n      dup2\n        /* \"#utility.yul\":13450:13454   */\n      dup2\n        /* \"#utility.yul\":13446:13466   */\n      sub\n        /* \"#utility.yul\":13442:13443   */\n      0x00\n        /* \"#utility.yul\":13431:13440   */\n      dup4\n        /* \"#utility.yul\":13427:13444   */\n      add\n        /* \"#utility.yul\":13420:13467   */\n      mstore\n        /* \"#utility.yul\":13484:13615   */\n      tag_366\n        /* \"#utility.yul\":13610:13614   */\n      dup2\n        /* \"#utility.yul\":13484:13615   */\n      tag_198\n      jump\t// in\n    tag_366:\n        /* \"#utility.yul\":13476:13615   */\n      swap1\n      pop\n        /* \"#utility.yul\":13203:13622   */\n      swap2\n      swap1\n      pop\n      jump\t// out\n        /* \"#utility.yul\":13628:13808   */\n    tag_45:\n        /* \"#utility.yul\":13676:13753   */\n      0x4e487b7100000000000000000000000000000000000000000000000000000000\n        /* \"#utility.yul\":13673:13674   */\n      0x00\n        /* \"#utility.yul\":13666:13754   */\n      mstore\n        /* \"#utility.yul\":13773:13777   */\n      0x32\n        /* \"#utility.yul\":13770:13771   */\n      0x04\n        /* \"#utility.yul\":13763:13778   */\n      mstore\n        /* \"#utility.yul\":13797:13801   */\n      0x24\n        /* \"#utility.yul\":13794:13795   */\n      0x00\n        /* \"#utility.yul\":13787:13802   */\n      revert\n        /* \"#utility.yul\":13814:13994   */\n    tag_199:\n        /* \"#utility.yul\":13862:13939   */\n      0x4e487b7100000000000000000000000000000000000000000000000000000000\n        /* \"#utility.yul\":13859:13860   */\n      0x00\n        /* \"#utility.yul\":13852:13940   */\n      mstore\n        /* \"#utility.yul\":13959:13963   */\n      0x11\n        /* \"#utility.yul\":13956:13957   */\n      0x04\n        /* \"#utility.yul\":13949:13964   */\n      mstore\n        /* \"#utility.yul\":13983:13987   */\n      0x24\n        /* \"#utility.yul\":13980:13981   */\n      0x00\n        /* \"#utility.yul\":13973:13988   */\n      revert\n        /* \"#utility.yul\":14000:14233   */\n    tag_63:\n        /* \"#utility.yul\":14039:14042   */\n      0x00\n        /* \"#utility.yul\":14062:14086   */\n      tag_370\n        /* \"#utility.yul\":14080:14085   */\n      dup3\n        /* \"#utility.yul\":14062:14086   */\n      tag_161\n      jump\t// in\n    tag_370:\n        /* \"#utility.yul\":14053:14086   */\n      swap2\n      pop\n        /* \"#utility.yul\":14108:14174   */\n      0xffffffffffffffffffffffffffffffffffffffffffffffffffffffffffffffff\n        /* \"#utility.yul\":14101:14106   */\n      dup3\n        /* \"#utility.yul\":14098:14175   */\n      sub\n        /* \"#utility.yul\":14095:14198   */\n      tag_371\n      jumpi\n        /* \"#utility.yul\":14178:14196   */\n      tag_372\n      tag_199\n      jump\t// in\n    tag_372:\n        /* \"#utility.yul\":14095:14198   */\n    tag_371:\n        /* \"#utility.yul\":14225:14226   */\n      0x01\n        /* \"#utility.yul\":14218:14223   */\n      dup3\n        /* \"#utility.yul\":14214:14227   */\n      add\n        /* \"#utility.yul\":14207:14227   */\n      swap1\n      pop\n        /* \"#utility.yul\":14000:14233   */\n      swap2\n      swap1\n      pop\n      jump\t// out\n        /* \"#utility.yul\":14239:14419   */\n    tag_200:\n        /* \"#utility.yul\":14287:14364   */\n      0x4e487b7100000000000000000000000000000000000000000000000000000000\n        /* \"#utility.yul\":14284:14285   */\n      0x00\n        /* \"#utility.yul\":14277:14365   */\n      mstore\n        /* \"#utility.yul\":14384:14388   */\n      0x22\n        /* \"#utility.yul\":14381:14382   */\n      0x04\n        /* \"#utility.yul\":14374:14389   */\n      mstore\n        /* \"#utility.yul\":14408:14412   */\n      0x24\n        /* \"#utility.yul\":14405:14406   */\n      0x00\n        /* \"#utility.yul\":14398:14413   */\n      revert\n        /* \"#utility.yul\":14425:14745   */\n    tag_77:\n        /* \"#utility.yul\":14469:14475   */\n      0x00\n        /* \"#utility.yul\":14506:14507   */\n      0x02\n        /* \"#utility.yul\":14500:14504   */\n      dup3\n        /* \"#utility.yul\":14496:14508   */\n      div\n        /* \"#utility.yul\":14486:14508   */\n      swap1\n      pop\n        /* \"#utility.yul\":14553:14554   */\n      0x01\n        /* \"#utility.yul\":14547:14551   */\n      dup3\n        /* \"#utility.yul\":14543:14555   */\n      and\n        /* \"#utility.yul\":14574:14592   */\n      dup1\n        /* \"#utility.yul\":14564:14645   */\n      tag_375\n      jumpi\n        /* \"#utility.yul\":14630:14634   */\n      0x7f\n        /* \"#utility.yul\":14622:14628   */\n      dup3\n        /* \"#utility.yul\":14618:14635   */\n      and\n        /* \"#utility.yul\":14608:14635   */\n      swap2\n      pop\n        /* \"#utility.yul\":14564:14645   */\n    tag_375:\n        /* \"#utility.yul\":14692:14694   */\n      0x20\n        /* \"#utility.yul\":14684:14690   */\n      dup3\n        /* \"#utility.yul\":14681:14695   */\n      lt\n        /* \"#utility.yul\":14661:14679   */\n      dup2\n        /* \"#utility.yul\":14658:14696   */\n      sub\n        /* \"#utility.yul\":14655:14739   */\n      tag_376\n      jumpi\n        /* \"#utility.yul\":14711:14729   */\n      tag_377\n      tag_200\n      jump\t// in\n    tag_377:\n        /* \"#utility.yul\":14655:14739   */\n    tag_376:\n        /* \"#utility.yul\":14476:14745   */\n      pop\n        /* \"#utility.yul\":14425:14745   */\n      swap2\n      swap1\n      pop\n      jump\t// out\n        /* \"#utility.yul\":14751:14919   */\n    tag_201:\n        /* \"#utility.yul\":14891:14911   */\n      0x496e76616c696420706f6c6c20696e6465780000000000000000000000000000\n        /* \"#utility.yul\":14887:14888   */\n      0x00\n        /* \"#utility.yul\":14879:14885   */\n      dup3\n        /* \"#utility.yul\":14875:14889   */\n      add\n        /* \"#utility.yul\":14868:14912   */\n      mstore\n        /* \"#utility.yul\":14751:14919   */\n      pop\n      jump\t// out\n        /* \"#utility.yul\":14925:15291   */\n    tag_202:\n        /* \"#utility.yul\":15067:15070   */\n      0x00\n        /* \"#utility.yul\":15088:15155   */\n      tag_380\n        /* \"#utility.yul\":15152:15154   */\n      0x12\n        /* \"#utility.yul\":15147:15150   */\n      dup4\n        /* \"#utility.yul\":15088:15155   */\n      tag_178\n      jump\t// in\n    tag_380:\n        /* \"#utility.yul\":15081:15155   */\n      swap2\n      pop\n        /* \"#utility.yul\":15164:15257   */\n      tag_381\n        /* \"#utility.yul\":15253:15256   */\n      dup3\n        /* \"#utility.yul\":15164:15257   */\n      tag_201\n      jump\t// in\n    tag_381:\n        /* \"#utility.yul\":15282:15284   */\n      0x20\n        /* \"#utility.yul\":15277:15280   */\n      dup3\n        /* \"#utility.yul\":15273:15285   */\n      add\n        /* \"#utility.yul\":15266:15285   */\n      swap1\n      pop\n        /* \"#utility.yul\":14925:15291   */\n      swap2\n      swap1\n      pop\n      jump\t// out\n        /* \"#utility.yul\":15297:15716   */\n    tag_90:\n        /* \"#utility.yul\":15463:15467   */\n      0x00\n        /* \"#utility.yul\":15501:15503   */\n      0x20\n        /* \"#utility.yul\":15490:15499   */\n      dup3\n        /* \"#utility.yul\":15486:15504   */\n      add\n        /* \"#utility.yul\":15478:15504   */\n      swap1\n      pop\n        /* \"#utility.yul\":15550:15559   */\n      dup2\n        /* \"#utility.yul\":15544:15548   */\n      dup2\n        /* \"#utility.yul\":15540:15560   */\n      sub\n        /* \"#utility.yul\":15536:15537   */\n      0x00\n        /* \"#utility.yul\":15525:15534   */\n      dup4\n        /* \"#utility.yul\":15521:15538   */\n      add\n        /* \"#utility.yul\":15514:15561   */\n      mstore\n        /* \"#utility.yul\":15578:15709   */\n      tag_383\n        /* \"#utility.yul\":15704:15708   */\n      dup2\n        /* \"#utility.yul\":15578:15709   */\n      tag_202\n      jump\t// in\n    tag_383:\n        /* \"#utility.yul\":15570:15709   */\n      swap1\n      pop\n        /* \"#utility.yul\":15297:15716   */\n      swap2\n      swap1\n      pop\n      jump\t// out\n        /* \"#utility.yul\":15722:15894   */\n    tag_203:\n        /* \"#utility.yul\":15862:15886   */\n      0x506f6c6c20697320616c726561647920636c6f73656400000000000000000000\n        /* \"#utility.yul\":15858:15859   */\n      0x00\n        /* \"#utility.yul\":15850:15856   */\n      dup3\n        /* \"#utility.yul\":15846:15860   */\n      add\n        /* \"#utility.yul\":15839:15887   */\n      mstore\n        /* \"#utility.yul\":15722:15894   */\n      pop\n      jump\t// out\n        /* \"#utility.yul\":15900:16266   */\n    tag_204:\n        /* \"#utility.yul\":16042:16045   */\n      0x00\n        /* \"#utility.yul\":16063:16130   */\n      tag_386\n        /* \"#utility.yul\":16127:16129   */\n      0x16\n        /* \"#utility.yul\":16122:16125   */\n      dup4\n        /* \"#utility.yul\":16063:16130   */\n      tag_178\n      jump\t// in\n    tag_386:\n        /* \"#utility.yul\":16056:16130   */\n      swap2\n      pop\n        /* \"#utility.yul\":16139:16232   */\n      tag_387\n        /* \"#utility.yul\":16228:16231   */\n      dup3\n        /* \"#utility.yul\":16139:16232   */\n      tag_203\n      jump\t// in\n    tag_387:\n        /* \"#utility.yul\":16257:16259   */\n      0x20\n        /* \"#utility.yul\":16252:16255   */\n      dup3\n        /* \"#utility.yul\":16248:16260   */\n      add\n        /* \"#utility.yul\":16241:16260   */\n      swap1\n      pop\n        /* \"#utility.yul\":15900:16266   */\n      swap2\n      swap1\n      pop\n      jump\t// out\n        /* \"#utility.yul\":16272:16691   */\n    tag_96:\n        /* \"#utility.yul\":16438:16442   */\n      0x00\n        /* \"#utility.yul\":16476:16478   */\n      0x20\n        /* \"#utility.yul\":16465:16474   */\n      dup3\n        /* \"#utility.yul\":16461:16479   */\n      add\n        /* \"#utility.yul\":16453:16479   */\n      swap1\n      pop\n        /* \"#utility.yul\":16525:16534   */\n      dup2\n        /* \"#utility.yul\":16519:16523   */\n      dup2\n        /* \"#utility.yul\":16515:16535   */\n      sub\n        /* \"#utility.yul\":16511:16512   */\n      0x00\n        /* \"#utility.yul\":16500:16509   */\n      dup4\n        /* \"#utility.yul\":16496:16513   */\n      add\n        /* \"#utility.yul\":16489:16536   */\n      mstore\n        /* \"#utility.yul\":16553:16684   */\n      tag_389\n        /* \"#utility.yul\":16679:16683   */\n      dup2\n        /* \"#utility.yul\":16553:16684   */\n      tag_204\n      jump\t// in\n    tag_389:\n        /* \"#utility.yul\":16545:16684   */\n      swap1\n      pop\n        /* \"#utility.yul\":16272:16691   */\n      swap2\n      swap1\n      pop\n      jump\t// out\n        /* \"#utility.yul\":16697:16917   */\n    tag_205:\n        /* \"#utility.yul\":16837:16871   */\n      0x706f6c6c20696e646578206f7574206f6620626f756e6420657863657074696f\n        /* \"#utility.yul\":16833:16834   */\n      0x00\n        /* \"#utility.yul\":16825:16831   */\n      dup3\n        /* \"#utility.yul\":16821:16835   */\n      add\n        /* \"#utility.yul\":16814:16872   */\n      mstore\n        /* \"#utility.yul\":16906:16909   */\n      0x6e00000000000000000000000000000000000000000000000000000000000000\n        /* \"#utility.yul\":16901:16903   */\n      0x20\n        /* \"#utility.yul\":16893:16899   */\n      dup3\n        /* \"#utility.yul\":16889:16904   */\n      add\n        /* \"#utility.yul\":16882:16910   */\n      mstore\n        /* \"#utility.yul\":16697:16917   */\n      pop\n      jump\t// out\n        /* \"#utility.yul\":16923:17289   */\n    tag_206:\n        /* \"#utility.yul\":17065:17068   */\n      0x00\n        /* \"#utility.yul\":17086:17153   */\n      tag_392\n        /* \"#utility.yul\":17150:17152   */\n      0x21\n        /* \"#utility.yul\":17145:17148   */\n      dup4\n        /* \"#utility.yul\":17086:17153   */\n      tag_178\n      jump\t// in\n    tag_392:\n        /* \"#utility.yul\":17079:17153   */\n      swap2\n      pop\n        /* \"#utility.yul\":17162:17255   */\n      tag_393\n        /* \"#utility.yul\":17251:17254   */\n      dup3\n        /* \"#utility.yul\":17162:17255   */\n      tag_205\n      jump\t// in\n    tag_393:\n        /* \"#utility.yul\":17280:17282   */\n      0x40\n        /* \"#utility.yul\":17275:17278   */\n      dup3\n        /* \"#utility.yul\":17271:17283   */\n      add\n        /* \"#utility.yul\":17264:17283   */\n      swap1\n      pop\n        /* \"#utility.yul\":16923:17289   */\n      swap2\n      swap1\n      pop\n      jump\t// out\n        /* \"#utility.yul\":17295:17714   */\n    tag_107:\n        /* \"#utility.yul\":17461:17465   */\n      0x00\n        /* \"#utility.yul\":17499:17501   */\n      0x20\n        /* \"#utility.yul\":17488:17497   */\n      dup3\n        /* \"#utility.yul\":17484:17502   */\n      add\n        /* \"#utility.yul\":17476:17502   */\n      swap1\n      pop\n        /* \"#utility.yul\":17548:17557   */\n      dup2\n        /* \"#utility.yul\":17542:17546   */\n      dup2\n        /* \"#utility.yul\":17538:17558   */\n      sub\n        /* \"#utility.yul\":17534:17535   */\n      0x00\n        /* \"#utility.yul\":17523:17532   */\n      dup4\n        /* \"#utility.yul\":17519:17536   */\n      add\n        /* \"#utility.yul\":17512:17559   */\n      mstore\n        /* \"#utility.yul\":17576:17707   */\n      tag_395\n        /* \"#utility.yul\":17702:17706   */\n      dup2\n        /* \"#utility.yul\":17576:17707   */\n      tag_206\n      jump\t// in\n    tag_395:\n        /* \"#utility.yul\":17568:17707   */\n      swap1\n      pop\n        /* \"#utility.yul\":17295:17714   */\n      swap2\n      swap1\n      pop\n      jump\t// out\n        /* \"#utility.yul\":17720:17900   */\n    tag_207:\n        /* \"#utility.yul\":17860:17892   */\n      0x6f7074696f6e73206f7574206f6620626f756e6420657863657074696f6e0000\n        /* \"#utility.yul\":17856:17857   */\n      0x00\n        /* \"#utility.yul\":17848:17854   */\n      dup3\n        /* \"#utility.yul\":17844:17858   */\n      add\n        /* \"#utility.yul\":17837:17893   */\n      mstore\n        /* \"#utility.yul\":17720:17900   */\n      pop\n      jump\t// out\n        /* \"#utility.yul\":17906:18272   */\n    tag_208:\n        /* \"#utility.yul\":18048:18051   */\n      0x00\n        /* \"#utility.yul\":18069:18136   */\n      tag_398\n        /* \"#utility.yul\":18133:18135   */\n      0x1e\n        /* \"#utility.yul\":18128:18131   */\n      dup4\n        /* \"#utility.yul\":18069:18136   */\n      tag_178\n      jump\t// in\n    tag_398:\n        /* \"#utility.yul\":18062:18136   */\n      swap2\n      pop\n        /* \"#utility.yul\":18145:18238   */\n      tag_399\n        /* \"#utility.yul\":18234:18237   */\n      dup3\n        /* \"#utility.yul\":18145:18238   */\n      tag_207\n      jump\t// in\n    tag_399:\n        /* \"#utility.yul\":18263:18265   */\n      0x20\n        /* \"#utility.yul\":18258:18261   */\n      dup3\n        /* \"#utility.yul\":18254:18266   */\n      add\n        /* \"#utility.yul\":18247:18266   */\n      swap1\n      pop\n        /* \"#utility.yul\":17906:18272   */\n      swap2\n      swap1\n      pop\n      jump\t// out\n        /* \"#utility.yul\":18278:18697   */\n    tag_113:\n        /* \"#utility.yul\":18444:18448   */\n      0x00\n        /* \"#utility.yul\":18482:18484   */\n      0x20\n        /* \"#utility.yul\":18471:18480   */\n      dup3\n        /* \"#utility.yul\":18467:18485   */\n      add\n        /* \"#utility.yul\":18459:18485   */\n      swap1\n      pop\n        /* \"#utility.yul\":18531:18540   */\n      dup2\n        /* \"#utility.yul\":18525:18529   */\n      dup2\n        /* \"#utility.yul\":18521:18541   */\n      sub\n        /* \"#utility.yul\":18517:18518   */\n      0x00\n        /* \"#utility.yul\":18506:18515   */\n      dup4\n        /* \"#utility.yul\":18502:18519   */\n      add\n        /* \"#utility.yul\":18495:18542   */\n      mstore\n        /* \"#utility.yul\":18559:18690   */\n      tag_401\n        /* \"#utility.yul\":18685:18689   */\n      dup2\n        /* \"#utility.yul\":18559:18690   */\n      tag_208\n      jump\t// in\n    tag_401:\n        /* \"#utility.yul\":18551:18690   */\n      swap1\n      pop\n        /* \"#utility.yul\":18278:18697   */\n      swap2\n      swap1\n      pop\n      jump\t// out\n        /* \"#utility.yul\":18703:18869   */\n    tag_209:\n        /* \"#utility.yul\":18843:18861   */\n      0x506f6c6c2068617320636c6f7365642e00000000000000000000000000000000\n        /* \"#utility.yul\":18839:18840   */\n      0x00\n        /* \"#utility.yul\":18831:18837   */\n      dup3\n        /* \"#utility.yul\":18827:18841   */\n      add\n        /* \"#utility.yul\":18820:18862   */\n      mstore\n        /* \"#utility.yul\":18703:18869   */\n      pop\n      jump\t// out\n        /* \"#utility.yul\":18875:19241   */\n    tag_210:\n        /* \"#utility.yul\":19017:19020   */\n      0x00\n        /* \"#utility.yul\":19038:19105   */\n      tag_404\n        /* \"#utility.yul\":19102:19104   */\n      0x10\n        /* \"#utility.yul\":19097:19100   */\n      dup4\n        /* \"#utility.yul\":19038:19105   */\n      tag_178\n      jump\t// in\n    tag_404:\n        /* \"#utility.yul\":19031:19105   */\n      swap2\n      pop\n        /* \"#utility.yul\":19114:19207   */\n      tag_405\n        /* \"#utility.yul\":19203:19206   */\n      dup3\n        /* \"#utility.yul\":19114:19207   */\n      tag_209\n      jump\t// in\n    tag_405:\n        /* \"#utility.yul\":19232:19234   */\n      0x20\n        /* \"#utility.yul\":19227:19230   */\n      dup3\n        /* \"#utility.yul\":19223:19235   */\n      add\n        /* \"#utility.yul\":19216:19235   */\n      swap1\n      pop\n        /* \"#utility.yul\":18875:19241   */\n      swap2\n      swap1\n      pop\n      jump\t// out\n        /* \"#utility.yul\":19247:19666   */\n    tag_116:\n        /* \"#utility.yul\":19413:19417   */\n      0x00\n        /* \"#utility.yul\":19451:19453   */\n      0x20\n        /* \"#utility.yul\":19440:19449   */\n      dup3\n        /* \"#utility.yul\":19436:19454   */\n      add\n        /* \"#utility.yul\":19428:19454   */\n      swap1\n      pop\n        /* \"#utility.yul\":19500:19509   */\n      dup2\n        /* \"#utility.yul\":19494:19498   */\n      dup2\n        /* \"#utility.yul\":19490:19510   */\n      sub\n        /* \"#utility.yul\":19486:19487   */\n      0x00\n        /* \"#utility.yul\":19475:19484   */\n      dup4\n        /* \"#utility.yul\":19471:19488   */\n      add\n        /* \"#utility.yul\":19464:19511   */\n      mstore\n        /* \"#utility.yul\":19528:19659   */\n      tag_407\n        /* \"#utility.yul\":19654:19658   */\n      dup2\n        /* \"#utility.yul\":19528:19659   */\n      tag_210\n      jump\t// in\n    tag_407:\n        /* \"#utility.yul\":19520:19659   */\n      swap1\n      pop\n        /* \"#utility.yul\":19247:19666   */\n      swap2\n      swap1\n      pop\n      jump\t// out\n        /* \"#utility.yul\":19672:19838   */\n    tag_211:\n        /* \"#utility.yul\":19812:19830   */\n      0x596f7520766f746564206265666f726500000000000000000000000000000000\n        /* \"#utility.yul\":19808:19809   */\n      0x00\n        /* \"#utility.yul\":19800:19806   */\n      dup3\n        /* \"#utility.yul\":19796:19810   */\n      add\n        /* \"#utility.yul\":19789:19831   */\n      mstore\n        /* \"#utility.yul\":19672:19838   */\n      pop\n      jump\t// out\n        /* \"#utility.yul\":19844:20210   */\n    tag_212:\n        /* \"#utility.yul\":19986:19989   */\n      0x00\n        /* \"#utility.yul\":20007:20074   */\n      tag_410\n        /* \"#utility.yul\":20071:20073   */\n      0x10\n        /* \"#utility.yul\":20066:20069   */\n      dup4\n        /* \"#utility.yul\":20007:20074   */\n      tag_178\n      jump\t// in\n    tag_410:\n        /* \"#utility.yul\":20000:20074   */\n      swap2\n      pop\n        /* \"#utility.yul\":20083:20176   */\n      tag_411\n        /* \"#utility.yul\":20172:20175   */\n      dup3\n        /* \"#utility.yul\":20083:20176   */\n      tag_211\n      jump\t// in\n    tag_411:\n        /* \"#utility.yul\":20201:20203   */\n      0x20\n        /* \"#utility.yul\":20196:20199   */\n      dup3\n        /* \"#utility.yul\":20192:20204   */\n      add\n        /* \"#utility.yul\":20185:20204   */\n      swap1\n      pop\n        /* \"#utility.yul\":19844:20210   */\n      swap2\n      swap1\n      pop\n      jump\t// out\n        /* \"#utility.yul\":20216:20635   */\n    tag_119:\n        /* \"#utility.yul\":20382:20386   */\n      0x00\n        /* \"#utility.yul\":20420:20422   */\n      0x20\n        /* \"#utility.yul\":20409:20418   */\n      dup3\n        /* \"#utility.yul\":20405:20423   */\n      add\n        /* \"#utility.yul\":20397:20423   */\n      swap1\n      pop\n        /* \"#utility.yul\":20469:20478   */\n      dup2\n        /* \"#utility.yul\":20463:20467   */\n      dup2\n        /* \"#utility.yul\":20459:20479   */\n      sub\n        /* \"#utility.yul\":20455:20456   */\n      0x00\n        /* \"#utility.yul\":20444:20453   */\n      dup4\n        /* \"#utility.yul\":20440:20457   */\n      add\n        /* \"#utility.yul\":20433:20480   */\n      mstore\n        /* \"#utility.yul\":20497:20628   */\n      tag_413\n        /* \"#utility.yul\":20623:20627   */\n      dup2\n        /* \"#utility.yul\":20497:20628   */\n      tag_212\n      jump\t// in\n    tag_413:\n        /* \"#utility.yul\":20489:20628   */\n      swap1\n      pop\n        /* \"#utility.yul\":20216:20635   */\n      swap2\n      swap1\n      pop\n      jump\t// out\n        /* \"#utility.yul\":20641:20814   */\n    tag_213:\n        /* \"#utility.yul\":20781:20806   */\n      0x566f74696e6720706572696f642068617320656e646564000000000000000000\n        /* \"#utility.yul\":20777:20778   */\n      0x00\n        /* \"#utility.yul\":20769:20775   */\n      dup3\n        /* \"#utility.yul\":20765:20779   */\n      add\n        /* \"#utility.yul\":20758:20807   */\n      mstore\n        /* \"#utility.yul\":20641:20814   */\n      pop\n      jump\t// out\n        /* \"#utility.yul\":20820:21186   */\n    tag_214:\n        /* \"#utility.yul\":20962:20965   */\n      0x00\n        /* \"#utility.yul\":20983:21050   */\n      tag_416\n        /* \"#utility.yul\":21047:21049   */\n      0x17\n        /* \"#utility.yul\":21042:21045   */\n      dup4\n        /* \"#utility.yul\":20983:21050   */\n      tag_178\n      jump\t// in\n    tag_416:\n        /* \"#utility.yul\":20976:21050   */\n      swap2\n      pop\n        /* \"#utility.yul\":21059:21152   */\n      tag_417\n        /* \"#utility.yul\":21148:21151   */\n      dup3\n        /* \"#utility.yul\":21059:21152   */\n      tag_213\n      jump\t// in\n    tag_417:\n        /* \"#utility.yul\":21177:21179   */\n      0x20\n        /* \"#utility.yul\":21172:21175   */\n      dup3\n        /* \"#utility.yul\":21168:21180   */\n      add\n        /* \"#utility.yul\":21161:21180   */\n      swap1\n      pop\n        /* \"#utility.yul\":20820:21186   */\n      swap2\n      swap1\n      pop\n      jump\t// out\n        /* \"#utility.yul\":21192:21611   */\n    tag_122:\n        /* \"#utility.yul\":21358:21362   */\n      0x00\n        /* \"#utility.yul\":21396:21398   */\n      0x20\n        /* \"#utility.yul\":21385:21394   */\n      dup3\n        /* \"#utility.yul\":21381:21399   */\n      add\n        /* \"#utility.yul\":21373:21399   */\n      swap1\n      pop\n        /* \"#utility.yul\":21445:21454   */\n      dup2\n        /* \"#utility.yul\":21439:21443   */\n      dup2\n        /* \"#utility.yul\":21435:21455   */\n      sub\n        /* \"#utility.yul\":21431:21432   */\n      0x00\n        /* \"#utility.yul\":21420:21429   */\n      dup4\n        /* \"#utility.yul\":21416:21433   */\n      add\n        /* \"#utility.yul\":21409:21456   */\n      mstore\n        /* \"#utility.yul\":21473:21604   */\n      tag_419\n        /* \"#utility.yul\":21599:21603   */\n      dup2\n        /* \"#utility.yul\":21473:21604   */\n      tag_214\n      jump\t// in\n    tag_419:\n        /* \"#utility.yul\":21465:21604   */\n      swap1\n      pop\n        /* \"#utility.yul\":21192:21611   */\n      swap2\n      swap1\n      pop\n      jump\t// out\n        /* \"#utility.yul\":21617:21794   */\n    tag_215:\n        /* \"#utility.yul\":21757:21786   */\n      0x4174206c656173742032206f7074696f6e732072657175697265640000000000\n        /* \"#utility.yul\":21753:21754   */\n      0x00\n        /* \"#utility.yul\":21745:21751   */\n      dup3\n        /* \"#utility.yul\":21741:21755   */\n      add\n        /* \"#utility.yul\":21734:21787   */\n      mstore\n        /* \"#utility.yul\":21617:21794   */\n      pop\n      jump\t// out\n        /* \"#utility.yul\":21800:22166   */\n    tag_216:\n        /* \"#utility.yul\":21942:21945   */\n      0x00\n        /* \"#utility.yul\":21963:22030   */\n      tag_422\n        /* \"#utility.yul\":22027:22029   */\n      0x1b\n        /* \"#utility.yul\":22022:22025   */\n      dup4\n        /* \"#utility.yul\":21963:22030   */\n      tag_178\n      jump\t// in\n    tag_422:\n        /* \"#utility.yul\":21956:22030   */\n      swap2\n      pop\n        /* \"#utility.yul\":22039:22132   */\n      tag_423\n        /* \"#utility.yul\":22128:22131   */\n      dup3\n        /* \"#utility.yul\":22039:22132   */\n      tag_215\n      jump\t// in\n    tag_423:\n        /* \"#utility.yul\":22157:22159   */\n      0x20\n        /* \"#utility.yul\":22152:22155   */\n      dup3\n        /* \"#utility.yul\":22148:22160   */\n      add\n        /* \"#utility.yul\":22141:22160   */\n      swap1\n      pop\n        /* \"#utility.yul\":21800:22166   */\n      swap2\n      swap1\n      pop\n      jump\t// out\n        /* \"#utility.yul\":22172:22591   */\n    tag_130:\n        /* \"#utility.yul\":22338:22342   */\n      0x00\n        /* \"#utility.yul\":22376:22378   */\n      0x20\n        /* \"#utility.yul\":22365:22374   */\n      dup3\n        /* \"#utility.yul\":22361:22379   */\n      add\n        /* \"#utility.yul\":22353:22379   */\n      swap1\n      pop\n        /* \"#utility.yul\":22425:22434   */\n      dup2\n        /* \"#utility.yul\":22419:22423   */\n      dup2\n        /* \"#utility.yul\":22415:22435   */\n      sub\n        /* \"#utility.yul\":22411:22412   */\n      0x00\n        /* \"#utility.yul\":22400:22409   */\n      dup4\n        /* \"#utility.yul\":22396:22413   */\n      add\n        /* \"#utility.yul\":22389:22436   */\n      mstore\n        /* \"#utility.yul\":22453:22584   */\n      tag_425\n        /* \"#utility.yul\":22579:22583   */\n      dup2\n        /* \"#utility.yul\":22453:22584   */\n      tag_216\n      jump\t// in\n    tag_425:\n        /* \"#utility.yul\":22445:22584   */\n      swap1\n      pop\n        /* \"#utility.yul\":22172:22591   */\n      swap2\n      swap1\n      pop\n      jump\t// out\n        /* \"#utility.yul\":22597:22766   */\n    tag_217:\n        /* \"#utility.yul\":22737:22758   */\n      0x4475726174696f6e206d757374206265203e3000000000000000000000000000\n        /* \"#utility.yul\":22733:22734   */\n      0x00\n        /* \"#utility.yul\":22725:22731   */\n      dup3\n        /* \"#utility.yul\":22721:22735   */\n      add\n        /* \"#utility.yul\":22714:22759   */\n      mstore\n        /* \"#utility.yul\":22597:22766   */\n      pop\n      jump\t// out\n        /* \"#utility.yul\":22772:23138   */\n    tag_218:\n        /* \"#utility.yul\":22914:22917   */\n      0x00\n        /* \"#utility.yul\":22935:23002   */\n      tag_428\n        /* \"#utility.yul\":22999:23001   */\n      0x13\n        /* \"#utility.yul\":22994:22997   */\n      dup4\n        /* \"#utility.yul\":22935:23002   */\n      tag_178\n      jump\t// in\n    tag_428:\n        /* \"#utility.yul\":22928:23002   */\n      swap2\n      pop\n        /* \"#utility.yul\":23011:23104   */\n      tag_429\n        /* \"#utility.yul\":23100:23103   */\n      dup3\n        /* \"#utility.yul\":23011:23104   */\n      tag_217\n      jump\t// in\n    tag_429:\n        /* \"#utility.yul\":23129:23131   */\n      0x20\n        /* \"#utility.yul\":23124:23127   */\n      dup3\n        /* \"#utility.yul\":23120:23132   */\n      add\n        /* \"#utility.yul\":23113:23132   */\n      swap1\n      pop\n        /* \"#utility.yul\":22772:23138   */\n      swap2\n      swap1\n      pop\n      jump\t// out\n        /* \"#utility.yul\":23144:23563   */\n    tag_133:\n        /* \"#utility.yul\":23310:23314   */\n      0x00\n        /* \"#utility.yul\":23348:23350   */\n      0x20\n        /* \"#utility.yul\":23337:23346   */\n      dup3\n        /* \"#utility.yul\":23333:23351   */\n      add\n        /* \"#utility.yul\":23325:23351   */\n      swap1\n      pop\n        /* \"#utility.yul\":23397:23406   */\n      dup2\n        /* \"#utility.yul\":23391:23395   */\n      dup2\n        /* \"#utility.yul\":23387:23407   */\n      sub\n        /* \"#utility.yul\":23383:23384   */\n      0x00\n        /* \"#utility.yul\":23372:23381   */\n      dup4\n        /* \"#utility.yul\":23368:23385   */\n      add\n        /* \"#utility.yul\":23361:23408   */\n      mstore\n        /* \"#utility.yul\":23425:23556   */\n      tag_431\n        /* \"#utility.yul\":23551:23555   */\n      dup2\n        /* \"#utility.yul\":23425:23556   */\n      tag_218\n      jump\t// in\n    tag_431:\n        /* \"#utility.yul\":23417:23556   */\n      swap1\n      pop\n        /* \"#utility.yul\":23144:23563   */\n      swap2\n      swap1\n      pop\n      jump\t// out\n        /* \"#utility.yul\":23569:23710   */\n    tag_219:\n        /* \"#utility.yul\":23618:23622   */\n      0x00\n        /* \"#utility.yul\":23641:23644   */\n      dup2\n        /* \"#utility.yul\":23633:23644   */\n      swap1\n      pop\n        /* \"#utility.yul\":23664:23667   */\n      dup2\n        /* \"#utility.yul\":23661:23662   */\n      0x00\n        /* \"#utility.yul\":23654:23668   */\n      mstore\n        /* \"#utility.yul\":23698:23702   */\n      0x20\n        /* \"#utility.yul\":23695:23696   */\n      0x00\n        /* \"#utility.yul\":23685:23703   */\n      keccak256\n        /* \"#utility.yul\":23677:23703   */\n      swap1\n      pop\n        /* \"#utility.yul\":23569:23710   */\n      swap2\n      swap1\n      pop\n      jump\t// out\n        /* \"#utility.yul\":23716:23809   */\n    tag_220:\n        /* \"#utility.yul\":23753:23759   */\n      0x00\n        /* \"#utility.yul\":23800:23802   */\n      0x20\n        /* \"#utility.yul\":23795:23797   */\n      0x1f\n        /* \"#utility.yul\":23788:23793   */\n      dup4\n        /* \"#utility.yul\":23784:23798   */\n      add\n        /* \"#utility.yul\":23780:23803   */\n      div\n        /* \"#utility.yul\":23770:23803   */\n      swap1\n      pop\n        /* \"#utility.yul\":23716:23809   */\n      swap2\n      swap1\n      pop\n      jump\t// out\n        /* \"#utility.yul\":23815:23922   */\n    tag_221:\n        /* \"#utility.yul\":23859:23867   */\n      0x00\n        /* \"#utility.yul\":23909:23914   */\n      dup3\n        /* \"#utility.yul\":23903:23907   */\n      dup3\n        /* \"#utility.yul\":23899:23915   */\n      shl\n        /* \"#utility.yul\":23878:23915   */\n      swap1\n      pop\n        /* \"#utility.yul\":23815:23922   */\n      swap3\n      swap2\n      pop\n      pop\n      jump\t// out\n        /* \"#utility.yul\":23928:24321   */\n    tag_222:\n        /* \"#utility.yul\":23997:24003   */\n      0x00\n        /* \"#utility.yul\":24047:24048   */\n      0x08\n        /* \"#utility.yul\":24035:24045   */\n      dup4\n        /* \"#utility.yul\":24031:24049   */\n      mul\n        /* \"#utility.yul\":24070:24167   */\n      tag_436\n        /* \"#utility.yul\":24100:24166   */\n      0xffffffffffffffffffffffffffffffffffffffffffffffffffffffffffffffff\n        /* \"#utility.yul\":24089:24098   */\n      dup3\n        /* \"#utility.yul\":24070:24167   */\n      tag_221\n      jump\t// in\n    tag_436:\n        /* \"#utility.yul\":24188:24227   */\n      tag_437\n        /* \"#utility.yul\":24218:24226   */\n      dup7\n        /* \"#utility.yul\":24207:24216   */\n      dup4\n        /* \"#utility.yul\":24188:24227   */\n      tag_221\n      jump\t// in\n    tag_437:\n        /* \"#utility.yul\":24176:24227   */\n      swap6\n      pop\n        /* \"#utility.yul\":24260:24264   */\n      dup1\n        /* \"#utility.yul\":24256:24265   */\n      not\n        /* \"#utility.yul\":24249:24254   */\n      dup5\n        /* \"#utility.yul\":24245:24266   */\n      and\n        /* \"#utility.yul\":24236:24266   */\n      swap4\n      pop\n        /* \"#utility.yul\":24309:24313   */\n      dup1\n        /* \"#utility.yul\":24299:24307   */\n      dup7\n        /* \"#utility.yul\":24295:24314   */\n      and\n        /* \"#utility.yul\":24288:24293   */\n      dup5\n        /* \"#utility.yul\":24285:24315   */\n      or\n        /* \"#utility.yul\":24275:24315   */\n      swap3\n      pop\n        /* \"#utility.yul\":24004:24321   */\n      pop\n      pop\n        /* \"#utility.yul\":23928:24321   */\n      swap4\n      swap3\n      pop\n      pop\n      pop\n      jump\t// out\n        /* \"#utility.yul\":24327:24387   */\n    tag_223:\n        /* \"#utility.yul\":24355:24358   */\n      0x00\n        /* \"#utility.yul\":24376:24381   */\n      dup2\n        /* \"#utility.yul\":24369:24381   */\n      swap1\n      pop\n        /* \"#utility.yul\":24327:24387   */\n      swap2\n      swap1\n      pop\n      jump\t// out\n        /* \"#utility.yul\":24393:24535   */\n    tag_224:\n        /* \"#utility.yul\":24443:24452   */\n      0x00\n        /* \"#utility.yul\":24476:24529   */\n      tag_440\n        /* \"#utility.yul\":24494:24528   */\n      tag_441\n        /* \"#utility.yul\":24503:24527   */\n      tag_442\n        /* \"#utility.yul\":24521:24526   */\n      dup5\n        /* \"#utility.yul\":24503:24527   */\n      tag_161\n      jump\t// in\n    tag_442:\n        /* \"#utility.yul\":24494:24528   */\n      tag_223\n      jump\t// in\n    tag_441:\n        /* \"#utility.yul\":24476:24529   */\n      tag_161\n      jump\t// in\n    tag_440:\n        /* \"#utility.yul\":24463:24529   */\n      swap1\n      pop\n        /* \"#utility.yul\":24393:24535   */\n      swap2\n      swap1\n      pop\n      jump\t// out\n        /* \"#utility.yul\":24541:24616   */\n    tag_225:\n        /* \"#utility.yul\":24584:24587   */\n      0x00\n        /* \"#utility.yul\":24605:24610   */\n      dup2\n        /* \"#utility.yul\":24598:24610   */\n      swap1\n      pop\n        /* \"#utility.yul\":24541:24616   */\n      swap2\n      swap1\n      pop\n      jump\t// out\n        /* \"#utility.yul\":24622:24891   */\n    tag_226:\n        /* \"#utility.yul\":24732:24771   */\n      tag_445\n        /* \"#utility.yul\":24763:24770   */\n      dup4\n        /* \"#utility.yul\":24732:24771   */\n      tag_224\n      jump\t// in\n    tag_445:\n        /* \"#utility.yul\":24793:24884   */\n      tag_446\n        /* \"#utility.yul\":24842:24883   */\n      tag_447\n        /* \"#utility.yul\":24866:24882   */\n      dup3\n        /* \"#utility.yul\":24842:24883   */\n      tag_225\n      jump\t// in\n    tag_447:\n        /* \"#utility.yul\":24834:24840   */\n      dup5\n        /* \"#utility.yul\":24827:24831   */\n      dup5\n        /* \"#utility.yul\":24821:24832   */\n      sload\n        /* \"#utility.yul\":24793:24884   */\n      tag_222\n      jump\t// in\n    tag_446:\n        /* \"#utility.yul\":24787:24791   */\n      dup3\n        /* \"#utility.yul\":24780:24885   */\n      sstore\n        /* \"#utility.yul\":24698:24891   */\n      pop\n        /* \"#utility.yul\":24622:24891   */\n      pop\n      pop\n      pop\n      jump\t// out\n        /* \"#utility.yul\":24897:24970   */\n    tag_227:\n        /* \"#utility.yul\":24942:24945   */\n      0x00\n        /* \"#utility.yul\":24963:24964   */\n      0x00\n        /* \"#utility.yul\":24956:24964   */\n      swap1\n      pop\n        /* \"#utility.yul\":24897:24970   */\n      swap1\n      jump\t// out\n        /* \"#utility.yul\":24976:25165   */\n    tag_228:\n        /* \"#utility.yul\":25053:25085   */\n      tag_450\n      tag_227\n      jump\t// in\n    tag_450:\n        /* \"#utility.yul\":25094:25159   */\n      tag_451\n        /* \"#utility.yul\":25152:25158   */\n      dup2\n        /* \"#utility.yul\":25144:25150   */\n      dup5\n        /* \"#utility.yul\":25138:25142   */\n      dup5\n        /* \"#utility.yul\":25094:25159   */\n      tag_226\n      jump\t// in\n    tag_451:\n        /* \"#utility.yul\":25029:25165   */\n      pop\n        /* \"#utility.yul\":24976:25165   */\n      pop\n      pop\n      jump\t// out\n        /* \"#utility.yul\":25171:25357   */\n    tag_229:\n        /* \"#utility.yul\":25231:25351   */\n    tag_453:\n        /* \"#utility.yul\":25248:25251   */\n      dup2\n        /* \"#utility.yul\":25241:25246   */\n      dup2\n        /* \"#utility.yul\":25238:25252   */\n      lt\n        /* \"#utility.yul\":25231:25351   */\n      iszero\n      tag_455\n      jumpi\n        /* \"#utility.yul\":25302:25341   */\n      tag_456\n        /* \"#utility.yul\":25339:25340   */\n      0x00\n        /* \"#utility.yul\":25332:25337   */\n      dup3\n        /* \"#utility.yul\":25302:25341   */\n      tag_228\n      jump\t// in\n    tag_456:\n        /* \"#utility.yul\":25275:25276   */\n      0x01\n        /* \"#utility.yul\":25268:25273   */\n      dup2\n        /* \"#utility.yul\":25264:25277   */\n      add\n        /* \"#utility.yul\":25255:25277   */\n      swap1\n      pop\n        /* \"#utility.yul\":25231:25351   */\n      jump(tag_453)\n    tag_455:\n        /* \"#utility.yul\":25171:25357   */\n      pop\n      pop\n      jump\t// out\n        /* \"#utility.yul\":25363:25906   */\n    tag_230:\n        /* \"#utility.yul\":25464:25466   */\n      0x1f\n        /* \"#utility.yul\":25459:25462   */\n      dup3\n        /* \"#utility.yul\":25456:25467   */\n      gt\n        /* \"#utility.yul\":25453:25899   */\n      iszero\n      tag_458\n      jumpi\n        /* \"#utility.yul\":25498:25536   */\n      tag_459\n        /* \"#utility.yul\":25530:25535   */\n      dup2\n        /* \"#utility.yul\":25498:25536   */\n      tag_219\n      jump\t// in\n    tag_459:\n        /* \"#utility.yul\":25582:25611   */\n      tag_460\n        /* \"#utility.yul\":25600:25610   */\n      dup5\n        /* \"#utility.yul\":25582:25611   */\n      tag_220\n      jump\t// in\n    tag_460:\n        /* \"#utility.yul\":25572:25580   */\n      dup2\n        /* \"#utility.yul\":25568:25612   */\n      add\n        /* \"#utility.yul\":25765:25767   */\n      0x20\n        /* \"#utility.yul\":25753:25763   */\n      dup6\n        /* \"#utility.yul\":25750:25768   */\n      lt\n        /* \"#utility.yul\":25747:25796   */\n      iszero\n      tag_461\n      jumpi\n        /* \"#utility.yul\":25786:25794   */\n      dup2\n        /* \"#utility.yul\":25771:25794   */\n      swap1\n      pop\n        /* \"#utility.yul\":25747:25796   */\n    tag_461:\n        /* \"#utility.yul\":25809:25889   */\n      tag_462\n        /* \"#utility.yul\":25865:25887   */\n      tag_463\n        /* \"#utility.yul\":25883:25886   */\n      dup6\n        /* \"#utility.yul\":25865:25887   */\n      tag_220\n      jump\t// in\n    tag_463:\n        /* \"#utility.yul\":25855:25863   */\n      dup4\n        /* \"#utility.yul\":25851:25888   */\n      add\n        /* \"#utility.yul\":25838:25849   */\n      dup3\n        /* \"#utility.yul\":25809:25889   */\n      tag_229\n      jump\t// in\n    tag_462:\n        /* \"#utility.yul\":25468:25899   */\n      pop\n      pop\n        /* \"#utility.yul\":25453:25899   */\n    tag_458:\n        /* \"#utility.yul\":25363:25906   */\n      pop\n      pop\n      pop\n      jump\t// out\n        /* \"#utility.yul\":25912:26029   */\n    tag_231:\n        /* \"#utility.yul\":25966:25974   */\n      0x00\n        /* \"#utility.yul\":26016:26021   */\n      dup3\n        /* \"#utility.yul\":26010:26014   */\n      dup3\n        /* \"#utility.yul\":26006:26022   */\n      shr\n        /* \"#utility.yul\":25985:26022   */\n      swap1\n      pop\n        /* \"#utility.yul\":25912:26029   */\n      swap3\n      swap2\n      pop\n      pop\n      jump\t// out\n        /* \"#utility.yul\":26035:26204   */\n    tag_232:\n        /* \"#utility.yul\":26079:26085   */\n      0x00\n        /* \"#utility.yul\":26112:26163   */\n      tag_466\n        /* \"#utility.yul\":26160:26161   */\n      0x00\n        /* \"#utility.yul\":26156:26162   */\n      not\n        /* \"#utility.yul\":26148:26153   */\n      dup5\n        /* \"#utility.yul\":26145:26146   */\n      0x08\n        /* \"#utility.yul\":26141:26154   */\n      mul\n        /* \"#utility.yul\":26112:26163   */\n      tag_231\n      jump\t// in\n    tag_466:\n        /* \"#utility.yul\":26108:26164   */\n      not\n        /* \"#utility.yul\":26193:26197   */\n      dup1\n        /* \"#utility.yul\":26187:26191   */\n      dup4\n        /* \"#utility.yul\":26183:26198   */\n      and\n        /* \"#utility.yul\":26173:26198   */\n      swap2\n      pop\n        /* \"#utility.yul\":26086:26204   */\n      pop\n        /* \"#utility.yul\":26035:26204   */\n      swap3\n      swap2\n      pop\n      pop\n      jump\t// out\n        /* \"#utility.yul\":26209:26504   */\n    tag_233:\n        /* \"#utility.yul\":26285:26289   */\n      0x00\n        /* \"#utility.yul\":26431:26460   */\n      tag_468\n        /* \"#utility.yul\":26456:26459   */\n      dup4\n        /* \"#utility.yul\":26450:26454   */\n      dup4\n        /* \"#utility.yul\":26431:26460   */\n      tag_232\n      jump\t// in\n    tag_468:\n        /* \"#utility.yul\":26423:26460   */\n      swap2\n      pop\n        /* \"#utility.yul\":26493:26496   */\n      dup3\n        /* \"#utility.yul\":26490:26491   */\n      0x02\n        /* \"#utility.yul\":26486:26497   */\n      mul\n        /* \"#utility.yul\":26480:26484   */\n      dup3\n        /* \"#utility.yul\":26477:26498   */\n      or\n        /* \"#utility.yul\":26469:26498   */\n      swap1\n      pop\n        /* \"#utility.yul\":26209:26504   */\n      swap3\n      swap2\n      pop\n      pop\n      jump\t// out\n        /* \"#utility.yul\":26509:27904   */\n    tag_136:\n        /* \"#utility.yul\":26626:26663   */\n      tag_470\n        /* \"#utility.yul\":26659:26662   */\n      dup3\n        /* \"#utility.yul\":26626:26663   */\n      tag_167\n      jump\t// in\n    tag_470:\n        /* \"#utility.yul\":26728:26746   */\n      0xffffffffffffffff\n        /* \"#utility.yul\":26720:26726   */\n      dup2\n        /* \"#utility.yul\":26717:26747   */\n      gt\n        /* \"#utility.yul\":26714:26770   */\n      iszero\n      tag_471\n      jumpi\n        /* \"#utility.yul\":26750:26768   */\n      tag_472\n      tag_49\n      jump\t// in\n    tag_472:\n        /* \"#utility.yul\":26714:26770   */\n    tag_471:\n        /* \"#utility.yul\":26794:26832   */\n      tag_473\n        /* \"#utility.yul\":26826:26830   */\n      dup3\n        /* \"#utility.yul\":26820:26831   */\n      sload\n        /* \"#utility.yul\":26794:26832   */\n      tag_77\n      jump\t// in\n    tag_473:\n        /* \"#utility.yul\":26879:26946   */\n      tag_474\n        /* \"#utility.yul\":26939:26945   */\n      dup3\n        /* \"#utility.yul\":26931:26937   */\n      dup3\n        /* \"#utility.yul\":26925:26929   */\n      dup6\n        /* \"#utility.yul\":26879:26946   */\n      tag_230\n      jump\t// in\n    tag_474:\n        /* \"#utility.yul\":26973:26974   */\n      0x00\n        /* \"#utility.yul\":26997:27001   */\n      0x20\n        /* \"#utility.yul\":26984:27001   */\n      swap1\n      pop\n        /* \"#utility.yul\":27029:27031   */\n      0x1f\n        /* \"#utility.yul\":27021:27027   */\n      dup4\n        /* \"#utility.yul\":27018:27032   */\n      gt\n        /* \"#utility.yul\":27046:27047   */\n      0x01\n        /* \"#utility.yul\":27041:27659   */\n      dup2\n      eq\n      tag_476\n      jumpi\n        /* \"#utility.yul\":27703:27704   */\n      0x00\n        /* \"#utility.yul\":27720:27726   */\n      dup5\n        /* \"#utility.yul\":27717:27794   */\n      iszero\n      tag_477\n      jumpi\n        /* \"#utility.yul\":27769:27778   */\n      dup3\n        /* \"#utility.yul\":27764:27767   */\n      dup8\n        /* \"#utility.yul\":27760:27779   */\n      add\n        /* \"#utility.yul\":27754:27780   */\n      mload\n        /* \"#utility.yul\":27745:27780   */\n      swap1\n      pop\n        /* \"#utility.yul\":27717:27794   */\n    tag_477:\n        /* \"#utility.yul\":27820:27887   */\n      tag_478\n        /* \"#utility.yul\":27880:27886   */\n      dup6\n        /* \"#utility.yul\":27873:27878   */\n      dup3\n        /* \"#utility.yul\":27820:27887   */\n      tag_233\n      jump\t// in\n    tag_478:\n        /* \"#utility.yul\":27814:27818   */\n      dup7\n        /* \"#utility.yul\":27807:27888   */\n      sstore\n        /* \"#utility.yul\":27676:27898   */\n      pop\n        /* \"#utility.yul\":27011:27898   */\n      jump(tag_475)\n        /* \"#utility.yul\":27041:27659   */\n    tag_476:\n        /* \"#utility.yul\":27093:27097   */\n      0x1f\n        /* \"#utility.yul\":27089:27098   */\n      not\n        /* \"#utility.yul\":27081:27087   */\n      dup5\n        /* \"#utility.yul\":27077:27099   */\n      and\n        /* \"#utility.yul\":27127:27164   */\n      tag_479\n        /* \"#utility.yul\":27159:27163   */\n      dup7\n        /* \"#utility.yul\":27127:27164   */\n      tag_219\n      jump\t// in\n    tag_479:\n        /* \"#utility.yul\":27186:27187   */\n      0x00\n        /* \"#utility.yul\":27200:27408   */\n    tag_480:\n        /* \"#utility.yul\":27214:27221   */\n      dup3\n        /* \"#utility.yul\":27211:27212   */\n      dup2\n        /* \"#utility.yul\":27208:27222   */\n      lt\n        /* \"#utility.yul\":27200:27408   */\n      iszero\n      tag_482\n      jumpi\n        /* \"#utility.yul\":27293:27302   */\n      dup5\n        /* \"#utility.yul\":27288:27291   */\n      dup10\n        /* \"#utility.yul\":27284:27303   */\n      add\n        /* \"#utility.yul\":27278:27304   */\n      mload\n        /* \"#utility.yul\":27270:27276   */\n      dup3\n        /* \"#utility.yul\":27263:27305   */\n      sstore\n        /* \"#utility.yul\":27344:27345   */\n      0x01\n        /* \"#utility.yul\":27336:27342   */\n      dup3\n        /* \"#utility.yul\":27332:27346   */\n      add\n        /* \"#utility.yul\":27322:27346   */\n      swap2\n      pop\n        /* \"#utility.yul\":27391:27393   */\n      0x20\n        /* \"#utility.yul\":27380:27389   */\n      dup6\n        /* \"#utility.yul\":27376:27394   */\n      add\n        /* \"#utility.yul\":27363:27394   */\n      swap5\n      pop\n        /* \"#utility.yul\":27237:27241   */\n      0x20\n        /* \"#utility.yul\":27234:27235   */\n      dup2\n        /* \"#utility.yul\":27230:27242   */\n      add\n        /* \"#utility.yul\":27225:27242   */\n      swap1\n      pop\n        /* \"#utility.yul\":27200:27408   */\n      jump(tag_480)\n    tag_482:\n        /* \"#utility.yul\":27436:27442   */\n      dup7\n        /* \"#utility.yul\":27427:27434   */\n      dup4\n        /* \"#utility.yul\":27424:27443   */\n      lt\n        /* \"#utility.yul\":27421:27600   */\n      iszero\n      tag_483\n      jumpi\n        /* \"#utility.yul\":27494:27503   */\n      dup5\n        /* \"#utility.yul\":27489:27492   */\n      dup10\n        /* \"#utility.yul\":27485:27504   */\n      add\n        /* \"#utility.yul\":27479:27505   */\n      mload\n        /* \"#utility.yul\":27537:27585   */\n      tag_484\n        /* \"#utility.yul\":27579:27583   */\n      0x1f\n        /* \"#utility.yul\":27571:27577   */\n      dup10\n        /* \"#utility.yul\":27567:27584   */\n      and\n        /* \"#utility.yul\":27556:27565   */\n      dup3\n        /* \"#utility.yul\":27537:27585   */\n      tag_232\n      jump\t// in\n    tag_484:\n        /* \"#utility.yul\":27529:27535   */\n      dup4\n        /* \"#utility.yul\":27522:27586   */\n      sstore\n        /* \"#utility.yul\":27444:27600   */\n      pop\n        /* \"#utility.yul\":27421:27600   */\n    tag_483:\n        /* \"#utility.yul\":27646:27647   */\n      0x01\n        /* \"#utility.yul\":27642:27643   */\n      0x02\n        /* \"#utility.yul\":27634:27640   */\n      dup9\n        /* \"#utility.yul\":27630:27644   */\n      mul\n        /* \"#utility.yul\":27626:27648   */\n      add\n        /* \"#utility.yul\":27620:27624   */\n      dup9\n        /* \"#utility.yul\":27613:27649   */\n      sstore\n        /* \"#utility.yul\":27048:27659   */\n      pop\n      pop\n      pop\n        /* \"#utility.yul\":27011:27898   */\n    tag_475:\n      pop\n        /* \"#utility.yul\":26601:27904   */\n      pop\n      pop\n      pop\n        /* \"#utility.yul\":26509:27904   */\n      pop\n      pop\n      jump\t// out\n        /* \"#utility.yul\":27910:28101   */\n    tag_140:\n        /* \"#utility.yul\":27950:27953   */\n      0x00\n        /* \"#utility.yul\":27969:27989   */\n      tag_486\n        /* \"#utility.yul\":27987:27988   */\n      dup3\n        /* \"#utility.yul\":27969:27989   */\n      tag_161\n      jump\t// in\n    tag_486:\n        /* \"#utility.yul\":27964:27989   */\n      swap2\n      pop\n        /* \"#utility.yul\":28003:28023   */\n      tag_487\n        /* \"#utility.yul\":28021:28022   */\n      dup4\n        /* \"#utility.yul\":28003:28023   */\n      tag_161\n      jump\t// in\n    tag_487:\n        /* \"#utility.yul\":27998:28023   */\n      swap3\n      pop\n        /* \"#utility.yul\":28046:28047   */\n      dup3\n        /* \"#utility.yul\":28043:28044   */\n      dup3\n        /* \"#utility.yul\":28039:28048   */\n      add\n        /* \"#utility.yul\":28032:28048   */\n      swap1\n      pop\n        /* \"#utility.yul\":28067:28070   */\n      dup1\n        /* \"#utility.yul\":28064:28065   */\n      dup3\n        /* \"#utility.yul\":28061:28071   */\n      gt\n        /* \"#utility.yul\":28058:28094   */\n      iszero\n      tag_488\n      jumpi\n        /* \"#utility.yul\":28074:28092   */\n      tag_489\n      tag_199\n      jump\t// in\n    tag_489:\n        /* \"#utility.yul\":28058:28094   */\n    tag_488:\n        /* \"#utility.yul\":27910:28101   */\n      swap3\n      swap2\n      pop\n      pop\n      jump\t// out\n\n    auxdata: 0xa26469706673582212209b560048ae347d74468bcd7fca2b66902e820b26a42cb6451d9fc3566c16e2ae64736f6c634300081e0033\n}\n",
				"bytecode": {
					"linkReferences": {},
					"object": "6080604052348015600e575f5ffd5b50335f5f6101000a81548173ffffffffffffffffffffffffffffffffffffffff021916908373ffffffffffffffffffffffffffffffffffffffff1602179055506119ed8061005b5f395ff3fe608060405234801561000f575f5ffd5b5060043610610060575f3560e01c80634129b2c9146100645780638da5cb5b146100945780639534e637146100b2578063ac2f0074146100ce578063b384abef14610100578063f8c860f41461011c575b5f5ffd5b61007e60048036038101906100799190610c04565b610138565b60405161008b9190610d5a565b60405180910390f35b61009c6104ad565b6040516100a99190610db9565b60405180910390f35b6100cc60048036038101906100c79190610c04565b6104d1565b005b6100e860048036038101906100e39190610c04565b610638565b6040516100f793929190610e43565b60405180910390f35b61011a60048036038101906101159190610e7f565b6106ff565b005b610136600480360381019061013191906110cb565b610959565b005b60605f5f9054906101000a900473ffffffffffffffffffffffffffffffffffffffff1673ffffffffffffffffffffffffffffffffffffffff163373ffffffffffffffffffffffffffffffffffffffff16146101c8576040517f08c379a00000000000000000000000000000000000000000000000000000000081526004016101bf9061119d565b60405180910390fd5b816001805490501161020f576040517f08c379a00000000000000000000000000000000000000000000000000000000081526004016102069061122b565b60405180910390fd5b5f5f90505f5f90505f6001858154811061022c5761022b611249565b5b905f5260205f20906007020190505f816001018054905067ffffffffffffffff81111561025c5761025b610ec5565b5b60405190808252806020026020018201604052801561028a5781602001602082028036833780820191505090505b5090505f5f90505b600187815481106102a6576102a5611249565b5b905f5260205f2090600702016001018054905081101561036f5783836004015f8381526020019081526020015f2054111561031a57826004015f8281526020019081526020015f205493506001945080825f8151811061030957610308611249565b5b602002602001018181525050610362565b83836004015f8381526020019081526020015f2054036103615780828680610341906112a3565b97508151811061035457610353611249565b5b6020026020010181815250505b5b8080600101915050610292565b505f8467ffffffffffffffff81111561038b5761038a610ec5565b5b6040519080825280602002602001820160405280156103be57816020015b60608152602001906001900390816103a95790505b5090505f5f90505b825181101561049f578360010181815481106103e5576103e4611249565b5b905f5260205f200180546103f890611317565b80601f016020809104026020016040519081016040528092919081815260200182805461042490611317565b801561046f5780601f106104465761010080835404028352916020019161046f565b820191905f5260205f20905b81548152906001019060200180831161045257829003601f168201915b505050505082828151811061048757610486611249565b5b602002602001018190525080806001019150506103c6565b508095505050505050919050565b5f5f9054906101000a900473ffffffffffffffffffffffffffffffffffffffff1681565b5f5f9054906101000a900473ffffffffffffffffffffffffffffffffffffffff1673ffffffffffffffffffffffffffffffffffffffff163373ffffffffffffffffffffffffffffffffffffffff161461055f576040517f08c379a00000000000000000000000000000000000000000000000000000000081526004016105569061119d565b60405180910390fd5b60018054905081106105a6576040517f08c379a000000000000000000000000000000000000000000000000000000000815260040161059d90611391565b60405180910390fd5b5f600182815481106105bb576105ba611249565b5b905f5260205f2090600702019050806005015f9054906101000a900460ff16610619576040517f08c379a0000000000000000000000000000000000000000000000000000000008152600401610610906113f9565b60405180910390fd5b5f816005015f6101000a81548160ff0219169083151502179055505050565b60018181548110610647575f80fd5b905f5260205f2090600702015f91509050805f01805461066690611317565b80601f016020809104026020016040519081016040528092919081815260200182805461069290611317565b80156106dd5780601f106106b4576101008083540402835291602001916106dd565b820191905f5260205f20905b8154815290600101906020018083116106c057829003601f168201915b505050505090806005015f9054906101000a900460ff16908060060154905083565b8160018054905011610746576040517f08c379a000000000000000000000000000000000000000000000000000000000815260040161073d90611487565b60405180910390fd5b5f6001838154811061075b5761075a611249565b5b905f5260205f2090600702019050818160010180549050116107b2576040517f08c379a00000000000000000000000000000000000000000000000000000000081526004016107a9906114ef565b60405180910390fd5b806005015f9054906101000a900460ff16610802576040517f08c379a00000000000000000000000000000000000000000000000000000000081526004016107f990611557565b60405180910390fd5b806002015f3373ffffffffffffffffffffffffffffffffffffffff1673ffffffffffffffffffffffffffffffffffffffff1681526020019081526020015f205f9054906101000a900460ff161561088e576040517f08c379a0000000000000000000000000000000000000000000000000000000008152600401610885906115bf565b60405180910390fd5b80600601544211156108d5576040517f08c379a00000000000000000000000000000000000000000000000000000000081526004016108cc90611627565b60405180910390fd5b806004015f8381526020019081526020015f205f8154809291906108f8906112a3565b91905055506001816002015f3373ffffffffffffffffffffffffffffffffffffffff1673ffffffffffffffffffffffffffffffffffffffff1681526020019081526020015f205f6101000a81548160ff021916908315150217905550505050565b5f5f9054906101000a900473ffffffffffffffffffffffffffffffffffffffff1673ffffffffffffffffffffffffffffffffffffffff163373ffffffffffffffffffffffffffffffffffffffff16146109e7576040517f08c379a00000000000000000000000000000000000000000000000000000000081526004016109de9061119d565b60405180910390fd5b600282511015610a2c576040517f08c379a0000000000000000000000000000000000000000000000000000000008152600401610a239061168f565b60405180910390fd5b5f8111610a6e576040517f08c379a0000000000000000000000000000000000000000000000000000000008152600401610a65906116f7565b60405180910390fd5b5f6001808160018154018082558091505003905f5260205f209060070201905083815f019081610a9e91906118b5565b5082816001019080519060200190610ab7929190610aee565b506001816005015f6101000a81548160ff0219169083151502179055508142610ae09190611984565b816006018190555050505050565b828054828255905f5260205f20908101928215610b34579160200282015b82811115610b33578251829081610b2391906118b5565b5091602001919060010190610b0c565b5b509050610b419190610b45565b5090565b5b80821115610b64575f8181610b5b9190610b68565b50600101610b46565b5090565b508054610b7490611317565b5f825580601f10610b855750610ba2565b601f0160209004905f5260205f2090810190610ba19190610ba5565b5b50565b5b80821115610bbc575f815f905550600101610ba6565b5090565b5f604051905090565b5f5ffd5b5f5ffd5b5f819050919050565b610be381610bd1565b8114610bed575f5ffd5b50565b5f81359050610bfe81610bda565b92915050565b5f60208284031215610c1957610c18610bc9565b5b5f610c2684828501610bf0565b91505092915050565b5f81519050919050565b5f82825260208201905092915050565b5f819050602082019050919050565b5f81519050919050565b5f82825260208201905092915050565b8281835e5f83830152505050565b5f601f19601f8301169050919050565b5f610c9a82610c58565b610ca48185610c62565b9350610cb4818560208601610c72565b610cbd81610c80565b840191505092915050565b5f610cd38383610c90565b905092915050565b5f602082019050919050565b5f610cf182610c2f565b610cfb8185610c39565b935083602082028501610d0d85610c49565b805f5b85811015610d485784840389528151610d298582610cc8565b9450610d3483610cdb565b925060208a01995050600181019050610d10565b50829750879550505050505092915050565b5f6020820190508181035f830152610d728184610ce7565b905092915050565b5f73ffffffffffffffffffffffffffffffffffffffff82169050919050565b5f610da382610d7a565b9050919050565b610db381610d99565b82525050565b5f602082019050610dcc5f830184610daa565b92915050565b5f82825260208201905092915050565b5f610dec82610c58565b610df68185610dd2565b9350610e06818560208601610c72565b610e0f81610c80565b840191505092915050565b5f8115159050919050565b610e2e81610e1a565b82525050565b610e3d81610bd1565b82525050565b5f6060820190508181035f830152610e5b8186610de2565b9050610e6a6020830185610e25565b610e776040830184610e34565b949350505050565b5f5f60408385031215610e9557610e94610bc9565b5b5f610ea285828601610bf0565b9250506020610eb385828601610bf0565b9150509250929050565b5f5ffd5b5f5ffd5b7f4e487b71000000000000000000000000000000000000000000000000000000005f52604160045260245ffd5b610efb82610c80565b810181811067ffffffffffffffff82111715610f1a57610f19610ec5565b5b80604052505050565b5f610f2c610bc0565b9050610f388282610ef2565b919050565b5f67ffffffffffffffff821115610f5757610f56610ec5565b5b610f6082610c80565b9050602081019050919050565b828183375f83830152505050565b5f610f8d610f8884610f3d565b610f23565b905082815260208101848484011115610fa957610fa8610ec1565b5b610fb4848285610f6d565b509392505050565b5f82601f830112610fd057610fcf610ebd565b5b8135610fe0848260208601610f7b565b91505092915050565b5f67ffffffffffffffff82111561100357611002610ec5565b5b602082029050602081019050919050565b5f5ffd5b5f61102a61102584610fe9565b610f23565b9050808382526020820190506020840283018581111561104d5761104c611014565b5b835b8181101561109457803567ffffffffffffffff81111561107257611071610ebd565b5b80860161107f8982610fbc565b8552602085019450505060208101905061104f565b5050509392505050565b5f82601f8301126110b2576110b1610ebd565b5b81356110c2848260208601611018565b91505092915050565b5f5f5f606084860312156110e2576110e1610bc9565b5b5f84013567ffffffffffffffff8111156110ff576110fe610bcd565b5b61110b86828701610fbc565b935050602084013567ffffffffffffffff81111561112c5761112b610bcd565b5b6111388682870161109e565b925050604061114986828701610bf0565b9150509250925092565b7f4f6e6c79206f776e65722063616e2063616c6c20746869732e000000000000005f82015250565b5f611187601983610dd2565b915061119282611153565b602082019050919050565b5f6020820190508181035f8301526111b48161117b565b9050919050565b7f706f6c6c7320696e646578206f7574206f6620626f756e64206578657074696f5f8201527f6e00000000000000000000000000000000000000000000000000000000000000602082015250565b5f611215602183610dd2565b9150611220826111bb565b604082019050919050565b5f6020820190508181035f83015261124281611209565b9050919050565b7f4e487b71000000000000000000000000000000000000000000000000000000005f52603260045260245ffd5b7f4e487b71000000000000000000000000000000000000000000000000000000005f52601160045260245ffd5b5f6112ad82610bd1565b91507fffffffffffffffffffffffffffffffffffffffffffffffffffffffffffffffff82036112df576112de611276565b5b600182019050919050565b7f4e487b71000000000000000000000000000000000000000000000000000000005f52602260045260245ffd5b5f600282049050600182168061132e57607f821691505b602082108103611341576113406112ea565b5b50919050565b7f496e76616c696420706f6c6c20696e64657800000000000000000000000000005f82015250565b5f61137b601283610dd2565b915061138682611347565b602082019050919050565b5f6020820190508181035f8301526113a88161136f565b9050919050565b7f506f6c6c20697320616c726561647920636c6f736564000000000000000000005f82015250565b5f6113e3601683610dd2565b91506113ee826113af565b602082019050919050565b5f6020820190508181035f830152611410816113d7565b9050919050565b7f706f6c6c20696e646578206f7574206f6620626f756e6420657863657074696f5f8201527f6e00000000000000000000000000000000000000000000000000000000000000602082015250565b5f611471602183610dd2565b915061147c82611417565b604082019050919050565b5f6020820190508181035f83015261149e81611465565b9050919050565b7f6f7074696f6e73206f7574206f6620626f756e6420657863657074696f6e00005f82015250565b5f6114d9601e83610dd2565b91506114e4826114a5565b602082019050919050565b5f6020820190508181035f830152611506816114cd565b9050919050565b7f506f6c6c2068617320636c6f7365642e000000000000000000000000000000005f82015250565b5f611541601083610dd2565b915061154c8261150d565b602082019050919050565b5f6020820190508181035f83015261156e81611535565b9050919050565b7f596f7520766f746564206265666f7265000000000000000000000000000000005f82015250565b5f6115a9601083610dd2565b91506115b482611575565b602082019050919050565b5f6020820190508181035f8301526115d68161159d565b9050919050565b7f566f74696e6720706572696f642068617320656e6465640000000000000000005f82015250565b5f611611601783610dd2565b915061161c826115dd565b602082019050919050565b5f6020820190508181035f83015261163e81611605565b9050919050565b7f4174206c656173742032206f7074696f6e7320726571756972656400000000005f82015250565b5f611679601b83610dd2565b915061168482611645565b602082019050919050565b5f6020820190508181035f8301526116a68161166d565b9050919050565b7f4475726174696f6e206d757374206265203e30000000000000000000000000005f82015250565b5f6116e1601383610dd2565b91506116ec826116ad565b602082019050919050565b5f6020820190508181035f83015261170e816116d5565b9050919050565b5f819050815f5260205f209050919050565b5f6020601f8301049050919050565b5f82821b905092915050565b5f600883026117717fffffffffffffffffffffffffffffffffffffffffffffffffffffffffffffffff82611736565b61177b8683611736565b95508019841693508086168417925050509392505050565b5f819050919050565b5f6117b66117b16117ac84610bd1565b611793565b610bd1565b9050919050565b5f819050919050565b6117cf8361179c565b6117e36117db826117bd565b848454611742565b825550505050565b5f5f905090565b6117fa6117eb565b6118058184846117c6565b505050565b5b818110156118285761181d5f826117f2565b60018101905061180b565b5050565b601f82111561186d5761183e81611715565b61184784611727565b81016020851015611856578190505b61186a61186285611727565b83018261180a565b50505b505050565b5f82821c905092915050565b5f61188d5f1984600802611872565b1980831691505092915050565b5f6118a5838361187e565b9150826002028217905092915050565b6118be82610c58565b67ffffffffffffffff8111156118d7576118d6610ec5565b5b6118e18254611317565b6118ec82828561182c565b5f60209050601f83116001811461191d575f841561190b578287015190505b611915858261189a565b86555061197c565b601f19841661192b86611715565b5f5b828110156119525784890151825560018201915060208501945060208101905061192d565b8683101561196f578489015161196b601f89168261187e565b8355505b6001600288020188555050505b505050505050565b5f61198e82610bd1565b915061199983610bd1565b92508282019050808211156119b1576119b0611276565b5b9291505056fea26469706673582212209b560048ae347d74468bcd7fca2b66902e820b26a42cb6451d9fc3566c16e2ae64736f6c634300081e0033",
					"opcodes": "PUSH1 0x80 PUSH1 0x40 MSTORE CALLVALUE DUP1 ISZERO PUSH1 0xE JUMPI PUSH0 PUSH0 REVERT JUMPDEST POP CALLER PUSH0 PUSH0 PUSH2 0x100 EXP DUP2 SLOAD DUP2 PUSH20 0xFFFFFFFFFFFFFFFFFFFFFFFFFFFFFFFFFFFFFFFF MUL NOT AND SWAP1 DUP4 PUSH20 0xFFFFFFFFFFFFFFFFFFFFFFFFFFFFFFFFFFFFFFFF AND MUL OR SWAP1 SSTORE POP PUSH2 0x19ED DUP1 PUSH2 0x5B PUSH0 CODECOPY PUSH0 RETURN INVALID PUSH1 0x80 PUSH1 0x40 MSTORE CALLVALUE DUP1 ISZERO PUSH2 0xF JUMPI PUSH0 PUSH0 REVERT JUMPDEST POP PUSH1 0x4 CALLDATASIZE LT PUSH2 0x60 JUMPI PUSH0 CALLDATALOAD PUSH1 0xE0 SHR DUP1 PUSH4 0x4129B2C9 EQ PUSH2 0x64 JUMPI DUP1 PUSH4 0x8DA5CB5B EQ PUSH2 0x94 JUMPI DUP1 PUSH4 0x9534E637 EQ PUSH2 0xB2 JUMPI DUP1 PUSH4 0xAC2F0074 EQ PUSH2 0xCE JUMPI DUP1 PUSH4 0xB384ABEF EQ PUSH2 0x100 JUMPI DUP1 PUSH4 0xF8C860F4 EQ PUSH2 0x11C JUMPI JUMPDEST PUSH0 PUSH0 REVERT JUMPDEST PUSH2 0x7E PUSH1 0x4 DUP1 CALLDATASIZE SUB DUP2 ADD SWAP1 PUSH2 0x79 SWAP2 SWAP1 PUSH2 0xC04 JUMP JUMPDEST PUSH2 0x138 JUMP JUMPDEST PUSH1 0x40 MLOAD PUSH2 0x8B SWAP2 SWAP1 PUSH2 0xD5A JUMP JUMPDEST PUSH1 0x40 MLOAD DUP1 SWAP2 SUB SWAP1 RETURN JUMPDEST PUSH2 0x9C PUSH2 0x4AD JUMP JUMPDEST PUSH1 0x40 MLOAD PUSH2 0xA9 SWAP2 SWAP1 PUSH2 0xDB9 JUMP JUMPDEST PUSH1 0x40 MLOAD DUP1 SWAP2 SUB SWAP1 RETURN JUMPDEST PUSH2 0xCC PUSH1 0x4 DUP1 CALLDATASIZE SUB DUP2 ADD SWAP1 PUSH2 0xC7 SWAP2 SWAP1 PUSH2 0xC04 JUMP JUMPDEST PUSH2 0x4D1 JUMP JUMPDEST STOP JUMPDEST PUSH2 0xE8 PUSH1 0x4 DUP1 CALLDATASIZE SUB DUP2 ADD SWAP1 PUSH2 0xE3 SWAP2 SWAP1 PUSH2 0xC04 JUMP JUMPDEST PUSH2 0x638 JUMP JUMPDEST PUSH1 0x40 MLOAD PUSH2 0xF7 SWAP4 SWAP3 SWAP2 SWAP1 PUSH2 0xE43 JUMP JUMPDEST PUSH1 0x40 MLOAD DUP1 SWAP2 SUB SWAP1 RETURN JUMPDEST PUSH2 0x11A PUSH1 0x4 DUP1 CALLDATASIZE SUB DUP2 ADD SWAP1 PUSH2 0x115 SWAP2 SWAP1 PUSH2 0xE7F JUMP JUMPDEST PUSH2 0x6FF JUMP JUMPDEST STOP JUMPDEST PUSH2 0x136 PUSH1 0x4 DUP1 CALLDATASIZE SUB DUP2 ADD SWAP1 PUSH2 0x131 SWAP2 SWAP1 PUSH2 0x10CB JUMP JUMPDEST PUSH2 0x959 JUMP JUMPDEST STOP JUMPDEST PUSH1 0x60 PUSH0 PUSH0 SWAP1 SLOAD SWAP1 PUSH2 0x100 EXP SWAP1 DIV PUSH20 0xFFFFFFFFFFFFFFFFFFFFFFFFFFFFFFFFFFFFFFFF AND PUSH20 0xFFFFFFFFFFFFFFFFFFFFFFFFFFFFFFFFFFFFFFFF AND CALLER PUSH20 0xFFFFFFFFFFFFFFFFFFFFFFFFFFFFFFFFFFFFFFFF AND EQ PUSH2 0x1C8 JUMPI PUSH1 0x40 MLOAD PUSH32 0x8C379A000000000000000000000000000000000000000000000000000000000 DUP2 MSTORE PUSH1 0x4 ADD PUSH2 0x1BF SWAP1 PUSH2 0x119D JUMP JUMPDEST PUSH1 0x40 MLOAD DUP1 SWAP2 SUB SWAP1 REVERT JUMPDEST DUP2 PUSH1 0x1 DUP1 SLOAD SWAP1 POP GT PUSH2 0x20F JUMPI PUSH1 0x40 MLOAD PUSH32 0x8C379A000000000000000000000000000000000000000000000000000000000 DUP2 MSTORE PUSH1 0x4 ADD PUSH2 0x206 SWAP1 PUSH2 0x122B JUMP JUMPDEST PUSH1 0x40 MLOAD DUP1 SWAP2 SUB SWAP1 REVERT JUMPDEST PUSH0 PUSH0 SWAP1 POP PUSH0 PUSH0 SWAP1 POP PUSH0 PUSH1 0x1 DUP6 DUP2 SLOAD DUP2 LT PUSH2 0x22C JUMPI PUSH2 0x22B PUSH2 0x1249 JUMP JUMPDEST JUMPDEST SWAP1 PUSH0 MSTORE PUSH1 0x20 PUSH0 KECCAK256 SWAP1 PUSH1 0x7 MUL ADD SWAP1 POP PUSH0 DUP2 PUSH1 0x1 ADD DUP1 SLOAD SWAP1 POP PUSH8 0xFFFFFFFFFFFFFFFF DUP2 GT ISZERO PUSH2 0x25C JUMPI PUSH2 0x25B PUSH2 0xEC5 JUMP JUMPDEST JUMPDEST PUSH1 0x40 MLOAD SWAP1 DUP1 DUP3 MSTORE DUP1 PUSH1 0x20 MUL PUSH1 0x20 ADD DUP3 ADD PUSH1 0x40 MSTORE DUP1 ISZERO PUSH2 0x28A JUMPI DUP2 PUSH1 0x20 ADD PUSH1 0x20 DUP3 MUL DUP1 CALLDATASIZE DUP4 CALLDATACOPY DUP1 DUP3 ADD SWAP2 POP POP SWAP1 POP JUMPDEST POP SWAP1 POP PUSH0 PUSH0 SWAP1 POP JUMPDEST PUSH1 0x1 DUP8 DUP2 SLOAD DUP2 LT PUSH2 0x2A6 JUMPI PUSH2 0x2A5 PUSH2 0x1249 JUMP JUMPDEST JUMPDEST SWAP1 PUSH0 MSTORE PUSH1 0x20 PUSH0 KECCAK256 SWAP1 PUSH1 0x7 MUL ADD PUSH1 0x1 ADD DUP1 SLOAD SWAP1 POP DUP2 LT ISZERO PUSH2 0x36F JUMPI DUP4 DUP4 PUSH1 0x4 ADD PUSH0 DUP4 DUP2 MSTORE PUSH1 0x20 ADD SWAP1 DUP2 MSTORE PUSH1 0x20 ADD PUSH0 KECCAK256 SLOAD GT ISZERO PUSH2 0x31A JUMPI DUP3 PUSH1 0x4 ADD PUSH0 DUP3 DUP2 MSTORE PUSH1 0x20 ADD SWAP1 DUP2 MSTORE PUSH1 0x20 ADD PUSH0 KECCAK256 SLOAD SWAP4 POP PUSH1 0x1 SWAP5 POP DUP1 DUP3 PUSH0 DUP2 MLOAD DUP2 LT PUSH2 0x309 JUMPI PUSH2 0x308 PUSH2 0x1249 JUMP JUMPDEST JUMPDEST PUSH1 0x20 MUL PUSH1 0x20 ADD ADD DUP2 DUP2 MSTORE POP POP PUSH2 0x362 JUMP JUMPDEST DUP4 DUP4 PUSH1 0x4 ADD PUSH0 DUP4 DUP2 MSTORE PUSH1 0x20 ADD SWAP1 DUP2 MSTORE PUSH1 0x20 ADD PUSH0 KECCAK256 SLOAD SUB PUSH2 0x361 JUMPI DUP1 DUP3 DUP7 DUP1 PUSH2 0x341 SWAP1 PUSH2 0x12A3 JUMP JUMPDEST SWAP8 POP DUP2 MLOAD DUP2 LT PUSH2 0x354 JUMPI PUSH2 0x353 PUSH2 0x1249 JUMP JUMPDEST JUMPDEST PUSH1 0x20 MUL PUSH1 0x20 ADD ADD DUP2 DUP2 MSTORE POP POP JUMPDEST JUMPDEST DUP1 DUP1 PUSH1 0x1 ADD SWAP2 POP POP PUSH2 0x292 JUMP JUMPDEST POP PUSH0 DUP5 PUSH8 0xFFFFFFFFFFFFFFFF DUP2 GT ISZERO PUSH2 0x38B JUMPI PUSH2 0x38A PUSH2 0xEC5 JUMP JUMPDEST JUMPDEST PUSH1 0x40 MLOAD SWAP1 DUP1 DUP3 MSTORE DUP1 PUSH1 0x20 MUL PUSH1 0x20 ADD DUP3 ADD PUSH1 0x40 MSTORE DUP1 ISZERO PUSH2 0x3BE JUMPI DUP2 PUSH1 0x20 ADD JUMPDEST PUSH1 0x60 DUP2 MSTORE PUSH1 0x20 ADD SWAP1 PUSH1 0x1 SWAP1 SUB SWAP1 DUP2 PUSH2 0x3A9 JUMPI SWAP1 POP JUMPDEST POP SWAP1 POP PUSH0 PUSH0 SWAP1 POP JUMPDEST DUP3 MLOAD DUP2 LT ISZERO PUSH2 0x49F JUMPI DUP4 PUSH1 0x1 ADD DUP2 DUP2 SLOAD DUP2 LT PUSH2 0x3E5 JUMPI PUSH2 0x3E4 PUSH2 0x1249 JUMP JUMPDEST JUMPDEST SWAP1 PUSH0 MSTORE PUSH1 0x20 PUSH0 KECCAK256 ADD DUP1 SLOAD PUSH2 0x3F8 SWAP1 PUSH2 0x1317 JUMP JUMPDEST DUP1 PUSH1 0x1F ADD PUSH1 0x20 DUP1 SWAP2 DIV MUL PUSH1 0x20 ADD PUSH1 0x40 MLOAD SWAP1 DUP2 ADD PUSH1 0x40 MSTORE DUP1 SWAP3 SWAP2 SWAP1 DUP2 DUP2 MSTORE PUSH1 0x20 ADD DUP3 DUP1 SLOAD PUSH2 0x424 SWAP1 PUSH2 0x1317 JUMP JUMPDEST DUP1 ISZERO PUSH2 0x46F JUMPI DUP1 PUSH1 0x1F LT PUSH2 0x446 JUMPI PUSH2 0x100 DUP1 DUP4 SLOAD DIV MUL DUP4 MSTORE SWAP2 PUSH1 0x20 ADD SWAP2 PUSH2 0x46F JUMP JUMPDEST DUP3 ADD SWAP2 SWAP1 PUSH0 MSTORE PUSH1 0x20 PUSH0 KECCAK256 SWAP1 JUMPDEST DUP2 SLOAD DUP2 MSTORE SWAP1 PUSH1 0x1 ADD SWAP1 PUSH1 0x20 ADD DUP1 DUP4 GT PUSH2 0x452 JUMPI DUP3 SWAP1 SUB PUSH1 0x1F AND DUP3 ADD SWAP2 JUMPDEST POP POP POP POP POP DUP3 DUP3 DUP2 MLOAD DUP2 LT PUSH2 0x487 JUMPI PUSH2 0x486 PUSH2 0x1249 JUMP JUMPDEST JUMPDEST PUSH1 0x20 MUL PUSH1 0x20 ADD ADD DUP2 SWAP1 MSTORE POP DUP1 DUP1 PUSH1 0x1 ADD SWAP2 POP POP PUSH2 0x3C6 JUMP JUMPDEST POP DUP1 SWAP6 POP POP POP POP POP POP SWAP2 SWAP1 POP JUMP JUMPDEST PUSH0 PUSH0 SWAP1 SLOAD SWAP1 PUSH2 0x100 EXP SWAP1 DIV PUSH20 0xFFFFFFFFFFFFFFFFFFFFFFFFFFFFFFFFFFFFFFFF AND DUP2 JUMP JUMPDEST PUSH0 PUSH0 SWAP1 SLOAD SWAP1 PUSH2 0x100 EXP SWAP1 DIV PUSH20 0xFFFFFFFFFFFFFFFFFFFFFFFFFFFFFFFFFFFFFFFF AND PUSH20 0xFFFFFFFFFFFFFFFFFFFFFFFFFFFFFFFFFFFFFFFF AND CALLER PUSH20 0xFFFFFFFFFFFFFFFFFFFFFFFFFFFFFFFFFFFFFFFF AND EQ PUSH2 0x55F JUMPI PUSH1 0x40 MLOAD PUSH32 0x8C379A000000000000000000000000000000000000000000000000000000000 DUP2 MSTORE PUSH1 0x4 ADD PUSH2 0x556 SWAP1 PUSH2 0x119D JUMP JUMPDEST PUSH1 0x40 MLOAD DUP1 SWAP2 SUB SWAP1 REVERT JUMPDEST PUSH1 0x1 DUP1 SLOAD SWAP1 POP DUP2 LT PUSH2 0x5A6 JUMPI PUSH1 0x40 MLOAD PUSH32 0x8C379A000000000000000000000000000000000000000000000000000000000 DUP2 MSTORE PUSH1 0x4 ADD PUSH2 0x59D SWAP1 PUSH2 0x1391 JUMP JUMPDEST PUSH1 0x40 MLOAD DUP1 SWAP2 SUB SWAP1 REVERT JUMPDEST PUSH0 PUSH1 0x1 DUP3 DUP2 SLOAD DUP2 LT PUSH2 0x5BB JUMPI PUSH2 0x5BA PUSH2 0x1249 JUMP JUMPDEST JUMPDEST SWAP1 PUSH0 MSTORE PUSH1 0x20 PUSH0 KECCAK256 SWAP1 PUSH1 0x7 MUL ADD SWAP1 POP DUP1 PUSH1 0x5 ADD PUSH0 SWAP1 SLOAD SWAP1 PUSH2 0x100 EXP SWAP1 DIV PUSH1 0xFF AND PUSH2 0x619 JUMPI PUSH1 0x40 MLOAD PUSH32 0x8C379A000000000000000000000000000000000000000000000000000000000 DUP2 MSTORE PUSH1 0x4 ADD PUSH2 0x610 SWAP1 PUSH2 0x13F9 JUMP JUMPDEST PUSH1 0x40 MLOAD DUP1 SWAP2 SUB SWAP1 REVERT JUMPDEST PUSH0 DUP2 PUSH1 0x5 ADD PUSH0 PUSH2 0x100 EXP DUP2 SLOAD DUP2 PUSH1 0xFF MUL NOT AND SWAP1 DUP4 ISZERO ISZERO MUL OR SWAP1 SSTORE POP POP POP JUMP JUMPDEST PUSH1 0x1 DUP2 DUP2 SLOAD DUP2 LT PUSH2 0x647 JUMPI PUSH0 DUP1 REVERT JUMPDEST SWAP1 PUSH0 MSTORE PUSH1 0x20 PUSH0 KECCAK256 SWAP1 PUSH1 0x7 MUL ADD PUSH0 SWAP2 POP SWAP1 POP DUP1 PUSH0 ADD DUP1 SLOAD PUSH2 0x666 SWAP1 PUSH2 0x1317 JUMP JUMPDEST DUP1 PUSH1 0x1F ADD PUSH1 0x20 DUP1 SWAP2 DIV MUL PUSH1 0x20 ADD PUSH1 0x40 MLOAD SWAP1 DUP2 ADD PUSH1 0x40 MSTORE DUP1 SWAP3 SWAP2 SWAP1 DUP2 DUP2 MSTORE PUSH1 0x20 ADD DUP3 DUP1 SLOAD PUSH2 0x692 SWAP1 PUSH2 0x1317 JUMP JUMPDEST DUP1 ISZERO PUSH2 0x6DD JUMPI DUP1 PUSH1 0x1F LT PUSH2 0x6B4 JUMPI PUSH2 0x100 DUP1 DUP4 SLOAD DIV MUL DUP4 MSTORE SWAP2 PUSH1 0x20 ADD SWAP2 PUSH2 0x6DD JUMP JUMPDEST DUP3 ADD SWAP2 SWAP1 PUSH0 MSTORE PUSH1 0x20 PUSH0 KECCAK256 SWAP1 JUMPDEST DUP2 SLOAD DUP2 MSTORE SWAP1 PUSH1 0x1 ADD SWAP1 PUSH1 0x20 ADD DUP1 DUP4 GT PUSH2 0x6C0 JUMPI DUP3 SWAP1 SUB PUSH1 0x1F AND DUP3 ADD SWAP2 JUMPDEST POP POP POP POP POP SWAP1 DUP1 PUSH1 0x5 ADD PUSH0 SWAP1 SLOAD SWAP1 PUSH2 0x100 EXP SWAP1 DIV PUSH1 0xFF AND SWAP1 DUP1 PUSH1 0x6 ADD SLOAD SWAP1 POP DUP4 JUMP JUMPDEST DUP2 PUSH1 0x1 DUP1 SLOAD SWAP1 POP GT PUSH2 0x746 JUMPI PUSH1 0x40 MLOAD PUSH32 0x8C379A000000000000000000000000000000000000000000000000000000000 DUP2 MSTORE PUSH1 0x4 ADD PUSH2 0x73D SWAP1 PUSH2 0x1487 JUMP JUMPDEST PUSH1 0x40 MLOAD DUP1 SWAP2 SUB SWAP1 REVERT JUMPDEST PUSH0 PUSH1 0x1 DUP4 DUP2 SLOAD DUP2 LT PUSH2 0x75B JUMPI PUSH2 0x75A PUSH2 0x1249 JUMP JUMPDEST JUMPDEST SWAP1 PUSH0 MSTORE PUSH1 0x20 PUSH0 KECCAK256 SWAP1 PUSH1 0x7 MUL ADD SWAP1 POP DUP2 DUP2 PUSH1 0x1 ADD DUP1 SLOAD SWAP1 POP GT PUSH2 0x7B2 JUMPI PUSH1 0x40 MLOAD PUSH32 0x8C379A000000000000000000000000000000000000000000000000000000000 DUP2 MSTORE PUSH1 0x4 ADD PUSH2 0x7A9 SWAP1 PUSH2 0x14EF JUMP JUMPDEST PUSH1 0x40 MLOAD DUP1 SWAP2 SUB SWAP1 REVERT JUMPDEST DUP1 PUSH1 0x5 ADD PUSH0 SWAP1 SLOAD SWAP1 PUSH2 0x100 EXP SWAP1 DIV PUSH1 0xFF AND PUSH2 0x802 JUMPI PUSH1 0x40 MLOAD PUSH32 0x8C379A000000000000000000000000000000000000000000000000000000000 DUP2 MSTORE PUSH1 0x4 ADD PUSH2 0x7F9 SWAP1 PUSH2 0x1557 JUMP JUMPDEST PUSH1 0x40 MLOAD DUP1 SWAP2 SUB SWAP1 REVERT JUMPDEST DUP1 PUSH1 0x2 ADD PUSH0 CALLER PUSH20 0xFFFFFFFFFFFFFFFFFFFFFFFFFFFFFFFFFFFFFFFF AND PUSH20 0xFFFFFFFFFFFFFFFFFFFFFFFFFFFFFFFFFFFFFFFF AND DUP2 MSTORE PUSH1 0x20 ADD SWAP1 DUP2 MSTORE PUSH1 0x20 ADD PUSH0 KECCAK256 PUSH0 SWAP1 SLOAD SWAP1 PUSH2 0x100 EXP SWAP1 DIV PUSH1 0xFF AND ISZERO PUSH2 0x88E JUMPI PUSH1 0x40 MLOAD PUSH32 0x8C379A000000000000000000000000000000000000000000000000000000000 DUP2 MSTORE PUSH1 0x4 ADD PUSH2 0x885 SWAP1 PUSH2 0x15BF JUMP JUMPDEST PUSH1 0x40 MLOAD DUP1 SWAP2 SUB SWAP1 REVERT JUMPDEST DUP1 PUSH1 0x6 ADD SLOAD TIMESTAMP GT ISZERO PUSH2 0x8D5 JUMPI PUSH1 0x40 MLOAD PUSH32 0x8C379A000000000000000000000000000000000000000000000000000000000 DUP2 MSTORE PUSH1 0x4 ADD PUSH2 0x8CC SWAP1 PUSH2 0x1627 JUMP JUMPDEST PUSH1 0x40 MLOAD DUP1 SWAP2 SUB SWAP1 REVERT JUMPDEST DUP1 PUSH1 0x4 ADD PUSH0 DUP4 DUP2 MSTORE PUSH1 0x20 ADD SWAP1 DUP2 MSTORE PUSH1 0x20 ADD PUSH0 KECCAK256 PUSH0 DUP2 SLOAD DUP1 SWAP3 SWAP2 SWAP1 PUSH2 0x8F8 SWAP1 PUSH2 0x12A3 JUMP JUMPDEST SWAP2 SWAP1 POP SSTORE POP PUSH1 0x1 DUP2 PUSH1 0x2 ADD PUSH0 CALLER PUSH20 0xFFFFFFFFFFFFFFFFFFFFFFFFFFFFFFFFFFFFFFFF AND PUSH20 0xFFFFFFFFFFFFFFFFFFFFFFFFFFFFFFFFFFFFFFFF AND DUP2 MSTORE PUSH1 0x20 ADD SWAP1 DUP2 MSTORE PUSH1 0x20 ADD PUSH0 KECCAK256 PUSH0 PUSH2 0x100 EXP DUP2 SLOAD DUP2 PUSH1 0xFF MUL NOT AND SWAP1 DUP4 ISZERO ISZERO MUL OR SWAP1 SSTORE POP POP POP POP JUMP JUMPDEST PUSH0 PUSH0 SWAP1 SLOAD SWAP1 PUSH2 0x100 EXP SWAP1 DIV PUSH20 0xFFFFFFFFFFFFFFFFFFFFFFFFFFFFFFFFFFFFFFFF AND PUSH20 0xFFFFFFFFFFFFFFFFFFFFFFFFFFFFFFFFFFFFFFFF AND CALLER PUSH20 0xFFFFFFFFFFFFFFFFFFFFFFFFFFFFFFFFFFFFFFFF AND EQ PUSH2 0x9E7 JUMPI PUSH1 0x40 MLOAD PUSH32 0x8C379A000000000000000000000000000000000000000000000000000000000 DUP2 MSTORE PUSH1 0x4 ADD PUSH2 0x9DE SWAP1 PUSH2 0x119D JUMP JUMPDEST PUSH1 0x40 MLOAD DUP1 SWAP2 SUB SWAP1 REVERT JUMPDEST PUSH1 0x2 DUP3 MLOAD LT ISZERO PUSH2 0xA2C JUMPI PUSH1 0x40 MLOAD PUSH32 0x8C379A000000000000000000000000000000000000000000000000000000000 DUP2 MSTORE PUSH1 0x4 ADD PUSH2 0xA23 SWAP1 PUSH2 0x168F JUMP JUMPDEST PUSH1 0x40 MLOAD DUP1 SWAP2 SUB SWAP1 REVERT JUMPDEST PUSH0 DUP2 GT PUSH2 0xA6E JUMPI PUSH1 0x40 MLOAD PUSH32 0x8C379A000000000000000000000000000000000000000000000000000000000 DUP2 MSTORE PUSH1 0x4 ADD PUSH2 0xA65 SWAP1 PUSH2 0x16F7 JUMP JUMPDEST PUSH1 0x40 MLOAD DUP1 SWAP2 SUB SWAP1 REVERT JUMPDEST PUSH0 PUSH1 0x1 DUP1 DUP2 PUSH1 0x1 DUP2 SLOAD ADD DUP1 DUP3 SSTORE DUP1 SWAP2 POP POP SUB SWAP1 PUSH0 MSTORE PUSH1 0x20 PUSH0 KECCAK256 SWAP1 PUSH1 0x7 MUL ADD SWAP1 POP DUP4 DUP2 PUSH0 ADD SWAP1 DUP2 PUSH2 0xA9E SWAP2 SWAP1 PUSH2 0x18B5 JUMP JUMPDEST POP DUP3 DUP2 PUSH1 0x1 ADD SWAP1 DUP1 MLOAD SWAP1 PUSH1 0x20 ADD SWAP1 PUSH2 0xAB7 SWAP3 SWAP2 SWAP1 PUSH2 0xAEE JUMP JUMPDEST POP PUSH1 0x1 DUP2 PUSH1 0x5 ADD PUSH0 PUSH2 0x100 EXP DUP2 SLOAD DUP2 PUSH1 0xFF MUL NOT AND SWAP1 DUP4 ISZERO ISZERO MUL OR SWAP1 SSTORE POP DUP2 TIMESTAMP PUSH2 0xAE0 SWAP2 SWAP1 PUSH2 0x1984 JUMP JUMPDEST DUP2 PUSH1 0x6 ADD DUP2 SWAP1 SSTORE POP POP POP POP POP JUMP JUMPDEST DUP3 DUP1 SLOAD DUP3 DUP3 SSTORE SWAP1 PUSH0 MSTORE PUSH1 0x20 PUSH0 KECCAK256 SWAP1 DUP2 ADD SWAP3 DUP3 ISZERO PUSH2 0xB34 JUMPI SWAP2 PUSH1 0x20 MUL DUP3 ADD JUMPDEST DUP3 DUP2 GT ISZERO PUSH2 0xB33 JUMPI DUP3 MLOAD DUP3 SWAP1 DUP2 PUSH2 0xB23 SWAP2 SWAP1 PUSH2 0x18B5 JUMP JUMPDEST POP SWAP2 PUSH1 0x20 ADD SWAP2 SWAP1 PUSH1 0x1 ADD SWAP1 PUSH2 0xB0C JUMP JUMPDEST JUMPDEST POP SWAP1 POP PUSH2 0xB41 SWAP2 SWAP1 PUSH2 0xB45 JUMP JUMPDEST POP SWAP1 JUMP JUMPDEST JUMPDEST DUP1 DUP3 GT ISZERO PUSH2 0xB64 JUMPI PUSH0 DUP2 DUP2 PUSH2 0xB5B SWAP2 SWAP1 PUSH2 0xB68 JUMP JUMPDEST POP PUSH1 0x1 ADD PUSH2 0xB46 JUMP JUMPDEST POP SWAP1 JUMP JUMPDEST POP DUP1 SLOAD PUSH2 0xB74 SWAP1 PUSH2 0x1317 JUMP JUMPDEST PUSH0 DUP3 SSTORE DUP1 PUSH1 0x1F LT PUSH2 0xB85 JUMPI POP PUSH2 0xBA2 JUMP JUMPDEST PUSH1 0x1F ADD PUSH1 0x20 SWAP1 DIV SWAP1 PUSH0 MSTORE PUSH1 0x20 PUSH0 KECCAK256 SWAP1 DUP2 ADD SWAP1 PUSH2 0xBA1 SWAP2 SWAP1 PUSH2 0xBA5 JUMP JUMPDEST JUMPDEST POP JUMP JUMPDEST JUMPDEST DUP1 DUP3 GT ISZERO PUSH2 0xBBC JUMPI PUSH0 DUP2 PUSH0 SWAP1 SSTORE POP PUSH1 0x1 ADD PUSH2 0xBA6 JUMP JUMPDEST POP SWAP1 JUMP JUMPDEST PUSH0 PUSH1 0x40 MLOAD SWAP1 POP SWAP1 JUMP JUMPDEST PUSH0 PUSH0 REVERT JUMPDEST PUSH0 PUSH0 REVERT JUMPDEST PUSH0 DUP2 SWAP1 POP SWAP2 SWAP1 POP JUMP JUMPDEST PUSH2 0xBE3 DUP2 PUSH2 0xBD1 JUMP JUMPDEST DUP2 EQ PUSH2 0xBED JUMPI PUSH0 PUSH0 REVERT JUMPDEST POP JUMP JUMPDEST PUSH0 DUP2 CALLDATALOAD SWAP1 POP PUSH2 0xBFE DUP2 PUSH2 0xBDA JUMP JUMPDEST SWAP3 SWAP2 POP POP JUMP JUMPDEST PUSH0 PUSH1 0x20 DUP3 DUP5 SUB SLT ISZERO PUSH2 0xC19 JUMPI PUSH2 0xC18 PUSH2 0xBC9 JUMP JUMPDEST JUMPDEST PUSH0 PUSH2 0xC26 DUP5 DUP3 DUP6 ADD PUSH2 0xBF0 JUMP JUMPDEST SWAP2 POP POP SWAP3 SWAP2 POP POP JUMP JUMPDEST PUSH0 DUP2 MLOAD SWAP1 POP SWAP2 SWAP1 POP JUMP JUMPDEST PUSH0 DUP3 DUP3 MSTORE PUSH1 0x20 DUP3 ADD SWAP1 POP SWAP3 SWAP2 POP POP JUMP JUMPDEST PUSH0 DUP2 SWAP1 POP PUSH1 0x20 DUP3 ADD SWAP1 POP SWAP2 SWAP1 POP JUMP JUMPDEST PUSH0 DUP2 MLOAD SWAP1 POP SWAP2 SWAP1 POP JUMP JUMPDEST PUSH0 DUP3 DUP3 MSTORE PUSH1 0x20 DUP3 ADD SWAP1 POP SWAP3 SWAP2 POP POP JUMP JUMPDEST DUP3 DUP2 DUP4 MCOPY PUSH0 DUP4 DUP4 ADD MSTORE POP POP POP JUMP JUMPDEST PUSH0 PUSH1 0x1F NOT PUSH1 0x1F DUP4 ADD AND SWAP1 POP SWAP2 SWAP1 POP JUMP JUMPDEST PUSH0 PUSH2 0xC9A DUP3 PUSH2 0xC58 JUMP JUMPDEST PUSH2 0xCA4 DUP2 DUP6 PUSH2 0xC62 JUMP JUMPDEST SWAP4 POP PUSH2 0xCB4 DUP2 DUP6 PUSH1 0x20 DUP7 ADD PUSH2 0xC72 JUMP JUMPDEST PUSH2 0xCBD DUP2 PUSH2 0xC80 JUMP JUMPDEST DUP5 ADD SWAP2 POP POP SWAP3 SWAP2 POP POP JUMP JUMPDEST PUSH0 PUSH2 0xCD3 DUP4 DUP4 PUSH2 0xC90 JUMP JUMPDEST SWAP1 POP SWAP3 SWAP2 POP POP JUMP JUMPDEST PUSH0 PUSH1 0x20 DUP3 ADD SWAP1 POP SWAP2 SWAP1 POP JUMP JUMPDEST PUSH0 PUSH2 0xCF1 DUP3 PUSH2 0xC2F JUMP JUMPDEST PUSH2 0xCFB DUP2 DUP6 PUSH2 0xC39 JUMP JUMPDEST SWAP4 POP DUP4 PUSH1 0x20 DUP3 MUL DUP6 ADD PUSH2 0xD0D DUP6 PUSH2 0xC49 JUMP JUMPDEST DUP1 PUSH0 JUMPDEST DUP6 DUP2 LT ISZERO PUSH2 0xD48 JUMPI DUP5 DUP5 SUB DUP10 MSTORE DUP2 MLOAD PUSH2 0xD29 DUP6 DUP3 PUSH2 0xCC8 JUMP JUMPDEST SWAP5 POP PUSH2 0xD34 DUP4 PUSH2 0xCDB JUMP JUMPDEST SWAP3 POP PUSH1 0x20 DUP11 ADD SWAP10 POP POP PUSH1 0x1 DUP2 ADD SWAP1 POP PUSH2 0xD10 JUMP JUMPDEST POP DUP3 SWAP8 POP DUP8 SWAP6 POP POP POP POP POP POP SWAP3 SWAP2 POP POP JUMP JUMPDEST PUSH0 PUSH1 0x20 DUP3 ADD SWAP1 POP DUP2 DUP2 SUB PUSH0 DUP4 ADD MSTORE PUSH2 0xD72 DUP2 DUP5 PUSH2 0xCE7 JUMP JUMPDEST SWAP1 POP SWAP3 SWAP2 POP POP JUMP JUMPDEST PUSH0 PUSH20 0xFFFFFFFFFFFFFFFFFFFFFFFFFFFFFFFFFFFFFFFF DUP3 AND SWAP1 POP SWAP2 SWAP1 POP JUMP JUMPDEST PUSH0 PUSH2 0xDA3 DUP3 PUSH2 0xD7A JUMP JUMPDEST SWAP1 POP SWAP2 SWAP1 POP JUMP JUMPDEST PUSH2 0xDB3 DUP2 PUSH2 0xD99 JUMP JUMPDEST DUP3 MSTORE POP POP JUMP JUMPDEST PUSH0 PUSH1 0x20 DUP3 ADD SWAP1 POP PUSH2 0xDCC PUSH0 DUP4 ADD DUP5 PUSH2 0xDAA JUMP JUMPDEST SWAP3 SWAP2 POP POP JUMP JUMPDEST PUSH0 DUP3 DUP3 MSTORE PUSH1 0x20 DUP3 ADD SWAP1 POP SWAP3 SWAP2 POP POP JUMP JUMPDEST PUSH0 PUSH2 0xDEC DUP3 PUSH2 0xC58 JUMP JUMPDEST PUSH2 0xDF6 DUP2 DUP6 PUSH2 0xDD2 JUMP JUMPDEST SWAP4 POP PUSH2 0xE06 DUP2 DUP6 PUSH1 0x20 DUP7 ADD PUSH2 0xC72 JUMP JUMPDEST PUSH2 0xE0F DUP2 PUSH2 0xC80 JUMP JUMPDEST DUP5 ADD SWAP2 POP POP SWAP3 SWAP2 POP POP JUMP JUMPDEST PUSH0 DUP2 ISZERO ISZERO SWAP1 POP SWAP2 SWAP1 POP JUMP JUMPDEST PUSH2 0xE2E DUP2 PUSH2 0xE1A JUMP JUMPDEST DUP3 MSTORE POP POP JUMP JUMPDEST PUSH2 0xE3D DUP2 PUSH2 0xBD1 JUMP JUMPDEST DUP3 MSTORE POP POP JUMP JUMPDEST PUSH0 PUSH1 0x60 DUP3 ADD SWAP1 POP DUP2 DUP2 SUB PUSH0 DUP4 ADD MSTORE PUSH2 0xE5B DUP2 DUP7 PUSH2 0xDE2 JUMP JUMPDEST SWAP1 POP PUSH2 0xE6A PUSH1 0x20 DUP4 ADD DUP6 PUSH2 0xE25 JUMP JUMPDEST PUSH2 0xE77 PUSH1 0x40 DUP4 ADD DUP5 PUSH2 0xE34 JUMP JUMPDEST SWAP5 SWAP4 POP POP POP POP JUMP JUMPDEST PUSH0 PUSH0 PUSH1 0x40 DUP4 DUP6 SUB SLT ISZERO PUSH2 0xE95 JUMPI PUSH2 0xE94 PUSH2 0xBC9 JUMP JUMPDEST JUMPDEST PUSH0 PUSH2 0xEA2 DUP6 DUP3 DUP7 ADD PUSH2 0xBF0 JUMP JUMPDEST SWAP3 POP POP PUSH1 0x20 PUSH2 0xEB3 DUP6 DUP3 DUP7 ADD PUSH2 0xBF0 JUMP JUMPDEST SWAP2 POP POP SWAP3 POP SWAP3 SWAP1 POP JUMP JUMPDEST PUSH0 PUSH0 REVERT JUMPDEST PUSH0 PUSH0 REVERT JUMPDEST PUSH32 0x4E487B7100000000000000000000000000000000000000000000000000000000 PUSH0 MSTORE PUSH1 0x41 PUSH1 0x4 MSTORE PUSH1 0x24 PUSH0 REVERT JUMPDEST PUSH2 0xEFB DUP3 PUSH2 0xC80 JUMP JUMPDEST DUP2 ADD DUP2 DUP2 LT PUSH8 0xFFFFFFFFFFFFFFFF DUP3 GT OR ISZERO PUSH2 0xF1A JUMPI PUSH2 0xF19 PUSH2 0xEC5 JUMP JUMPDEST JUMPDEST DUP1 PUSH1 0x40 MSTORE POP POP POP JUMP JUMPDEST PUSH0 PUSH2 0xF2C PUSH2 0xBC0 JUMP JUMPDEST SWAP1 POP PUSH2 0xF38 DUP3 DUP3 PUSH2 0xEF2 JUMP JUMPDEST SWAP2 SWAP1 POP JUMP JUMPDEST PUSH0 PUSH8 0xFFFFFFFFFFFFFFFF DUP3 GT ISZERO PUSH2 0xF57 JUMPI PUSH2 0xF56 PUSH2 0xEC5 JUMP JUMPDEST JUMPDEST PUSH2 0xF60 DUP3 PUSH2 0xC80 JUMP JUMPDEST SWAP1 POP PUSH1 0x20 DUP2 ADD SWAP1 POP SWAP2 SWAP1 POP JUMP JUMPDEST DUP3 DUP2 DUP4 CALLDATACOPY PUSH0 DUP4 DUP4 ADD MSTORE POP POP POP JUMP JUMPDEST PUSH0 PUSH2 0xF8D PUSH2 0xF88 DUP5 PUSH2 0xF3D JUMP JUMPDEST PUSH2 0xF23 JUMP JUMPDEST SWAP1 POP DUP3 DUP2 MSTORE PUSH1 0x20 DUP2 ADD DUP5 DUP5 DUP5 ADD GT ISZERO PUSH2 0xFA9 JUMPI PUSH2 0xFA8 PUSH2 0xEC1 JUMP JUMPDEST JUMPDEST PUSH2 0xFB4 DUP5 DUP3 DUP6 PUSH2 0xF6D JUMP JUMPDEST POP SWAP4 SWAP3 POP POP POP JUMP JUMPDEST PUSH0 DUP3 PUSH1 0x1F DUP4 ADD SLT PUSH2 0xFD0 JUMPI PUSH2 0xFCF PUSH2 0xEBD JUMP JUMPDEST JUMPDEST DUP2 CALLDATALOAD PUSH2 0xFE0 DUP5 DUP3 PUSH1 0x20 DUP7 ADD PUSH2 0xF7B JUMP JUMPDEST SWAP2 POP POP SWAP3 SWAP2 POP POP JUMP JUMPDEST PUSH0 PUSH8 0xFFFFFFFFFFFFFFFF DUP3 GT ISZERO PUSH2 0x1003 JUMPI PUSH2 0x1002 PUSH2 0xEC5 JUMP JUMPDEST JUMPDEST PUSH1 0x20 DUP3 MUL SWAP1 POP PUSH1 0x20 DUP2 ADD SWAP1 POP SWAP2 SWAP1 POP JUMP JUMPDEST PUSH0 PUSH0 REVERT JUMPDEST PUSH0 PUSH2 0x102A PUSH2 0x1025 DUP5 PUSH2 0xFE9 JUMP JUMPDEST PUSH2 0xF23 JUMP JUMPDEST SWAP1 POP DUP1 DUP4 DUP3 MSTORE PUSH1 0x20 DUP3 ADD SWAP1 POP PUSH1 0x20 DUP5 MUL DUP4 ADD DUP6 DUP2 GT ISZERO PUSH2 0x104D JUMPI PUSH2 0x104C PUSH2 0x1014 JUMP JUMPDEST JUMPDEST DUP4 JUMPDEST DUP2 DUP2 LT ISZERO PUSH2 0x1094 JUMPI DUP1 CALLDATALOAD PUSH8 0xFFFFFFFFFFFFFFFF DUP2 GT ISZERO PUSH2 0x1072 JUMPI PUSH2 0x1071 PUSH2 0xEBD JUMP JUMPDEST JUMPDEST DUP1 DUP7 ADD PUSH2 0x107F DUP10 DUP3 PUSH2 0xFBC JUMP JUMPDEST DUP6 MSTORE PUSH1 0x20 DUP6 ADD SWAP5 POP POP POP PUSH1 0x20 DUP2 ADD SWAP1 POP PUSH2 0x104F JUMP JUMPDEST POP POP POP SWAP4 SWAP3 POP POP POP JUMP JUMPDEST PUSH0 DUP3 PUSH1 0x1F DUP4 ADD SLT PUSH2 0x10B2 JUMPI PUSH2 0x10B1 PUSH2 0xEBD JUMP JUMPDEST JUMPDEST DUP2 CALLDATALOAD PUSH2 0x10C2 DUP5 DUP3 PUSH1 0x20 DUP7 ADD PUSH2 0x1018 JUMP JUMPDEST SWAP2 POP POP SWAP3 SWAP2 POP POP JUMP JUMPDEST PUSH0 PUSH0 PUSH0 PUSH1 0x60 DUP5 DUP7 SUB SLT ISZERO PUSH2 0x10E2 JUMPI PUSH2 0x10E1 PUSH2 0xBC9 JUMP JUMPDEST JUMPDEST PUSH0 DUP5 ADD CALLDATALOAD PUSH8 0xFFFFFFFFFFFFFFFF DUP2 GT ISZERO PUSH2 0x10FF JUMPI PUSH2 0x10FE PUSH2 0xBCD JUMP JUMPDEST JUMPDEST PUSH2 0x110B DUP7 DUP3 DUP8 ADD PUSH2 0xFBC JUMP JUMPDEST SWAP4 POP POP PUSH1 0x20 DUP5 ADD CALLDATALOAD PUSH8 0xFFFFFFFFFFFFFFFF DUP2 GT ISZERO PUSH2 0x112C JUMPI PUSH2 0x112B PUSH2 0xBCD JUMP JUMPDEST JUMPDEST PUSH2 0x1138 DUP7 DUP3 DUP8 ADD PUSH2 0x109E JUMP JUMPDEST SWAP3 POP POP PUSH1 0x40 PUSH2 0x1149 DUP7 DUP3 DUP8 ADD PUSH2 0xBF0 JUMP JUMPDEST SWAP2 POP POP SWAP3 POP SWAP3 POP SWAP3 JUMP JUMPDEST PUSH32 0x4F6E6C79206F776E65722063616E2063616C6C20746869732E00000000000000 PUSH0 DUP3 ADD MSTORE POP JUMP JUMPDEST PUSH0 PUSH2 0x1187 PUSH1 0x19 DUP4 PUSH2 0xDD2 JUMP JUMPDEST SWAP2 POP PUSH2 0x1192 DUP3 PUSH2 0x1153 JUMP JUMPDEST PUSH1 0x20 DUP3 ADD SWAP1 POP SWAP2 SWAP1 POP JUMP JUMPDEST PUSH0 PUSH1 0x20 DUP3 ADD SWAP1 POP DUP2 DUP2 SUB PUSH0 DUP4 ADD MSTORE PUSH2 0x11B4 DUP2 PUSH2 0x117B JUMP JUMPDEST SWAP1 POP SWAP2 SWAP1 POP JUMP JUMPDEST PUSH32 0x706F6C6C7320696E646578206F7574206F6620626F756E64206578657074696F PUSH0 DUP3 ADD MSTORE PUSH32 0x6E00000000000000000000000000000000000000000000000000000000000000 PUSH1 0x20 DUP3 ADD MSTORE POP JUMP JUMPDEST PUSH0 PUSH2 0x1215 PUSH1 0x21 DUP4 PUSH2 0xDD2 JUMP JUMPDEST SWAP2 POP PUSH2 0x1220 DUP3 PUSH2 0x11BB JUMP JUMPDEST PUSH1 0x40 DUP3 ADD SWAP1 POP SWAP2 SWAP1 POP JUMP JUMPDEST PUSH0 PUSH1 0x20 DUP3 ADD SWAP1 POP DUP2 DUP2 SUB PUSH0 DUP4 ADD MSTORE PUSH2 0x1242 DUP2 PUSH2 0x1209 JUMP JUMPDEST SWAP1 POP SWAP2 SWAP1 POP JUMP JUMPDEST PUSH32 0x4E487B7100000000000000000000000000000000000000000000000000000000 PUSH0 MSTORE PUSH1 0x32 PUSH1 0x4 MSTORE PUSH1 0x24 PUSH0 REVERT JUMPDEST PUSH32 0x4E487B7100000000000000000000000000000000000000000000000000000000 PUSH0 MSTORE PUSH1 0x11 PUSH1 0x4 MSTORE PUSH1 0x24 PUSH0 REVERT JUMPDEST PUSH0 PUSH2 0x12AD DUP3 PUSH2 0xBD1 JUMP JUMPDEST SWAP2 POP PUSH32 0xFFFFFFFFFFFFFFFFFFFFFFFFFFFFFFFFFFFFFFFFFFFFFFFFFFFFFFFFFFFFFFFF DUP3 SUB PUSH2 0x12DF JUMPI PUSH2 0x12DE PUSH2 0x1276 JUMP JUMPDEST JUMPDEST PUSH1 0x1 DUP3 ADD SWAP1 POP SWAP2 SWAP1 POP JUMP JUMPDEST PUSH32 0x4E487B7100000000000000000000000000000000000000000000000000000000 PUSH0 MSTORE PUSH1 0x22 PUSH1 0x4 MSTORE PUSH1 0x24 PUSH0 REVERT JUMPDEST PUSH0 PUSH1 0x2 DUP3 DIV SWAP1 POP PUSH1 0x1 DUP3 AND DUP1 PUSH2 0x132E JUMPI PUSH1 0x7F DUP3 AND SWAP2 POP JUMPDEST PUSH1 0x20 DUP3 LT DUP2 SUB PUSH2 0x1341 JUMPI PUSH2 0x1340 PUSH2 0x12EA JUMP JUMPDEST JUMPDEST POP SWAP2 SWAP1 POP JUMP JUMPDEST PUSH32 0x496E76616C696420706F6C6C20696E6465780000000000000000000000000000 PUSH0 DUP3 ADD MSTORE POP JUMP JUMPDEST PUSH0 PUSH2 0x137B PUSH1 0x12 DUP4 PUSH2 0xDD2 JUMP JUMPDEST SWAP2 POP PUSH2 0x1386 DUP3 PUSH2 0x1347 JUMP JUMPDEST PUSH1 0x20 DUP3 ADD SWAP1 POP SWAP2 SWAP1 POP JUMP JUMPDEST PUSH0 PUSH1 0x20 DUP3 ADD SWAP1 POP DUP2 DUP2 SUB PUSH0 DUP4 ADD MSTORE PUSH2 0x13A8 DUP2 PUSH2 0x136F JUMP JUMPDEST SWAP1 POP SWAP2 SWAP1 POP JUMP JUMPDEST PUSH32 0x506F6C6C20697320616C726561647920636C6F73656400000000000000000000 PUSH0 DUP3 ADD MSTORE POP JUMP JUMPDEST PUSH0 PUSH2 0x13E3 PUSH1 0x16 DUP4 PUSH2 0xDD2 JUMP JUMPDEST SWAP2 POP PUSH2 0x13EE DUP3 PUSH2 0x13AF JUMP JUMPDEST PUSH1 0x20 DUP3 ADD SWAP1 POP SWAP2 SWAP1 POP JUMP JUMPDEST PUSH0 PUSH1 0x20 DUP3 ADD SWAP1 POP DUP2 DUP2 SUB PUSH0 DUP4 ADD MSTORE PUSH2 0x1410 DUP2 PUSH2 0x13D7 JUMP JUMPDEST SWAP1 POP SWAP2 SWAP1 POP JUMP JUMPDEST PUSH32 0x706F6C6C20696E646578206F7574206F6620626F756E6420657863657074696F PUSH0 DUP3 ADD MSTORE PUSH32 0x6E00000000000000000000000000000000000000000000000000000000000000 PUSH1 0x20 DUP3 ADD MSTORE POP JUMP JUMPDEST PUSH0 PUSH2 0x1471 PUSH1 0x21 DUP4 PUSH2 0xDD2 JUMP JUMPDEST SWAP2 POP PUSH2 0x147C DUP3 PUSH2 0x1417 JUMP JUMPDEST PUSH1 0x40 DUP3 ADD SWAP1 POP SWAP2 SWAP1 POP JUMP JUMPDEST PUSH0 PUSH1 0x20 DUP3 ADD SWAP1 POP DUP2 DUP2 SUB PUSH0 DUP4 ADD MSTORE PUSH2 0x149E DUP2 PUSH2 0x1465 JUMP JUMPDEST SWAP1 POP SWAP2 SWAP1 POP JUMP JUMPDEST PUSH32 0x6F7074696F6E73206F7574206F6620626F756E6420657863657074696F6E0000 PUSH0 DUP3 ADD MSTORE POP JUMP JUMPDEST PUSH0 PUSH2 0x14D9 PUSH1 0x1E DUP4 PUSH2 0xDD2 JUMP JUMPDEST SWAP2 POP PUSH2 0x14E4 DUP3 PUSH2 0x14A5 JUMP JUMPDEST PUSH1 0x20 DUP3 ADD SWAP1 POP SWAP2 SWAP1 POP JUMP JUMPDEST PUSH0 PUSH1 0x20 DUP3 ADD SWAP1 POP DUP2 DUP2 SUB PUSH0 DUP4 ADD MSTORE PUSH2 0x1506 DUP2 PUSH2 0x14CD JUMP JUMPDEST SWAP1 POP SWAP2 SWAP1 POP JUMP JUMPDEST PUSH32 0x506F6C6C2068617320636C6F7365642E00000000000000000000000000000000 PUSH0 DUP3 ADD MSTORE POP JUMP JUMPDEST PUSH0 PUSH2 0x1541 PUSH1 0x10 DUP4 PUSH2 0xDD2 JUMP JUMPDEST SWAP2 POP PUSH2 0x154C DUP3 PUSH2 0x150D JUMP JUMPDEST PUSH1 0x20 DUP3 ADD SWAP1 POP SWAP2 SWAP1 POP JUMP JUMPDEST PUSH0 PUSH1 0x20 DUP3 ADD SWAP1 POP DUP2 DUP2 SUB PUSH0 DUP4 ADD MSTORE PUSH2 0x156E DUP2 PUSH2 0x1535 JUMP JUMPDEST SWAP1 POP SWAP2 SWAP1 POP JUMP JUMPDEST PUSH32 0x596F7520766F746564206265666F726500000000000000000000000000000000 PUSH0 DUP3 ADD MSTORE POP JUMP JUMPDEST PUSH0 PUSH2 0x15A9 PUSH1 0x10 DUP4 PUSH2 0xDD2 JUMP JUMPDEST SWAP2 POP PUSH2 0x15B4 DUP3 PUSH2 0x1575 JUMP JUMPDEST PUSH1 0x20 DUP3 ADD SWAP1 POP SWAP2 SWAP1 POP JUMP JUMPDEST PUSH0 PUSH1 0x20 DUP3 ADD SWAP1 POP DUP2 DUP2 SUB PUSH0 DUP4 ADD MSTORE PUSH2 0x15D6 DUP2 PUSH2 0x159D JUMP JUMPDEST SWAP1 POP SWAP2 SWAP1 POP JUMP JUMPDEST PUSH32 0x566F74696E6720706572696F642068617320656E646564000000000000000000 PUSH0 DUP3 ADD MSTORE POP JUMP JUMPDEST PUSH0 PUSH2 0x1611 PUSH1 0x17 DUP4 PUSH2 0xDD2 JUMP JUMPDEST SWAP2 POP PUSH2 0x161C DUP3 PUSH2 0x15DD JUMP JUMPDEST PUSH1 0x20 DUP3 ADD SWAP1 POP SWAP2 SWAP1 POP JUMP JUMPDEST PUSH0 PUSH1 0x20 DUP3 ADD SWAP1 POP DUP2 DUP2 SUB PUSH0 DUP4 ADD MSTORE PUSH2 0x163E DUP2 PUSH2 0x1605 JUMP JUMPDEST SWAP1 POP SWAP2 SWAP1 POP JUMP JUMPDEST PUSH32 0x4174206C656173742032206F7074696F6E732072657175697265640000000000 PUSH0 DUP3 ADD MSTORE POP JUMP JUMPDEST PUSH0 PUSH2 0x1679 PUSH1 0x1B DUP4 PUSH2 0xDD2 JUMP JUMPDEST SWAP2 POP PUSH2 0x1684 DUP3 PUSH2 0x1645 JUMP JUMPDEST PUSH1 0x20 DUP3 ADD SWAP1 POP SWAP2 SWAP1 POP JUMP JUMPDEST PUSH0 PUSH1 0x20 DUP3 ADD SWAP1 POP DUP2 DUP2 SUB PUSH0 DUP4 ADD MSTORE PUSH2 0x16A6 DUP2 PUSH2 0x166D JUMP JUMPDEST SWAP1 POP SWAP2 SWAP1 POP JUMP JUMPDEST PUSH32 0x4475726174696F6E206D757374206265203E3000000000000000000000000000 PUSH0 DUP3 ADD MSTORE POP JUMP JUMPDEST PUSH0 PUSH2 0x16E1 PUSH1 0x13 DUP4 PUSH2 0xDD2 JUMP JUMPDEST SWAP2 POP PUSH2 0x16EC DUP3 PUSH2 0x16AD JUMP JUMPDEST PUSH1 0x20 DUP3 ADD SWAP1 POP SWAP2 SWAP1 POP JUMP JUMPDEST PUSH0 PUSH1 0x20 DUP3 ADD SWAP1 POP DUP2 DUP2 SUB PUSH0 DUP4 ADD MSTORE PUSH2 0x170E DUP2 PUSH2 0x16D5 JUMP JUMPDEST SWAP1 POP SWAP2 SWAP1 POP JUMP JUMPDEST PUSH0 DUP2 SWAP1 POP DUP2 PUSH0 MSTORE PUSH1 0x20 PUSH0 KECCAK256 SWAP1 POP SWAP2 SWAP1 POP JUMP JUMPDEST PUSH0 PUSH1 0x20 PUSH1 0x1F DUP4 ADD DIV SWAP1 POP SWAP2 SWAP1 POP JUMP JUMPDEST PUSH0 DUP3 DUP3 SHL SWAP1 POP SWAP3 SWAP2 POP POP JUMP JUMPDEST PUSH0 PUSH1 0x8 DUP4 MUL PUSH2 0x1771 PUSH32 0xFFFFFFFFFFFFFFFFFFFFFFFFFFFFFFFFFFFFFFFFFFFFFFFFFFFFFFFFFFFFFFFF DUP3 PUSH2 0x1736 JUMP JUMPDEST PUSH2 0x177B DUP7 DUP4 PUSH2 0x1736 JUMP JUMPDEST SWAP6 POP DUP1 NOT DUP5 AND SWAP4 POP DUP1 DUP7 AND DUP5 OR SWAP3 POP POP POP SWAP4 SWAP3 POP POP POP JUMP JUMPDEST PUSH0 DUP2 SWAP1 POP SWAP2 SWAP1 POP JUMP JUMPDEST PUSH0 PUSH2 0x17B6 PUSH2 0x17B1 PUSH2 0x17AC DUP5 PUSH2 0xBD1 JUMP JUMPDEST PUSH2 0x1793 JUMP JUMPDEST PUSH2 0xBD1 JUMP JUMPDEST SWAP1 POP SWAP2 SWAP1 POP JUMP JUMPDEST PUSH0 DUP2 SWAP1 POP SWAP2 SWAP1 POP JUMP JUMPDEST PUSH2 0x17CF DUP4 PUSH2 0x179C JUMP JUMPDEST PUSH2 0x17E3 PUSH2 0x17DB DUP3 PUSH2 0x17BD JUMP JUMPDEST DUP5 DUP5 SLOAD PUSH2 0x1742 JUMP JUMPDEST DUP3 SSTORE POP POP POP POP JUMP JUMPDEST PUSH0 PUSH0 SWAP1 POP SWAP1 JUMP JUMPDEST PUSH2 0x17FA PUSH2 0x17EB JUMP JUMPDEST PUSH2 0x1805 DUP2 DUP5 DUP5 PUSH2 0x17C6 JUMP JUMPDEST POP POP POP JUMP JUMPDEST JUMPDEST DUP2 DUP2 LT ISZERO PUSH2 0x1828 JUMPI PUSH2 0x181D PUSH0 DUP3 PUSH2 0x17F2 JUMP JUMPDEST PUSH1 0x1 DUP2 ADD SWAP1 POP PUSH2 0x180B JUMP JUMPDEST POP POP JUMP JUMPDEST PUSH1 0x1F DUP3 GT ISZERO PUSH2 0x186D JUMPI PUSH2 0x183E DUP2 PUSH2 0x1715 JUMP JUMPDEST PUSH2 0x1847 DUP5 PUSH2 0x1727 JUMP JUMPDEST DUP2 ADD PUSH1 0x20 DUP6 LT ISZERO PUSH2 0x1856 JUMPI DUP2 SWAP1 POP JUMPDEST PUSH2 0x186A PUSH2 0x1862 DUP6 PUSH2 0x1727 JUMP JUMPDEST DUP4 ADD DUP3 PUSH2 0x180A JUMP JUMPDEST POP POP JUMPDEST POP POP POP JUMP JUMPDEST PUSH0 DUP3 DUP3 SHR SWAP1 POP SWAP3 SWAP2 POP POP JUMP JUMPDEST PUSH0 PUSH2 0x188D PUSH0 NOT DUP5 PUSH1 0x8 MUL PUSH2 0x1872 JUMP JUMPDEST NOT DUP1 DUP4 AND SWAP2 POP POP SWAP3 SWAP2 POP POP JUMP JUMPDEST PUSH0 PUSH2 0x18A5 DUP4 DUP4 PUSH2 0x187E JUMP JUMPDEST SWAP2 POP DUP3 PUSH1 0x2 MUL DUP3 OR SWAP1 POP SWAP3 SWAP2 POP POP JUMP JUMPDEST PUSH2 0x18BE DUP3 PUSH2 0xC58 JUMP JUMPDEST PUSH8 0xFFFFFFFFFFFFFFFF DUP2 GT ISZERO PUSH2 0x18D7 JUMPI PUSH2 0x18D6 PUSH2 0xEC5 JUMP JUMPDEST JUMPDEST PUSH2 0x18E1 DUP3 SLOAD PUSH2 0x1317 JUMP JUMPDEST PUSH2 0x18EC DUP3 DUP3 DUP6 PUSH2 0x182C JUMP JUMPDEST PUSH0 PUSH1 0x20 SWAP1 POP PUSH1 0x1F DUP4 GT PUSH1 0x1 DUP2 EQ PUSH2 0x191D JUMPI PUSH0 DUP5 ISZERO PUSH2 0x190B JUMPI DUP3 DUP8 ADD MLOAD SWAP1 POP JUMPDEST PUSH2 0x1915 DUP6 DUP3 PUSH2 0x189A JUMP JUMPDEST DUP7 SSTORE POP PUSH2 0x197C JUMP JUMPDEST PUSH1 0x1F NOT DUP5 AND PUSH2 0x192B DUP7 PUSH2 0x1715 JUMP JUMPDEST PUSH0 JUMPDEST DUP3 DUP2 LT ISZERO PUSH2 0x1952 JUMPI DUP5 DUP10 ADD MLOAD DUP3 SSTORE PUSH1 0x1 DUP3 ADD SWAP2 POP PUSH1 0x20 DUP6 ADD SWAP5 POP PUSH1 0x20 DUP2 ADD SWAP1 POP PUSH2 0x192D JUMP JUMPDEST DUP7 DUP4 LT ISZERO PUSH2 0x196F JUMPI DUP5 DUP10 ADD MLOAD PUSH2 0x196B PUSH1 0x1F DUP10 AND DUP3 PUSH2 0x187E JUMP JUMPDEST DUP4 SSTORE POP JUMPDEST PUSH1 0x1 PUSH1 0x2 DUP9 MUL ADD DUP9 SSTORE POP POP POP JUMPDEST POP POP POP POP POP POP JUMP JUMPDEST PUSH0 PUSH2 0x198E DUP3 PUSH2 0xBD1 JUMP JUMPDEST SWAP2 POP PUSH2 0x1999 DUP4 PUSH2 0xBD1 JUMP JUMPDEST SWAP3 POP DUP3 DUP3 ADD SWAP1 POP DUP1 DUP3 GT ISZERO PUSH2 0x19B1 JUMPI PUSH2 0x19B0 PUSH2 0x1276 JUMP JUMPDEST JUMPDEST SWAP3 SWAP2 POP POP JUMP INVALID LOG2 PUSH5 0x6970667358 0x22 SLT KECCAK256 SWAP12 JUMP STOP BASEFEE 0xAE CALLVALUE PUSH30 0x74468BCD7FCA2B66902E820B26A42CB6451D9FC3566C16E2AE64736F6C63 NUMBER STOP ADDMOD 0x1E STOP CALLER "
				},
				"gasEstimates": {
					"creation": {
						"codeDepositCost": "1327400",
						"executionCost": "25645",
						"totalCost": "1353045"
					},
					"external": {
						"closePoll(uint256)": "33352",
						"createPoll(string,string[],uint256)": "infinite",
						"getWinner(uint256)": "infinite",
						"owner()": "2507",
						"polls(uint256)": "infinite",
						"vote(uint256,uint256)": "infinite"
					}
				},
				"methodIdentifiers": {
					"closePoll(uint256)": "9534e637",
					"createPoll(string,string[],uint256)": "f8c860f4",
					"getWinner(uint256)": "4129b2c9",
					"owner()": "8da5cb5b",
					"polls(uint256)": "ac2f0074",
					"vote(uint256,uint256)": "b384abef"
				}
			},
			"storageLayout": {
				"storage": [
					{
						"astId": 3,
						"contract": "contracts/VotingSystem.sol:VotingSystem",
						"label": "owner",
						"offset": 0,
						"slot": "0",
						"type": "t_address"
					},
					{
						"astId": 38,
						"contract": "contracts/VotingSystem.sol:VotingSystem",
						"label": "polls",
						"offset": 0,
						"slot": "1",
						"type": "t_array(t_struct(Poll)25_storage)dyn_storage"
					}
				],
				"types": {
					"t_address": {
						"encoding": "inplace",
						"label": "address",
						"numberOfBytes": "20"
					},
					"t_array(t_string_storage)dyn_storage": {
						"base": "t_string_storage",
						"encoding": "dynamic_array",
						"label": "string[]",
						"numberOfBytes": "32"
					},
					"t_array(t_struct(Poll)25_storage)dyn_storage": {
						"base": "t_struct(Poll)25_storage",
						"encoding": "dynamic_array",
						"label": "struct VotingSystem.Poll[]",
						"numberOfBytes": "32"
					},
					"t_bool": {
						"encoding": "inplace",
						"label": "bool",
						"numberOfBytes": "1"
					},
					"t_mapping(t_address,t_bool)": {
						"encoding": "mapping",
						"key": "t_address",
						"label": "mapping(address => bool)",
						"numberOfBytes": "32",
						"value": "t_bool"
					},
					"t_mapping(t_address,t_string_storage)": {
						"encoding": "mapping",
						"key": "t_address",
						"label": "mapping(address => string)",
						"numberOfBytes": "32",
						"value": "t_string_storage"
					},
					"t_mapping(t_uint256,t_uint256)": {
						"encoding": "mapping",
						"key": "t_uint256",
						"label": "mapping(uint256 => uint256)",
						"numberOfBytes": "32",
						"value": "t_uint256"
					},
					"t_string_storage": {
						"encoding": "bytes",
						"label": "string",
						"numberOfBytes": "32"
					},
					"t_struct(Poll)25_storage": {
						"encoding": "inplace",
						"label": "struct VotingSystem.Poll",
						"members": [
							{
								"astId": 5,
								"contract": "contracts/VotingSystem.sol:VotingSystem",
								"label": "question",
								"offset": 0,
								"slot": "0",
								"type": "t_string_storage"
							},
							{
								"astId": 8,
								"contract": "contracts/VotingSystem.sol:VotingSystem",
								"label": "options",
								"offset": 0,
								"slot": "1",
								"type": "t_array(t_string_storage)dyn_storage"
							},
							{
								"astId": 12,
								"contract": "contracts/VotingSystem.sol:VotingSystem",
								"label": "voted",
								"offset": 0,
								"slot": "2",
								"type": "t_mapping(t_address,t_bool)"
							},
							{
								"astId": 16,
								"contract": "contracts/VotingSystem.sol:VotingSystem",
								"label": "userVotes",
								"offset": 0,
								"slot": "3",
								"type": "t_mapping(t_address,t_string_storage)"
							},
							{
								"astId": 20,
								"contract": "contracts/VotingSystem.sol:VotingSystem",
								"label": "voteCounts",
								"offset": 0,
								"slot": "4",
								"type": "t_mapping(t_uint256,t_uint256)"
							},
							{
								"astId": 22,
								"contract": "contracts/VotingSystem.sol:VotingSystem",
								"label": "isOpen",
								"offset": 0,
								"slot": "5",
								"type": "t_bool"
							},
							{
								"astId": 24,
								"contract": "contracts/VotingSystem.sol:VotingSystem",
								"label": "deadline",
								"offset": 0,
								"slot": "6",
								"type": "t_uint256"
							}
						],
						"numberOfBytes": "224"
					},
					"t_uint256": {
						"encoding": "inplace",
						"label": "uint256",
						"numberOfBytes": "32"
					}
				}
			},
			"userdoc": {
				"kind": "user",
				"methods": {},
				"version": 1
			}
		}
	}
}